:100000000C9457000C946A110C94A6110C94ED11E9
:100010000C942D120C94DF000C94DF000C94DF0084
:100020000C94DF000C946C120C94DF000C94DF0035
:100030000C94D3120C94DF000C94DF000C94DF00BE
:100040000C94DF000C94DF000C94DF000C94DF00B4
:100050000C94DF000C94DF000C94DF000C9414135C
:100060000C94DF000C94DF000C94DF000C94DF0094
:100070000C94DF000C94DF000C94DF000C94DF0084
:100080000C94D1130C94DF000C94DF000C94DF006F
:100090000C94DF000C94DF000C94DF000C94DF0064
:1000A0000C94DF000C94DF000C94DF005B2114BE85
:1000B00080E885BF85BF549A5C98249A2C98579AFB
:1000C0005F9884B1817784B99FB7F89484B18177C0
:1000D00084B985B18E6885B99FBF8AB18F798AB995
:1000E0009FB7F8948AB18F798AB98BB180668BB942
:1000F0009FBF87B117B89FB7F89487B117B888B179
:100100008FEF88B99FBF9DB11DB89FB7F8942DB1EF
:100110001DB82EB18EB99FBF90B310BA9FB7F89497
:1001200020B310BA21B381BB9FBFEAE7F0E0808122
:100130008F77808380B7806880BF8DE8809364006C
:1001400089E98093650011241FBECFEFDAE0DEBF9E
:10015000CDBF12E0A0E0B1E0E4EDF6E402C005900E
:100160000D92A633B107D9F722E0A6E3B2E001C0B1
:100170001D92AF3EB207E1F710E0C7E5D0E004C042
:100180002197FE010E940223C635D107C9F7F894D2
:10019000A895E0E6F0E088E180838BE4808381E04D
:1001A000809368001BBA80936B0085E5809369009B
:1001B0001CBA8FE08DBB0E9406150C9417230C947B
:1001C0000000DC01ED91FC9111970480F581E02D98
:1001D00080E0E13FF80719F412966C930895CD0181
:1001E0000994FC0162830895DC01ED91FC91119763
:1001F0000680F781E02D81E0E430F80719F41296CB
:100200008C910895CD010994FC0182810895FC012F
:10021000838184830895CF93DF93EC018A818823BF
:1002200059F081508A838C81882319F08D8188232D
:1002300079F0DF91CF910895E881F9810280F3810F
:10024000E02D21E0E730F20771F48B818C83EBCF56
:10025000CE5ADF4F888199818F3F980751F30196DD
:1002600099838883E6CFCE010995DDCFFC01808597
:10027000823041F0662319F083E090E0089586E033
:1002800090E0089583E190E10895FC0184819581D7
:10029000891709F445C0811124C081E080878CE56D
:1002A00095E09383828383E292E09093EB028093C4
:1002B000EA0280916500877F809365008EE090E080
:1002C0009093990080939800C09A10929500109294
:1002D0009400809191008560809391008481858352
:1002E000089510868CE292E09093EB028093EA02EC
:1002F00080916500877F809365008EE090E0909309
:10030000990080939800C09A1092950010929400E2
:100310008091910085608093910084818583089508
:100320008581811105C08085813011F482E080874C
:10033000089580E00895FC01738362830895FC01B1
:100340008281938108959C019FB7F894E5E6F0E0DF
:100350008081877F808344E35CE0509399004093E1
:100360009800C09A10929500109294009FBF9FB77A
:10037000F894E4E6F0E08081877F80833093890001
:100380002093880080E4809380009FBF9FB7F894FB
:10039000E1E9F0E08081856080839FBF089581E07E
:1003A0000895CF93DC01CFB7F894ED91FC911197AC
:1003B0000480F581E02D81E0EB39F80741F41296D5
:1003C0006C93129713967C93CFBFCF910895CD0174
:1003D0000995CFBFCF910895CF93DF9300D0CDB7CC
:1003E000DEB780910001811131C08091E60291E079
:1003F000892720910001222389F0882389F0909396
:10040000DF028091E00281110BC088E08093370207
:1004100080E00F900F90DF91CF9108958111F5CF7B
:100420008091A302882309F447C01092A3028FB7DA
:10043000F89426E030E03093A2022093A1028FBF0F
:1004400081E00F900F90DF91CF9108958091E002AD
:10045000882359F280919B02882329F080919C0285
:10046000882309F459C080919A0290919C029111BD
:1004700069C090919B02911144C090919E02282FD7
:10048000292B09F4CEC021E020939B02833008F091
:10049000ACCF992309F4A9CF1092E00280916B00B0
:1004A00080FFA3CF9FB7F89480916B008E7F8093DD
:1004B0006B009FBFD89A99CF8FB7F8942091A10273
:1004C0003091A2023A8329838FBF89819A81892B37
:1004D00031F081E00F900F90DF91CF9108958FB7A9
:1004E000F89426E030E03093A2022093A1028FBF5F
:1004F00082E08093370280E00F900F90DF91CF91E0
:10050000089590919C029111B8CF882309F489C075
:1005100081E080939B0269CF80919C02811165CF1D
:1005200080919B02882329F080919C02882309F402
:10053000B1C090919E02992309F473C081E0809329
:100540009B02A7CF8930C0F5853008F46BC080913D
:100550009702823009F449CF9FB7F89480916500E3
:10056000877F8093650024E33CE0309399002093DB
:100570009800C09A10929500109294009FBF9FB768
:10058000F89480916400877F809364002CEE35E0BE
:10059000309389002093880080E4809380009FBF7F
:1005A0009FB7F894809191008560809391009FBFE0
:1005B00082E08093970219CF80919702833009F4EB
:1005C00014CF9FB7F89480916500877F8093650072
:1005D00024E33CE03093990020939800C09A109255
:1005E0009500109294009FBF9FB7F894809164008B
:1005F000877F8093640026E436E03093890020935F
:10060000880080E4809380009FBF9FB7F89480911A
:1006100091008560809391009FBF83E08093970253
:10062000E4CEE3CE833008F4E0CE809197028130AF
:1006300009F4DBCE9FB7F89480916500877F8093A3
:10064000650024E33CE03093990020939800C09A21
:1006500010929500109294009FBF9FB7F8948091DC
:100660006400877F8093640027E935E03093890038
:100670002093880080E4809380009FBF9FB7F89408
:10068000809191008560809391009FBF81E080936D
:100690009702ABCEAACE82E00895FF920F931F93EC
:1006A000CF93DF93EC018B01FFB6F894E881F981D9
:1006B0000480F581E02D81E0EB39F80759F46A8375
:1006C0001B83FFBE0D831E83DF91CF911F910F917E
:1006D000FF900895CE010995F4CFFC0192AD81E021
:1006E000913009F080E00895CF93DF93CDB7DEB766
:1006F0002C970FB6F894DEBF0FBECDBF8091DE02FF
:10070000813009F08DC08FEF8093DE0283B7817F47
:1007100083BF9FB7F894809164008F7D80936400BD
:100720009FBF8091DC029091DD02892B09F481C08A
:100730002FB7F8948091DC029091DD022FBF8937AA
:10074000910508F483C08FE287BD8FB7F894A89A0B
:1007500016BC9DE095BD8FBF82E08093D902809149
:10076000DB02882309F484C030E020E033C08091AC
:10077000D7029091D802849708F43EC08091A902D4
:100780009091AA024FB7F8946091A6027091A702C7
:100790007C836B834FBF4B815C81841B950B281737
:1007A000390750F58091D9028D7F09F455C08091A9
:1007B000D7029091D802280F391F4FB7F894809133
:1007C000D7029091D802969587959093D8028093FE
:1007D000D7024FBF8091D9028D7F49F68FB7F89429
:1007E0004091D7025091D8025E834D838FBF8D8197
:1007F0009E81849708F0C2CF8091D9028D7F09F441
:100800007CC08091D7029091D8022FB7F894909332
:10081000A7028093A6022FBF9093AA028093A902F9
:100820002C960FB6F894DEBF0FBECDBFDF91CF91EF
:1008300008952FB7F8948091DC029091DD022FBFCC
:100840008937910530F486E287BD7FCF83E387BD8A
:100850007CCF83E287BD79CF8FB7F8944091D702E0
:100860005091D80258874F838FBF8F819885A3CF2F
:100870008091D9028D7FA9F18091D7029091D80201
:100880002FB7F8949093A7028093A6022FBF90935E
:10089000AA028093A9028091D9028D7FB1F0809144
:1008A000D7029091D802803C984008F0B9CF2FB77A
:1008B000F8948091D7029091D802880F991F909355
:1008C000D8028093D7022FBFABCF8FB7F894209177
:1008D000D7023091D8023C872B878FBF8B859C85B0
:1008E000E2CF8FB7F8942091D7023091D8023A879F
:1008F00029878FBF89859A85C3CF8FB7F8942091B8
:10090000D7023091D8023A8329838FBF89819A8197
:100910007CCFCF93DF93CDB7DEB72E970FB6F89489
:10092000DEBF0FBECDBF809100018111CDC080918F
:10093000E60221E0822790910001992309F4A6C0E4
:1009400081111EC0913009F0A3C088E190E0209190
:10095000A302213009F4A8C021E02093A3022FB7FD
:10096000F8949093A2028093A1022FBF81E02E966B
:100970000FB6F894DEBF0FBECDBFDF91CF910895C3
:100980002093DF028091E0028111DCCF88E0809328
:1009900037028091DE02813009F0E1C08FEF809351
:1009A000DE0283B7817F83BF9FB7F8948091640094
:1009B0008F7D809364009FBF8091DC029091DD0267
:1009C000892B09F410C12FB7F8948091DC02909123
:1009D000DD022FBF8937910508F423C18FE287BD5F
:1009E0008FB7F894A89A16BC9DE095BD8FBF82E0A2
:1009F0008093D9028091DB02882309F43AC130E068
:100A000020E034C08091D7029091D802849708F4F6
:100A100092C08091A9029091AA024FB7F894609178
:100A2000A6027091A7027E836D834FBF4D815E81C8
:100A3000841B950B2817390708F07DC08091D902D7
:100A40008D7F09F40AC18091D7029091D802280FB6
:100A5000391F4FB7F8948091D7029091D80296959C
:100A600087959093D8028093D7024FBF8091D90287
:100A70008D7F41F68FB7F8944091D7025091D802FC
:100A800058874F838FBF8F819885C0CF81117ECFCC
:100A9000809101012EE2829FC001112401962091D4
:100AA000A302213009F058CF3FB7F8944091A1023A
:100AB0005091A2025A8349833FBF49815A81452BF5
:100AC00009F44FC081E053CF8091E002882309F4FC
:100AD0002ECF80919B02882329F080919C0288234D
:100AE00009F4A5C080919A0290919C02911106C1CF
:100AF00090919B0291118AC090919E02282F292BE0
:100B000009F478C121E020939B02833008F00FCFD5
:100B1000992309F40CCF1092E00280916B0080FFC2
:100B200006CF9FB7F89480916B008E7F80936B0007
:100B30009FBFD89AFCCE8091D9028D7F09F419C14C
:100B40008091D7029091D8022FB7F8949093A70282
:100B50008093A6022FBF9093AA028093A90280E0FF
:100B600006CF3FB7F8949093A2028093A1023FBFB3
:100B700083E080933702209301018FEF8093DE02A0
:100B800083B7817F83BF9FB7F894809164008F7D86
:100B9000809364009FBF8091DC029091DD02892BDD
:100BA00069F02FB7F8948091DC029091DD022FBF9D
:100BB0008937910540F583E387BD0CC02FB7F894C2
:100BC0008091DC029091DD022FBF89379105C0F042
:100BD00083E287BD8FB7F894A89A16BC9DE095BDB7
:100BE0008FBF80E0C4CE2FB7F8948091DC02909143
:100BF000DD022FBF89379105B8F486E287BDF0CEBC
:100C000086E287BDE7CF8FE287BDE4CF90919C025B
:100C1000911172CF882309F4EDC081E080939B028B
:100C200086CE83E387BDDCCE83E287BDD9CE8091BB
:100C30009C0281117CCE80919B02882329F08091B7
:100C40009C02882309F40FC190919E02992309F414
:100C5000D1C081E080939B025BCF8FB7F894409125
:100C6000D7025091D8025A8749878FBF89859A85C4
:100C7000EECE9091D9029D7F2091D7023091D8027B
:100C800091110BC09FB7F8942091D7023091D802F0
:100C90003C872B879FBF2B853C859FB7F89430936B
:100CA000A7022093A6029FBF3093AA022093A90215
:100CB0009091D9029D7F2091D7023091D802911155
:100CC0000BC09FB7F8942091D7023091D8023E878D
:100CD0002D879FBF2D853E85203C384008F03FCFB3
:100CE0009FB7F8942091D7023091D802220F331F7A
:100CF0003093D8022093D7029FBF39CE893008F0B5
:100D000044C0853008F477C080919702823009F49E
:100D10000ECE9FB7F89480916500877F8093650021
:100D200024E33CE03093990020939800C09A1092FD
:100D30009500109294009FBF9FB7F8948091640033
:100D4000877F809364002CEE35E0309389002093F8
:100D5000880080E4809380009FBF9FB7F8948091C3
:100D600091008560809391009FBF82E080939702FD
:100D7000DECD8FB7F8942091D7023091D8023C8312
:100D80002B838FBF8B819C81DFCE80919702833034
:100D900009F4CDCD9FB7F89480916500877F80934B
:100DA000650024E33CE03093990020939800C09ABA
:100DB00010929500109294009FBF9FB7F894809175
:100DC0006400877F8093640026E436E030938900D6
:100DD0002093880080E4809380009FBF9FB7F894A1
:100DE000809191008560809391009FBF83E0809304
:100DF00097029DCD9CCD833008F499CD80919702C8
:100E0000813009F494CD9FB7F89480916500877F75
:100E10008093650024E33CE0309399002093980090
:100E2000C09A10929500109294009FBF9FB7F894BB
:100E300080916400877F8093640027E935E03093D8
:100E400089002093880080E4809380009FBF9FB733
:100E5000F894809191008560809391009FBF81E01C
:100E60008093970264CD63CD83E00895CF93DF93A1
:100E700000D0CDB7DEB780910001811132C08091E2
:100E8000E60291E0892720910001222389F088233E
:100E900089F09093DF028091E00281110BC088E01D
:100EA0008093370280E00F900F90DF91CF910895EB
:100EB0008111F5CF8091A302823009F448C082E00D
:100EC0008093A3028FB7F89426E030E03093A2021B
:100ED0002093A1028FBF81E00F900F90DF91CF91FF
:100EE00008958091E002882351F280919B0288232B
:100EF00029F080919C02882309F45AC080919A02BB
:100F000090919C0291116AC090919B02911145C0F1
:100F100090919E02282F292B09F4CFC021E0209325
:100F20009B02833008F0ABCF992309F4A8CF10922D
:100F3000E00280916B0080FFA2CF9FB7F894809170
:100F40006B008E7F80936B009FBFD89A98CF8FB72E
:100F5000F8942091A1023091A2023A8329838FBF95
:100F600089819A81892B31F081E00F900F90DF9178
:100F7000CF9108958FB7F89426E030E03093A20225
:100F80002093A1028FBF80910001882309F487CFAD
:100F900084E08093370280E09FCF90919C02911172
:100FA000B7CF882309F489C081E080939B0267CF83
:100FB00080919C02811163CF80919B02882329F04C
:100FC00080919C02882309F4B1C090919E029923DC
:100FD00009F473C081E080939B02A6CF8930C0F5ED
:100FE000853008F46BC080919702823009F447CFB6
:100FF0009FB7F89480916500877F8093650024E314
:101000003CE03093990020939800C09A109295008C
:10101000109294009FBF9FB7F89480916400877FDF
:10102000809364002CEE35E0309389002093880093
:1010300080E4809380009FBF9FB7F89480919100D7
:101040008560809391009FBF82E08093970217CFC5
:1010500080919702833009F412CF9FB7F894809162
:101060006500877F8093650024E33CE0309399001E
:1010700020939800C09A10929500109294009FBF00
:101080009FB7F89480916400877F8093640026E482
:1010900036E0309389002093880080E480938000BC
:1010A0009FBF9FB7F89480919100856080939100D5
:1010B0009FBF83E080939702E2CEE1CE833008F4B5
:1010C000DECE80919702813009F4D9CE9FB7F89493
:1010D00080916500877F8093650024E33CE0309336
:1010E000990020939800C09A109295001092940055
:1010F0009FBF9FB7F89480916400877F80936400BE
:1011000027E935E0309389002093880080E48093BC
:1011100080009FBF9FB7F894809191008560809375
:1011200091009FBF81E080939702A9CEA8CE84E072
:101130000895CF93DF9300D0CDB7DEB78091E00262
:1011400081114EC08091E60281110FC081E0809331
:10115000DF028091E002811108C098E0909337028D
:101160000F900F90DF91CF9108958091A30283306B
:1011700091F083E08093A3028FB7F89426E030E0EB
:101180003093A2022093A1028FBF81E00F900F90B5
:10119000DF91CF9108958FB7F8942091A1023091FB
:1011A000A2023A8329838FBF89819A81892B31F0EA
:1011B00081E00F900F90DF91CF9108958FB7F89451
:1011C00026E030E03093A2022093A1028FBF85E099
:1011D0008093370280E00F900F90DF91CF910895B8
:1011E00080919B02882361F180919C02811128C02B
:1011F00080919C028111A6CF80919B02882329F0C7
:1012000080919C02882309F4E5C090919E02992365
:1012100009F4A1C081E080939B02992309F492CF45
:101220001092E00280916B0080FF8CCF9FB7F89402
:1012300080916B008E7F80936B009FBFD89A82CF86
:1012400080919A0290919C02911116C090919B02FC
:10125000992329F090919C02992309F47DC09091E3
:101260009E02282F292B09F476C021E020939B02AF
:10127000833008F067CFD1CF8930C0F5853008F4CE
:1012800071C080919702823009F45CCF9FB7F894C7
:1012900080916500877F8093650024E33CE0309374
:1012A000990020939800C09A109295001092940093
:1012B0009FBF9FB7F89480916400877F80936400FC
:1012C0002CEE35E0309389002093880080E48093F1
:1012D00080009FBF9FB7F8948091910085608093B4
:1012E00091009FBF82E0809397022CCF809197025C
:1012F000833009F427CF9FB7F89480916500877FEA
:101300008093650024E33CE030939900209398009B
:10131000C09A10929500109294009FBF9FB7F894C6
:1013200080916400877F8093640026E436E03093E8
:1013300089002093880080E4809380009FBF9FB73E
:10134000F894809191008560809391009FBF83E025
:1013500080939702F7CEF6CE8823E9F381E080935D
:101360009B02F0CE833008F4EDCE8091970281305D
:1013700009F4E8CE9FB7F89480916500877F809349
:10138000650024E33CE03093990020939800C09AD4
:1013900010929500109294009FBF9FB7F89480918F
:1013A0006400877F8093640027E935E030938900EB
:1013B0002093880080E4809380009FBF9FB7F894BB
:1013C000809191008560809391009FBF81E0809320
:1013D0009702B8CEB7CE85E0089588E00895CF9300
:1013E000DF9300D0CDB7DEB78091A302853091F0B6
:1013F00085E08093A3028FB7F89426E030E0309325
:10140000A2022093A1028FBF81E00F900F90DF9185
:10141000CF9108958FB7F8942091A1023091A20244
:101420003A8329838FBF89819A81892B31F081E0AA
:101430000F900F90DF91CF9108958FB7F89426E029
:1014400030E03093A2022093A1028FBF80E00F9082
:101450000F90DF91CF910895611102C083E008954C
:1014600086E00895662311F080E0089583E00895F2
:10147000DC0112968C911297882321F081501296EC
:101480008C930895ED91FC9111970280F381E02DEA
:1014900081E0E730F80731F413968C911397149696
:1014A0008C930895CD010994611103C086E090E00A
:1014B000089583E090E00895FC0184818583089578
:1014C000FC018381882319F08481882311F08281B3
:1014D000089580E00895FC0181E082AF83B7817FA9
:1014E00083BF9FB7F894809164008F7D80936400E0
:1014F0009FBF80AD91AD892B59F02FB7F89480AD87
:1015000091AD2FBF89379105C0F483E387BD0AC031
:101510002FB7F89480AD91AD2FBF8937910550F06A
:1015200083E287BD8FB7F894A89A16BC9DE095BD5D
:101530008FBF089586E287BDF5CF8FE287BDF2CFDA
:10154000FC018FEF82AF83B7817F83BF9FB7F89491
:10155000809164008F7D809364009FBF80AD91ADCA
:10156000892B59F02FB7F89480AD91AD2FBF8937F3
:101570009105C0F483E387BD0AC02FB7F89480AD0E
:1015800091AD2FBF8937910550F083E287BD8FB7AA
:10159000F894A89A16BC9DE095BD8FBF089586E289
:1015A00087BDF5CF8FE287BDF2CF9FB7F894E4E611
:1015B000F0E08081806280839FBF1092C1002E98EE
:1015C0009FB7F894E5E6F0E080818061808389B57B
:1015D0008D7F89BD9FBF0895EF92FF920F931F9358
:1015E000CF938C01C9B1C095C170DC0113968C9169
:1015F00013978C17A1F0ED91FC91E480F5800484A1
:10160000F585E02D6C2FC8010995B1EFEB16B0E020
:10161000FB0659F4F8018283D8011396CC93CF913D
:101620001F910F91FF90EF900895682FC801F70167
:101630000995F2CFEF92FF920F931F93CF938C01F6
:10164000C9B1C695C17081E0C827D80114968C91A4
:1016500014978C17A9F0ED91FC91E480F580048437
:10166000F585E02D6C2FC8010995BBE9EB16B1E0BB
:10167000FB0661F4F80182839383D8011496CC931E
:10168000CF911F910F91FF90EF900895BC01C80179
:10169000F7010995F2CFEF92FF920F931F93CF932B
:1016A0008C01C9B1C2FBCC27C0F981E0C827D801A1
:1016B00013968C9113978C17A1F0ED91FC91E48017
:1016C000F5800484F585E02D6C2FC8010995B1EFF4
:1016D000EB16B0E0FB0659F4F8018283D8011396AB
:1016E000CC93CF911F910F91FF90EF900895682FA9
:1016F000C801F7010995F2CFEF92FF920F931F9364
:10170000CF938C01C9B1C3FBCC27C0F981E0C827B6
:10171000D80113968C9113978C17A1F0ED91FC9141
:10172000E480F5800484F585E02D6C2FC8010995CF
:10173000B1EFEB16B0E0FB0659F4F8018283D80153
:101740001396CC93CF911F910F91FF90EF90089536
:10175000682FC801F7010995F2CF83B186FB88276E
:1017600080F908952E9808951F93CF93DF9300D0AA
:10177000CDB7DEB7DC011FB7F894ED91FC9111975E
:101780000680F781E02D81E0EF39F80771F41296B9
:101790002D913C913A8329831FBF89819A810F90B3
:1017A0000F90DF91CF911F910895CD0109959C0174
:1017B000F1CF2E9A0895FC0180916B0080FF0AC042
:1017C000848181110FC08381882359F0128216828F
:1017D000138208958381882319F084818823B1F3CB
:1017E0001282089582818F3FE1F38F5F8283089593
:1017F000DC0112968D919C911397009731F001971F
:1018000013969C938E9312970895ED91FC911197E6
:101810000280F381E02DCD010994DC01D5968C91F5
:10182000D597823029F0833029F1882321F008955B
:10183000D5961C92D597D3966D917C91D4976432AE
:101840007105A8F3D7968C91D797811117C081E0C5
:10185000D7968C93D797ED91FC9111970480F581E1
:10186000E02D81E0EB39F80781F413967C936E93B9
:101870001297089581E0D5968C9308957695679593
:10188000D4967C936E93D397E6CFCD010994BF9203
:10189000CF92DF92EF92FF920F931F93CF93DF933C
:1018A000CDB7DEB72C970FB6F894DEBF0FBECDBF15
:1018B0008C01DC01ED91FC910484F585E02D099506
:1018C000882309F492C0D801ED91FC910088F18938
:1018D000E02DC801099582E0F80185ABD80187A900
:1018E000882309F492C0D12CC12C39C0D3968D9194
:1018F0009C91849708F447C0F801E580F680BFB654
:10190000F8940190F081E02D0680F781E02DB1E0A0
:10191000EF39FB0709F0CEC0F801228133813C8307
:101920002B83BFBE8B819C81E81AF90ACE14DF0499
:1019300050F5D801D5968C918D7F09F4B0C0D801AF
:10194000D3968D919C91C80ED91E2FB7F894F801AB
:1019500083A994A99695879594AB83AB2FBFD801A3
:10196000D5968C91D5978D7F09F0C0CF8FB7F8941D
:10197000F80123A934A93E832D838FBF8D819E81D9
:10198000849708F0B9CFD801ED91FC9111970084AC
:10199000F185E02DD5968C91D5978D7F09F092C079
:1019A0008FB7F894D3962D913C913A8329838FBFBA
:1019B000E980FA80B3E0ED34FB0709F091C0DFB6AF
:1019C000F894D801ED91FC910480F581E02DB1E00F
:1019D000EB39FB0709F09AC0F801F382E282DFBE1F
:1019E000D8011696FC92EE9215972C960FB6F894A5
:1019F000DEBF0FBECDBFDF91CF911F910F91FF9042
:101A0000EF90DF90CF90BF9008950190F081E02D8E
:101A10000084F185E02DD5968C91D5978D7F09F0C6
:101A20004DC08FB7F894D3962D913C913A87298772
:101A30008FBFE984FA84B3E0ED34FB0709F062C09C
:101A4000DFB6F894D801ED91FC910480F581E02D8A
:101A5000B1E0EB39FB0709F05DC0F801F382E282E7
:101A6000DFBED8011696FC92EE921597F80185A973
:101A70008D7F61F183A994A9803C984008F0B5CF8F
:101A80002FB7F894D801D3968D919C91D497880F55
:101A9000991FD4969C938E93D3972FBFA6CF8FB7C1
:101AA000F894F80123A934A938872F838FBF8F8139
:101AB000988549CFC80109959C0131CFD396ED9007
:101AC000FC90B9CFD396ED90FC9074CF8FB7F8947B
:101AD00023A934A93C872B878FBF8B859C85CCCFCE
:101AE000B701C8012C960FB6F894DEBF0FBECDBF6C
:101AF000DF91CF911F910F91FF90EF90DF90CF90EA
:101B0000BF900994B701C8010995B0CFB701C801CA
:101B1000099565CFB701C8010995A2CF0895CF9364
:101B2000DF9300D000D0CDB7DEB7FC0190919602D4
:101B300080919102990F982B913009F4A4C09111D2
:101B40002DC090938C023091E60280919B028823F5
:101B500029F080919C02882309F4D1C080919A02D7
:101B600020919C02211193C020919B02211120C041
:101B700020919E02882309F4D1C041E040939B024A
:101B80008930F8F4853008F01EC1833008F44BC169
:101B90008381882309F485C163E064C180913C029C
:101BA000882379F2933009F444C190918C02CBCF11
:101BB00020919C022111DCCF20E08111DECF60E07A
:101BC00022C02FB7F89468E072E07093EB02609344
:101BD000EA0280916500877F809365006EE070E087
:101BE0007093990060939800C09A1092950010929B
:101BF0009400809191008560809391002FBF838134
:101C00008427838365E021E080910101823008F41C
:101C100020E08FB7F8944091A1025091A2025C831A
:101C20004B838FBF4B815C81452B41F48281863091
:101C300008F4EAC0232F332309F47CC08381811187
:101C400011C0613071F0933031F09923B1F090916F
:101C5000DF02992391F031110CC09091E0029111B3
:101C600008C081E00F900F900F900F90DF91CF91FF
:101C700008959091D9029923A9F3222391F3311168
:101C80001AC1822FEFCF10928C0290E05CCF893086
:101C900008F464C080919702833079F12FB7F894EB
:101CA00080916500877F8093650044E35CE05093FA
:101CB000990040939800C09A109295001092940059
:101CC0002FBF2FB7F89480916400877F80936400C2
:101CD00046E456E0509389004093880080E4809366
:101CE00080002FBF2FB7F89480919100856080937A
:101CF00091002FBF83E08093970261E084CF8091B1
:101D00009C028111FACF80919B02882329F0809157
:101D10009C02882309F4CDC020919E02222309F45D
:101D20004ECF81E080939B028381882309F4BDC05C
:101D300062E098C080910101853008F078C08F5F23
:101D40008093010112828FB7F89443E150E15093E0
:101D5000A2024093A1028FBF21E070CF853008F42A
:101D6000ADC080919702823041F22FB7F8948091F4
:101D70006500877F8093650044E35CE050939900A1
:101D800040939800C09A10929500109294002FBF33
:101D90002FB7F89480916400877F809364004CEEA5
:101DA00055E0509389004093880080E48093800040
:101DB0002FBF2FB7F8948091910085608093910098
:101DC0002FBF82E098CF838181114BC064E09923BB
:101DD00009F419CF4093E00264E031110DC0209165
:101DE000E6028091E502281739F08FB7F894109237
:101DF000E4021092E3028FBF933019F081E08093E8
:101E0000DF021092D902FFCE42E0409300018F5FC3
:101E100082838FB7F89443E150E15093A20240933C
:101E2000A1028FBF0BCF21117FCF60E0ECCE85E008
:101E300087CF20918802309189022115310509F45C
:101E4000B4CE8FB7F89440918A0250918B025A8396
:101E500049838FBF49815A814217530708F071CED9
:101E6000A4CE64E02FB7F89448E052E05093EB0220
:101E70004093EA0280916500877F809365004EE081
:101E800050E05093990040939800C09A10929500AA
:101E900010929400809191008560809391002FBFF3
:101EA000B2CE63E0911199CFAECE62E09111A4CF92
:101EB000AACE60E0A8CE10920001D4CE833008F400
:101EC0001CCF80919702813009F417CF2FB7F89477
:101ED00080916500877F8093650044E35CE05093C8
:101EE000990040939800C09A109295001092940027
:101EF0002FBF2FB7F89480916400877F8093640090
:101F000047E955E0509389004093880080E480932E
:101F100080002FBF2FB7F894809191008560809347
:101F200091002FBF81E0E7CECF93DF93CDB7DEB72F
:101F300028970FB6F894DEBF0FBECDBF8091E002A8
:101F400081118BC080913702863009F469C080917D
:101F5000960290919102880F892B8130C9F08823D5
:101F600021F090913C029111C4C080938C0288238F
:101F700089F08091E60281111CC081E08093DF022C
:101F80004091E002411115C088E08093370207C0FC
:101F900010928C022C9A86E08093370241E0842FC5
:101FA00028960FB6F894DEBF0FBECDBFDF91CF915C
:101FB00008958091D902813009F4DCC040913C023F
:101FC000442361F31092DA02E091D502F091D60237
:101FD000309709F408C19F01ABEABAEA0E940823CE
:101FE0006D837E838F839887DC01CB0121E1B695D9
:101FF000A795979587952A95D1F7E80FF91FE933AB
:1020000080E3F80708F0EFC08FB7F894F093A702C9
:10201000E093A6028FBFF093AA02E093A902BFCF7C
:102020008091A302843009F4E1C084E08093A3028C
:102030008FB7F8942AE030E03093A2022093A102F7
:102040008FBF8091E6028111A9CF81E08093DF02EA
:102050004091E0024111A3CF97CF80919B0288234A
:1020600061F180919C02811128C080919C028111B4
:1020700069CF80919B02882329F080919C0288235C
:1020800009F427C190919E02992309F4CBC081E005
:1020900080939B02992309F455CF1092E00280911E
:1020A0006B0080FF4FCF9FB7F89480916B008E7FBD
:1020B00080936B009FBFD89A45CF80919A029091F0
:1020C0009C0291111CC090919B02992329F0909140
:1020D0009C02992309F4BFC090919E02282F292BBE
:1020E00009F4A0C021E020939B02833008F02ACF9E
:1020F000D1CF833009F497C080918C0238CF8930DA
:1021000008F03CC0853008F4ACC080919702823062
:1021100009F418CF9FB7F89480916500877F80936A
:10212000650024E33CE03093990020939800C09A26
:1021300010929500109294009FBF9FB7F8948091E1
:102140006400877F809364002CEE35E03093890033
:102150002093880080E4809380009FBF9FB7F8940D
:10216000809191008560809391009FBF82E0809371
:102170009702E8CE90E080E00E94172380919702BA
:10218000833009F4DFCE9FB7F89480916500877F94
:102190008093650024E33CE03093990020939800FD
:1021A000C09A10929500109294009FBF9FB7F89428
:1021B00080916400877F8093640026E436E030934A
:1021C00089002093880080E4809380009FBF9FB7A0
:1021D000F894809191008560809391009FBF83E087
:1021E00080939702AFCEE8E3F0E30ECF8FB7F89479
:1021F0002091A1023091A2023C832B838FBF8B815F
:102200009C81892B09F01DCF8FB7F8942AE030E02C
:102210003093A2022093A1028FBF87E08093370200
:1022200040E0BDCE8FCE20918802309189022115E9
:10223000310509F461CF9FB7F89440918A0250911B
:102240008B025A8349839FBF49815A8142175307A2
:1022500008F08BCE51CF882329F381E080939B0235
:1022600071CE833008F46ECE80919702813009F4EC
:1022700069CE9FB7F89480916500877F8093650051
:1022800024E33CE03093990020939800C09A109288
:102290009500109294009FBF9FB7F89480916400BE
:1022A000877F8093640027E935E03093890020938D
:1022B000880080E4809380009FBF9FB7F89480914E
:1022C00091008560809391009FBF81E08093970289
:1022D00039CE38CE1F920F920FB60F9211242F9342
:1022E0003F934F935F936F937F938F939F93AF939E
:1022F000BF93CF93EF93FF938BE480936000C9B1BA
:10230000C095C170809195028C1749F063E0C111AE
:102310001BC082E992E00E94F100C09395028BE419
:1023200080936000FF91EF91CF91BF91AF919F910A
:102330008F917F916F915F914F913F912F910F906E
:102340000FBE0F901F90189566E0E3CF1F920F927B
:102350000FB60F9211242F933F934F935F936F9378
:102360007F938F939F93AF93BF93CF93EF93FF93FD
:102370008BE48093600089B1C1E0982F927081FD59
:10238000C0E08091E5028C1781F08091E90263E161
:1023900070E1823021F063E070E091111BC081EEAA
:1023A00092E00E949B01C093E5028BE48093600061
:1023B000FF91EF91CF91BF91AF919F918F917F91BD
:1023C0006F915F914F913F912F910F900FBE0F90A2
:1023D0001F90189566E070E0E2CF1F920F920FB643
:1023E0000F9211242F933F934F935F936F937F939B
:1023F0008F939F93AF93BF93CF93EF93FF938BE410
:102400008093600089B1C1E0682F647082FDC0E0F4
:1024100080913B028C1741F061111DC088E392E06E
:102420000E94F100C0933B021092DA028BE4809389
:102430006000FF91EF91CF91BF91AF919F918F91EC
:102440007F916F915F914F913F912F910F900FBEB0
:102450000F901F90189563E0E1CF1F920F920FB677
:102460000F9211242F933F934F935F936F937F931A
:102470008F939F93AF93BF93CF93EF93FF938BE48F
:102480008093600089B1C1E0982F987083FDC0E00F
:10249000809190028C1749F066E091111BC08DE885
:1024A00092E00E94F100C09390028BE48093600060
:1024B000FF91EF91CF91BF91AF919F918F917F91BC
:1024C0006F915F914F913F912F910F900FBE0F90A1
:1024D0001F90189563E0E3CF1F921FB61F9211243F
:1024E0008F939F938BE48093600083B1809581707C
:1024F00080939C0280919B02882321F080919C0212
:102500008823F1F080919C0290919D02981741F0F0
:102510008823E9F010929A0280919C0280939D0298
:102520008BE48093600080919C02811118C08BE441
:10253000809360009F918F911F901FBE1F901895F0
:1025400010929A0210929E0210929B02DBCF809111
:102550009E028F3F09F38F5F80939E02DDCF8091B3
:102560006500877F809365008CE093E090939900ED
:1025700080939800C09A10929500109294008091D8
:102580006400877F809364008BEF94E090938900D0
:102590008093880080E48093800080919100856022
:1025A00080939100C4CF1F920F920FB60F92112407
:1025B0002F933F934F935F936F937F938F939F934B
:1025C000AF93BF93EF93FF938BE480936000E09110
:1025D0003602F0E0EE0FFF1FEE53FE4F8081918137
:1025E000DC01ED91FC910190F081E02D0995809145
:1025F00036028630B8F48F5F809336028BE4809386
:102600006000FF91EF91BF91AF919F918F917F916A
:102610006F915F914F913F912F910F900FBE0F904F
:102620001F90189580E0E8CF0F920FB60F921F927F
:1026300011242F933F934F935F936F937F938F93C7
:102640009F938BE4809360002091DE028091DC02F6
:102650009091DD0212160CF05BC0022E000C330BC1
:102660004FE752E0BA01621B730B8617970798F584
:1026700049B5426049BD09B400FEFDCF40916500F7
:102680004F7E40936500820F931F9093BF0080930D
:10269000D0009093DD028093DC0221E02093C10002
:1026A0002091DE02213009F058C08937910508F0E9
:1026B0006CC083E387BD8BE4809360009F918F9112
:1026C0007F916F915F914F913F912F911F900F904C
:1026D0000FBE0F90189582E08093BF008FE7809324
:1026E000D0005093DD024093DC021092C1002E9A7C
:1026F0008091650080618093650089B58D7F89BD7B
:102700008091DE02813009F049C08FE287BD2DC083
:10271000022E000C330B44275527421B530B48173E
:10272000590760F11092BF001092D0001092DD02A4
:102730001092DC021092C1002E9880916500806199
:102740008093650089B58D7F89BD8091DE028130DF
:1027500009F4AFCF86E287BD08C089379105D8F468
:1027600026E227BD892B09F0A6CF85B5887F85BDD8
:10277000809164008062809364009DCF49B542607F
:1027800049BD09B400FEFDCF79CF2FE227BD8F37B9
:10279000924059F390CF23E227BDE4CF83E287BD77
:1027A0008ACF0F920FB60F921F9211242F933F934F
:1027B0004F935F936F937F938F939F93AF93BF9349
:1027C000EF93FF93CF93DF9300D000D0CDB7DEB768
:1027D0008BE480936000E091EA02F091EB0240818B
:1027E00051812281222309F45DC08091EA029091F7
:1027F000EB0203969093EB028093EA0230E0A0E8AC
:10280000BEE30E94082369837A838B839C83DC0167
:10281000CB012AE0B695A795979587952A95D1F78C
:10282000019720916500277F209365009093990080
:1028300080939800C09A10929500109294004F3F98
:10284000540709F442C04115510509F443C0809171
:102850006400877F809364005093890040938800D0
:1028600080E4809380008091910085608093910046
:102870008BE4809360000F900F900F900F90DF918A
:10288000CF91FF91EF91BF91AF919F918F917F91E8
:102890006F915F914F913F912F911F900F900FBEBD
:1028A0000F901895809191008B7F80939100C09A32
:1028B000109295001092940080916500886080933A
:1028C00065004F3F540709F0BECF509389004093F5
:1028D0008800C9CF10928000809164008860809346
:1028E00064002D98C0CFCF93DF9300D000D0CDB738
:1028F000DEB7FC01A081B1814D915C9111971296D8
:102900002C91222309F444C0808191810396918304
:10291000808330E0A0E8BEE30E94082369837A83C5
:102920008B839C83DC01CB012AE0B695A795979514
:1029300087952A95D1F7019720916500277F2093ED
:1029400065009093990080939800C09A109295002A
:10295000109294004F3F540769F14115510579F1E8
:1029600080916400877F8093640050938900409336
:10297000880080E48093800080919100856080933E
:1029800091000F900F900F900F90DF91CF910895CD
:10299000809191008B7F80939100C09A1092950056
:1029A00010929400809165008860809365004F3F8D
:1029B000540799F65093890040938800DDCF109218
:1029C0008000809164008860809364002D98D4CF4B
:1029D000EF92FF921F93CF93DF93EC01162F8B8121
:1029E000861771F0E881F981E084F1840484F5852B
:1029F000E02DCE010995682FCE01F70109951B83C3
:102A0000DF91CF911F91FF90EF900895CDB7DEB782
:102A1000A097DEBFCDBF7894109137028CED882E41
:102A200081E0982E96E0692E24E3422E2CE0522E6F
:102A30003AE0232E812F90E01930F0F7FC01EF5996
:102A4000FC4D0C940223E4EEF1E0FA83E9830E944A
:102A5000740325E09BE418C02093A3028FB7F89479
:102A60006092A1021092A2028FBF83B7817F83BFC1
:102A700083B7816083BF889583B78E7F83BF8FB70D
:102A8000F894909360008FBF8091A302853021F766
:102A90008FB7F8944091A1025091A20258874F83BA
:102AA0008FBF4F815885452B01F78FB7F8946092FF
:102AB000A1021092A2028FBF04EE11E01A830983D3
:102AC0008091DF02882311F40C94E41D10923702E8
:102AD0008091A302863011F40C94B71D86E0809398
:102AE000A3021FB7F894E0919F02F091A0028481A5
:102AF00095818B59914011F00C94D31D83E190E1A5
:102B00009093A2028093A1021FBF1091370292CF2F
:102B10009A8289828091DF0291E089278093DA028C
:102B20008091DE02813009F426C59093DE0283B7DE
:102B3000817F83BF9FB7F894809164008F7D8093DD
:102B400064009FBF8091DC029091DD02892B09F423
:102B5000D5C42FB7F8948091DC029091DD022FBF8D
:102B60008937910510F00C94522083E387BDD3C4BC
:102B70008CEE91E09A8389835C9AE0E441E0F2E094
:102B800026E436E053E09BE48091E00281112CC002
:102B90008091E602811107C04093DF028091E0023C
:102BA000882309F498C08091A302833009F4CEC32E
:102BB0005093A3028FB7F8946092A1021092A202E0
:102BC0008FBF83B7817F83BF83B7816083BF8895C1
:102BD00083B78E7F83BF8FB7F894909360008FBFC9
:102BE0008091E0028823A1F280919B02882329F042
:102BF00080919C02882309F435C780919A026091E4
:102C00009C026111C4C560919B02662331F0609102
:102C10009C02662311F40C94581E60919E02782F3A
:102C2000762B09F454C740939B02833008F0B0CF51
:102C3000662309F4ADCF1092E00280916B0080FF13
:102C4000A7CF6FB7F89480916B008E7F80936B0055
:102C50006FBFD89A9DCF84E092E09A8389832C9AA3
:102C60005C9A60E441E0E2E026E436E073E05BE495
:102C700025C0882331F04093DF028091E002882351
:102C800051F18091A302882309F4B3C31092A302E7
:102C90008FB7F8946092A1021092A2028FBF83B7FF
:102CA000817F83BF83B7816083BF889583B78E7F21
:102CB00083BF8FB7F894509360008FBF809100015D
:102CC0008111B7C28091E602842790910001911191
:102CD000D0CF8823B1F218E010933702ABCE24EFA7
:102CE00031E03A832983F0E461E0E2E046E456E033
:102CF000A3E07BE480910001811132C08091E60263
:102D0000862790910001992309F468C0882339F03F
:102D10006093DF028091E002882309F462C0809111
:102D2000A302823009F449C3E093A3028FB7F89459
:102D30006092A1021092A2028FBF83B7817F83BFEE
:102D400083B7816083BF889583B78E7F83BF8FB73A
:102D5000F894709360008FBF80910001882371F216
:102D60008091E002882351F280919B02882331F008
:102D700080919C02882311F40C94F41F80919A0294
:102D800090919C0291110C942D1F90919B0299237C
:102D900031F090919C02992311F40C94CE209091E3
:102DA0009E02B82FB92B11F40C94022060939B0261
:102DB000833008F0A3CF992309F4A0CF1092E0024A
:102DC00080916B0080FF9ACF9FB7F89480916B0041
:102DD0008E7F80936B009FBFD89A90CF882309F491
:102DE0009ECF88E0809337023A8329832C981091F4
:102DF000370220CE8CEF91E09A83898381E0809323
:102E0000DE0283B7817F83BF9FB7F894809164000F
:102E10008F7D809364009FBF8091DC029091DD02E2
:102E2000892B09F432C62FB7F8948091DC02909177
:102E3000DD022FBF8937910510F00C949A1F83E3B0
:102E400087BD8FB7F894A89A16BC9DE095BD8FBF3B
:102E5000FF24F39400E4C02E82E0A82E06E416E0DE
:102E600093E0B92E2EE2D22E3BE4E32E80910001B6
:102E700081114EC18091E6028F2590910001992326
:102E800009F484C1882309F41CC1F092DF02809107
:102E9000E002811116C188E0809337020E9474031A
:102EA00018E0C8CD04EDE02E01E0F02EFA82E982B0
:102EB0000E9474035C982C981092E00281E0809349
:102EC0009B0280916B0080FF76C681E080930001B9
:102ED000912F012FCC24C39468E072E04EE050E0C3
:102EE000E2E07E2EF0E43F2EA6E4AA2EA6E0BA2E63
:102EF000BBE4DB2E5E8F4D8F809196022091910274
:102F0000880F822B813009F4BEC0882309F4D6C013
:102F100020913C02222309F4D1C0833009F4B7C0C8
:102F200080918C02B091E60220919B02222329F02D
:102F300020919C02222309F4EEC130919A02209143
:102F40009C022111B1C120919B02222329F02091E2
:102F50009C02222309F478C2E0919E02332309F4F3
:102F6000E9C1C0929B02292F393008F006C23530E2
:102F700008F0A8C2333008F460C29111AAC553E02A
:102F80008823B1F0B1110DC03091E6022091E50225
:102F9000321739F02FB7F8941092E4021092E3023E
:102FA0002FBF833011F0C092DF021092D90220E0CF
:102FB00031E0E0910101E23008F430E0AFB7F8947D
:102FC000E091A102F091A202FC8FEB8FAFBFEB8DDD
:102FD000FC8DEF2BC9F4063008F422C23B2FB1114F
:102FE00013C030910101353008F008C43F5F3093C1
:102FF00001013FB7F894E3E1F0E1F093A202E0931E
:10300000A1023FBF012F31E0211119C05130B9F0A9
:10301000833031F0882379F08091DF02882359F0E2
:10302000B11104C08091E002882349F08091D90257
:10303000882309F453C2332311F0B1114DC28FB765
:10304000F89409B400FC06C020916400287228326C
:1030500009F475C423B7217F23BF8FBF83B7816075
:1030600083BF889583B78E7F83BF8FB7F894D09244
:1030700060008FBF8091960220919102880F822B71
:10308000813009F042CF10928C02812F4BCF2091DA
:103090008802309189022115310509F441CFAFB77B
:1030A000F894E0918A02F0918B02FA8FE98FAFBF1A
:1030B000E98DFA8DE217F30708F432CF80938C0282
:1030C00031CF913009F064C088E190E02091A302F3
:1030D000213009F468C0F092A3022FB7F8949093BE
:1030E000A2028093A1022FBF83B7817F83BF83B7E2
:1030F000816083BF889583B78E7F83BF8FB7F89435
:10310000E09260008FBF80910001882309F4B2CE65
:103110008091E002882309F4ADCE80919B02882340
:1031200031F080919C02882311F40C943B20809113
:103130009A0290919C029111C2C590919B02992391
:1031400031F090919C02992311F40C94C02090913D
:103150009E02282F292B11F40C944820F0929B02F8
:10316000833008F087CE992309F484CE1092E002D0
:1031700080916B0080FF7ECE9FB7F89480916B00AA
:103180008E7F80936B009FBFD89A74CE811183CEBF
:10319000809101018D9DC001112401962091A3020F
:1031A000213009F098CF3FB7F8944091A102509197
:1031B000A2025E8B4D8B3FBF4D895E89452B09F086
:1031C00093CF3FB7F8949093A2028093A1023FBFA0
:1031D00083E080933702209301018FEF8093DE021A
:1031E00083B7817F83BF9FB7F894809164008F7D00
:1031F000809364009FBF8091DC029091DD02892B57
:1032000009F48FC32FB7F8948091DC029091DD020E
:103210002FBF8937910508F05EC483E387BD8FB760
:10322000F894A89A16BC9DE095BD8FBF1091370207
:1032300001CC8091E002882309F444CD80919B0267
:10324000882329F080919C02882309F4BDC68091CF
:103250009A0290919C02911197C590919B0299239B
:1032600029F090919C02992309F491C790919E02B4
:10327000F82FF92B09F4B6C640939B02833008F06F
:1032800021CD992309F41ECD1092E00280916B00AC
:1032900080FF18CD9FB7F89480916B008E7F80934C
:1032A0006B009FBFD89A0ECD292F393008F4D4C0B7
:1032B00030919702333009F4CBC0EFB7F8943091D6
:1032C0006500377F309365005092990040929800D6
:1032D000C09A1092950010929400EFBFEFB7F89447
:1032E00030916400377F30936400B0928900A092DF
:1032F000880030928000EFBFEFB7F89430919100D2
:10330000356030939100EFBF33E03093970251E086
:1033100091114ECE4CCE20919C02211150C3209190
:103320009B02222329F020919C02222309F44BC600
:10333000E0919E02EE2309F48AC0C0929B02292FDD
:103340009111B4C452E081112CCE32CE8FB7F894D3
:103350006091A1027091A2027A8B698B8FBF6989FB
:103360007A89672B09F02DCC8FB7F8946092A1026F
:103370001092A2028FBF15E0AFCC3FB7F8947093C4
:10338000EB026093EA0220916500277F209365009D
:10339000ED8DFE8DF0939900E0939800C09A109205
:1033A0009500109294002091910025602093910047
:1033B0003FBF9C25292F55E0FBCD8FB7F894009196
:1033C000A1021091A2021C8B0B8B8FBF8B899C8951
:1033D000892B09F0B2CC8FB7F8946092A1021092B9
:1033E000A2028FBF80910001882309F4FACC84E007
:1033F000F9CC8FB7F894A091A102B091A202B88F36
:10340000AF8B8FBF8F89988D892B09F048CC8FB7F0
:10341000F8946092A1021092A2028FBF12E05CCCDD
:10342000709200010F5F4FB7F894E3E1F0E1F09381
:10343000A202E093A1024FBFE7CDE11181CF292F76
:10344000512F9111B5CDB3CDE12F31118ACDF7CFE9
:1034500051E09111ADCDABCD353008F46FC5309151
:1034600097023230A9F3EFB7F89430916500377FB7
:10347000309365005092990040929800C09A109243
:10348000950010929400EFBFEFB7F894309164006C
:10349000377F309364004CEE55E0509389004093A1
:1034A000880030928000EFBFEFB7F8943091910020
:1034B000356030939100EFBF7092970251E0911107
:1034C00077CD75CD911180C254E0882309F470CD79
:1034D000C092E00254E056CD10920001FA82E982D7
:1034E00081E080933D02809337029091E00299231E
:1034F00009F4D9C280939B0211E09CCA2FB7F894BB
:103500008091DC029091DD022FBF8937910508F48C
:10351000CCC583E287BD8FB7F894A89A16BC9DE00E
:1035200095BD8FBF83E08093D9024091D502509121
:10353000D60241155105C9F09A01ABEABAEA0E94D8
:1035400008236D8F7E8F8F8F98A3DC01CB0111E153
:10355000B695A795979587951A95D1F7BA01680FF3
:10356000791F693310E3710710F068E370E384EAB0
:1035700092E00E944D035F9A30E4D32E51E042E086
:10358000B42EE6E4F6E063E0C62E76E0F72EA4E083
:10359000EA2E4BE48091E002811165C080913702F0
:1035A0008630A9F18091960290919102880F892B23
:1035B000813009F4E6C0882309F4A2C090913C024E
:1035C000992309F49DC0833009F483C080918C0253
:1035D000882309F499C08091E602811199C0509323
:1035E000DF028091E002811193C088E0809337026E
:1035F0009A82898280913702873009F4D7C4109269
:10360000DB020E9474035F981091370213CA809105
:10361000A302843009F4F4C0E092A3028FB7F894B7
:103620002092A1021092A2028FBF8091E602811126
:1036300006C05093DF028091E0028823B1F283B785
:10364000817F83BF83B7816083BF889583B78E7F77
:1036500083BF8FB7F894409360008FBF8091E002E2
:10366000882309F49BCF80919B02882329F08091C5
:103670009C02882309F435C280919A0290919C02A1
:10368000911166C190919B02992329F090919C021F
:10369000992309F43AC290919E02282F292B09F40C
:1036A00036C250939B02833008F078CF992309F4F7
:1036B00075CF1092E00280916B0080FF6FCF9FB7B3
:1036C000F89480916B008E7F80936B009FBFD89A97
:1036D00065CF20918802309189022115310509F4C6
:1036E00075CF9FB7F89460918A0270918B027E87A4
:1036F0006D879FBF6D857E856217730708F466CF5F
:1037000080938C02811167CF2C9AF092370297CF69
:103710008091D902813009F4C5C280913C0288238E
:1037200009F48DCF1092DA020091D5021091D602E1
:1037300001151105C1F09801ABEABAEA0E9408230D
:103740006D8F7E8F8F8F98A3DC01CB0121E1B69521
:10375000A795979587952A95D1F7080F191F0933D3
:10376000B0E31B0710F008E310E38FB7F894109351
:10377000A7020093A6028FBF1093AA020093A9028A
:103780005ECF10928C022C9AF092370258CF89307B
:1037900008F039C1853008F437C48091970282302F
:1037A00009F4F6C96FB7F89480916500877F80931C
:1037B00065005092990040929800C09A109295002E
:1037C000109294006FBF6FB7F89480916400877F68
:1037D00080936400ACEEB5E0B0938900A0938800BC
:1037E000E09380006FBF6FB7F8948091910085607F
:1037F000809391006FBFF0939702CAC935E0F7CB71
:103800008FB7F8942091A1023091A202388B2F87B4
:103810008FBF8F859889892B09F007CF8FB7F894D0
:103820002092A1021092A2028FBF87E080933702FC
:103830008091DF029A8289828111DCCEE090DA02E7
:10384000EE2009F4D7CE8091A9029091AA022FB759
:10385000F8944091A6025091A7025C874B872FBF36
:103860002B853C85821B930B2091CB023091CC029F
:10387000A9014C5F5F4F275A32402D3131050CF4BE
:103880001AC42BEA32E03093CC022093CB02A091F1
:10389000CB02B091CC0213969C938E9312970D910C
:1038A0001C9111972091D1023091D202A217B30737
:1038B00009F4FCC4E091D102F091D202FE2C41ED5A
:1038C00052E0BA016D010EC0DB016D917C91B2E056
:1038D000ED3CFB0709F410C4F12C30812181AF01CC
:1038E000E32FF22F20813181C216D30609F401C4DF
:1038F000228133812817390758F4DA018D919C9180
:10390000D6018D939C93DA01CD92DC9280E090E019
:10391000F110DACF22E0ED3CF20709F4EDC3FE2C02
:10392000DCCF2FB7F8948091DC029091DD022FBF9D
:103930008937910508F0D2C086E287BD70CC20910E
:10394000650023FF87CB23B7217F2C6023BF85CB66
:10395000893008F0DDC0853008F4D7C38091970224
:10396000823009F41BCE9FB7F89480916500877F61
:10397000809365005092990040929800C09A1092EE
:103980009500109294009FBF9FB7F89480916400B7
:10399000877F809364002CEE35E03093890020937C
:1039A0008800D09280009FBF9FB7F89480919100CB
:1039B0008560809391009FBFB0929702EFCD292F31
:1039C00051E09111F5CAF3CA54E03FB7F8947093EF
:1039D000EB026093EA0220916500277F2093650047
:1039E000ED8DFE8DF0939900E0939800C09A1092AF
:1039F00095001092940020919100256020939100F1
:103A00003FBF21E0D5CA80919702833009F4C0C836
:103A10006FB7F89480916500877F8093650050921E
:103A2000990040929800C09A1092950010929400CC
:103A30006FBF6FB7F89480916400877F80936400B4
:103A40003093890020938800E09380006FBF6FB7A8
:103A5000F894809191008560809391006FBF50939E
:103A6000970296C880919C02811192C880919B0216
:103A7000882321F080919C02882349F180919E0245
:103A8000882329F140939B02D6C82FB7F8948091E0
:103A9000DC029091DD022FBF8937910508F046C204
:103AA00086E287BDCEC980916B0011E080FD02C027
:103AB0000C941A159FB7F89480916B008E7F8093B9
:103AC0006B009FBFD89A109137020C941A150C9472
:103AD000C81553E07ACF8FE287BDA1CB83E287BDC3
:103AE0009ECB80919C02811159CD80919B028823AD
:103AF00029F080919C02882309F457C380919E028B
:103B0000882329F050939B02D4CD8111D1C246CD98
:103B100080919702833009F441CD9FB7F89480914A
:103B20006500877F809365005092990040929800CD
:103B3000C09A10929500109294009FBF9FB7F8947E
:103B400080916400877F80936400F0938900E09304
:103B50008800D09280009FBF9FB7F8948091910019
:103B60008560809391009FBFC092970217CD8FB759
:103B7000F8942091A1023091A2023E832D838FBF41
:103B80008D819E81892B11F00C9485151FB7F894B7
:103B9000E0919F02F091A002848195818B59914020
:103BA00011F40C947E1563E170E18FE992E00E94BC
:103BB0009B010C9484159FB7F89480916B008160F1
:103BC00080936B009FBF81C98FB7F89420918A02C0
:103BD00030918B023A87298710928B0210928A02C9
:103BE0008FBF89859A8520917E0230917F02A9013D
:103BF0004C5F5F4F2A5332402D3331050CF04AC2DF
:103C000050937F0240937E02DA0113969C938E9329
:103C100012977C911196FC901197E0918402F0919B
:103C20008502AE17BF0709F4A4C261E044E852E080
:103C30008A016D010DC0D8010D911C91B2E0E038F0
:103C4000FB0731F160E030812181AF01E32FF22FDA
:103C500020813181C216D306C1F022813381281719
:103C6000390758F4DA018D919C91D6018D939C937C
:103C7000DA01CD92DC9280E090E06111DCCF22E0AD
:103C8000E038F20729F061E0DECF7083F182E5CF02
:103C9000D80112968D919C9190938902809388020D
:103CA0000C94661590E080E00E94172352E08DCEC0
:103CB000882309F40CCF40939B020C94C8158930DB
:103CC000A0F5853008F472C280919702823009F421
:103CD000D1C89FB7F89480916500877F8093650075
:103CE0005092990040929800C09A109295001092BC
:103CF00094009FBF9FB7F89480916400877F809362
:103D00006400ECEEF5E0F0938900E0938800C09247
:103D100080009FBF9FB7F894809191008560809349
:103D200091009FBFA0929702A5C88091970283300F
:103D300009F4A0C89FB7F89480916500877F8093AD
:103D400065005092990040929800C09A1092950098
:103D5000109294009FBF9FB7F89480916400877F72
:103D6000809364001093890000938800C0928000C3
:103D70009FBF9FB7F89480919100856080939100D8
:103D80009FBFB092970276C88930B0F5853008F4AD
:103D90001FC280919702823011F40C9462169FB773
:103DA000F89480916500877F809365005092990018
:103DB00040929800C09A10929500109294009FBF74
:103DC0009FB7F89480916400877F809364000CEE25
:103DD00015E01093890000938800609380009FBFD6
:103DE0009FB7F894809191008560809391009FBF68
:103DF000E09397020C94621680919702833011F43D
:103E00000C9462169FB7F89480916500877F809329
:103E100065005092990040929800C09A10929500C7
:103E2000109294009FBF9FB7F89480916400877FA1
:103E30008093640030938900209388006093800011
:103E40009FBF9FB7F8948091910085608093910007
:103E50009FBF709397020C9462168930B0F585303D
:103E600008F4EDC180919702823011F40C947E1613
:103E70009FB7F89480916500877F8093650050928A
:103E8000990040929800C09A109295001092940068
:103E90009FBF9FB7F89480916400877F80936400F0
:103EA0000CEE15E01093890000938800F0938000D9
:103EB0009FBF9FB7F8948091910085608093910097
:103EC0009FBFE09397020C947E16809197028330F7
:103ED00011F40C947E169FB7F89480916500877F4B
:103EE000809365005092990040929800C09A109279
:103EF0009500109294009FBF9FB7F8948091640042
:103F0000877F809364005093890040938800F093EA
:103F100080009FBF9FB7F894809191008560809347
:103F200091009FBFA09397020C947E1683E287BDF9
:103F30000C9421178FE287BD0C942117333008F4BD
:103F40003ECD509197025130C9F1EFB7F8943091BE
:103F50006500377F30936500509299004092980039
:103F6000C09A1092950010929400EFBFEFB7F894AA
:103F700030916400377F3093640047E955E05093F7
:103F800089004093880030928000EFBFEFB7F8942B
:103F900030919100356030939100EFBFC09297024D
:103FA00051E091110C94D8170C94D7171092DF029E
:103FB00088E08093370210923D0223CB91110C943C
:103FC000D8170C94D7173BCA80919C0281110C948E
:103FD000621680919B02882309F472C080919C0232
:103FE00081116EC00C94621680919C0281110C9418
:103FF0007E1680919B02882309F472C080919C02F6
:1040000081116EC00C947E16833010F40C94C81588
:1040100080919702813011F40C94C8156FB7F89411
:1040200080916500877F809365005092990040924F
:104030009800C09A10929500109294006FBF6FB7CD
:10404000F89480916400877F8093640007E915E00D
:104050001093890000938800E09380006FBF6FB7D2
:10406000F894809191008560809391006FBF409398
:1040700097020C94C81580919C0281110C943A17F8
:1040800080919B02882321F180919C02811120C0A4
:104090000C943A172EE332E030937F0220937E0295
:1040A000D901B3CD8FE287BD36CA86E287BD33CA58
:1040B00050939B0273CA5093CC024093CB02E7CB40
:1040C00080919E02882309F48DCF40939B02DCC827
:1040D00080919E028823E1F2F0929B020C94B61824
:1040E00080919E02882309F48DCF60939B020C94EB
:1040F000DE1611830083FCCBDB0112968D919C911F
:104100009093D6028093D50275CA833008F446CACC
:1041100080919702813009F441CA9FB7F894809149
:104120006500877F809365005092990040929800C7
:10413000C09A10929500109294009FBF9FB7F89478
:1041400080916400877F80936400A7E9B5E0B09315
:104150008900A0938800D09280009FBF9FB7F894F9
:10416000809191008560809391009FBF509397024A
:1041700015CA70938402F0928502E72FFF2D55CD6A
:10418000882309F485CFF0929B020C943A17882378
:1041900009F428CF40939B020C946216882309F4FB
:1041A00031CF60939B020C947E16F8C9833010F4D3
:1041B0000C943A1780919702813011F40C943A17BD
:1041C00087E995E00E94A301F09297020C943A17B8
:1041D000833010F40C94621680919702813011F4B0
:1041E0000C9462169FB7F89480916500877F809346
:1041F00065005092990040929800C09A10929500E4
:10420000109294009FBF9FB7F89480916400877FBD
:1042100080936400A7E9B5E0B0938900A09388007B
:10422000609380009FBF9FB7F89480919100856054
:10423000809391009FBF409397020C946216833045
:1042400010F40C947E1680919702813011F40C9436
:104250007E169FB7F89480916500877F80936500F4
:104260005092990040929800C09A10929500109236
:1042700094009FBF9FB7F89480916400877F8093DC
:10428000640007E915E01093890000938800F0931B
:1042900080009FBF9FB7F8948091910085608093C4
:1042A00091009FBF609397020C947E161093D202E8
:1042B0000093D102FFCA0F931F93CF938CEE92E02D
:1042C0009093EB028093EA021092ED021092EC02BE
:1042D0001092EE029FB7F89480916400877F8093DC
:1042E00064001092800089E08093810080916400D6
:1042F000886080936400259A2D9880916500877F5F
:10430000809365001092900082E0809371002FEFFF
:104310003FEF30939900209398008DE080939100B7
:1043200080916500886080936500C09A9FBF89B1C5
:104330008170C1E08C271092940280939502809343
:1043400096028EE591E090939302809392025098AA
:1043500069B161706C2782E992E00E94E81489B12A
:1043600083FB882780F98C2710928F02809390021C
:10437000809391028AE491E090938E0280938D0263
:10438000539869B163FB662760F96C278DE892E06A
:104390000E94E81489B182FB882780F98C2710924B
:1043A0003A0280933B0280933C0282E291E0909338
:1043B000390280933802529869B162FB662760F92E
:1043C0006C2788E392E00E94E81486E391E09093E2
:1043D000390280933802C0933D02EEE3F2E080E4BC
:1043E000DF011D928A95E9F7F0937F02E0937E0248
:1043F0001092810210928002109283021092820227
:1044000080E892E090938502809384021092870264
:1044100010928602109289021092880210928B02EA
:1044200010928A0289B1869581708C271092E402DD
:104430001092E30202EA11E01093E2020093E1021B
:104440009FB7F8949FBF8093E5028093E6028EE0C9
:1044500091E09093E2028093E102519889B18695B0
:104460008170C8278091E5028C1761F06C2F81EE76
:1044700092E00E943601BC0181EE92E00E94D101DF
:10448000C093E50282EB91E09093E2028093E10217
:104490008091E60291E089278093E9021092A702B9
:1044A0001092A6021093A5020093A4028FB7F8946D
:1044B0008FBF1092A8022AE831E03093A502209322
:1044C000A402EBEAF2E080E2DF011D928A95E9F7AF
:1044D000F093CC02E093CB021092CE021092CD0268
:1044E0001092D0021092CF022DEC32E03093D20223
:1044F0002093D1021092D4021092D3021092D602CD
:104500001092D50223E230E03093D8022093D702F4
:104510001092D9029093DA029093DB02269A2E9899
:1045200022E731E03093A5022093A4021092DD022D
:104530001092DC022FEF2093DE023FB7F8948AE658
:1045400082BF80E189BD809165008F7E8093650088
:1045500081E28093C0001092BF001092D0001092B0
:10456000DD021092DC0282E08093BF008FE780932F
:10457000D1001092C1003FBF809164008F7D809375
:10458000640083E084BD80916E00816080936E0042
:1045900088E085BDA89A16BC8091640080628093F3
:1045A00064001092A2021092A1021093A002009344
:1045B0009F028FB7F8948FBF42EA51E05093A00258
:1045C00040939F022093A30226E031E030939902AA
:1045D0002093980210929A0210929B0210929E02CF
:1045E000209883B18170892780939D0280939C02DB
:1045F00086E091E09093990280939802CF911F9169
:104600000F910895EE0FFF1F0590F491E02D09948E
:10461000A29FB001B39FC001A39F700D811D112403
:10462000911DB29F700D811D1124911D08959FB79A
:10463000F894809164008062809364009FBF109220
:10464000C1002E989FB7F894809165008061809397
:10465000650089B58D7F89BD9FBF5C982C985F9858
:104660009FB7F89428E032E03093EB022093EA02FF
:1046700080916500877F809365002EE030E0309365
:10468000990020939800C09A10929500109294007F
:10469000809191008560809391009FBF809164001C
:1046A00083FFFCCF8091650083FFF8CFF89483B738
:1046B000817F846083BF83B7816083BF8895F894CE
:1046C000FFCF52172B16FA166F16B81588151C1542
:0446D0001C1523157D
:1046D400020100000000DB0B600A00000000F80B80
:1046E4005C0A9B019F01D101B40B540A1A0B000010
:1046F4000000380A0701F1000401E100F400320A65
:104704004B0B000000000B010701F1000401E10064
:10471400F400320A4B0B00000000380A0701F100D4
:104724000401E100F4002C0A7C0B00000000380AAC
:104734000701F1000401E100F4002C0AEC0A000076
:104744000000F80B0D0C9B019F014D03B40B6D038E
:104754006B0AA00AD50A00000000F80B0D0C9B019F
:104764009F014D03B40BAD0BD90BB20B470C0000EA
:104774000000F80B8E0D9B019F01D101B40B0000CA
:104784000000F80B45019B019F01D101B40B3601D8
:104794001A0B92028D023802E102A4029F029802CF
:1047A4000000000099018F0D00000000EB09940F38
:1047B40000000000ED09EF090000000097089908C7
:1047C4000000000034073607000000004B03890492
:1047D40000000000CF01EC01FB044BF30332FB04A7
:1047E4004BF30332FB044BF30332FB044BF303326E
:1047F400000000F303E1FB04E1000000FB04E1F32B
:0648040003E100000000CA
:02000004008278
:03000000DFD8F84E
:00000001FF
