:100000000C9457000C94CD0D0C94090E0C94500ECA
:100010000C94900E0C94DF000C94DF000C94DF0025
:100020000C94DF000C94CF0E0C94DF000C94DF00D6
:100030000C94360F0C94DF000C94DF000C94DF005E
:100040000C94DF000C94DF000C94DF000C94DF00B4
:100050000C94DF000C94DF000C94DF000C94770FFD
:100060000C94DF000C94DF000C94DF000C94DF0094
:100070000C94DF000C94DF000C94DF000C94DF0084
:100080000C9434100C94DF000C94DF000C94DF000F
:100090000C94DF000C94DF000C94DF000C94DF0064
:1000A0000C94DF000C94DF000C94DF004D1E14BE96
:1000B00080E885BF85BF549A5C98249A2C98579AFB
:1000C0005F9884B1817784B99FB7F89484B18177C0
:1000D00084B985B18E6885B99FBF8AB18F798AB995
:1000E0009FB7F8948AB18F798AB98BB180668BB942
:1000F0009FBF87B117B89FB7F89487B117B888B179
:100100008FEF88B99FBF9DB11DB89FB7F8942DB1EF
:100110001DB82EB18EB99FBF90B310BA9FB7F89497
:1001200020B310BA21B381BB9FBFEAE7F0E0808122
:100130008F77808380B7806880BF8DE8809364006C
:1001400089E98093650011241FBECFEFDAE0DEBF9E
:10015000CDBF11E0A0E0B1E0E6EAF0E402C0059016
:100160000D92AE3FB107D9F722E0AEEFB1E001C08A
:100170001D92A73BB207E1F710E0C7E5D0E004C04D
:100180002197FE010E940320C635D107C9F7F894D4
:10019000A895E0E6F0E088E180838BE4808381E04D
:1001A000809368001BBA80936B0085E5809369009B
:1001B0001CBA8FE08DBB0E9469110C9409200C942D
:1001C0000000DC01ED91FC9111970480F581E02D98
:1001D00080E0E13FF80719F412966C930895CD0181
:1001E0000994FC0162830895DC01ED91FC91119763
:1001F0000680F781E02D81E0E430F80719F41296CB
:100200008C910895CD010994FC0182810895FC012F
:10021000838184830895CF93DF93EC018A818823BF
:1002200059F081508A838C81882319F08D8188232D
:1002300079F0DF91CF910895E881F9810280F3810F
:10024000E02D21E0E730F20771F48B818C83EBCF56
:10025000CE5ADF4F888199818F3F980751F30196DD
:1002600099838883E6CFCE010995DDCFFC01808597
:10027000823041F0662319F083E090E0089586E033
:1002800090E0089583E190E10895FC0184819581D7
:10029000891709F445C0811124C081E080878CE56D
:1002A00095E0938382838BEE91E09093B3028093E9
:1002B000B20280916500877F809365008EE090E0B8
:1002C0009093990080939800C09A10929500109294
:1002D0009400809191008560809391008481858352
:1002E0000895108684EF91E09093B3028093B20258
:1002F00080916500877F809365008EE090E0909309
:10030000990080939800C09A1092950010929400E2
:100310008091910085608093910084818583089508
:100320008581811105C08085813011F482E080874C
:10033000089580E00895FC01738362830895FC01B1
:1003400082819381089582E00895CF93DC01CFB735
:10035000F894ED91FC9111970480F581E02D81E0F6
:10036000EB39F80741F412966C93129713967C932D
:10037000CFBFCF910895CD010995CFBFCF910895FB
:10038000FC0192AD81E0913009F080E00895FF9288
:100390000F931F93CF93DF93EC018B01FFB6F8947B
:1003A000E881F9810480F581E02D81E0EB39F807DF
:1003B00059F46A831B83FFBE0D831E83DF91CF91A7
:1003C0001F910F91FF900895CE010995F4CFCF931F
:1003D000DF93CDB7DEB762970FB6F894DEBF0FBEDE
:1003E000CDBF80910001811162C08091AE0291E089
:1003F000892720910001222309F447C0882389F12D
:100400009093A7028091A80281112BC088E080936D
:10041000FF018091A602813009F0AFC08FEF809379
:10042000A60283B7817F83BF9FB7F8948091640051
:100430008F7D809364009FBF8091A4029091A5025C
:10044000892B09F425C12FB7F8948091A4029091CB
:10045000A5022FBF8937910508F093C183E387BDBB
:1004600024C18091FF01823009F489C08330B1F04A
:10047000813009F453C081E062960FB6F894DEBF74
:100480000FBECDBFDF91CF9108958111BFCF809175
:10049000FF01823009F477C0833051F780916B02FD
:1004A000823009F44CC082E080936B023EC08091A0
:1004B000A802882309F499CF80916302882329F048
:1004C00080916402882309F462C180916202909154
:1004D00064029111D9C190916302911147C1909129
:1004E0006602282F292B09F44BC221E020936302D6
:1004F000833008F07ACF992309F477CF1092A802BD
:1005000080916B0080FF71CF9FB7F89480916B0052
:100510008E7F80936B009FBFD89A67CF80916B02CC
:10052000882309F48BC010926B028FB7F89426E0F1
:1005300030E030936A02209369028FBF9CCF8FB75F
:10054000F8942091690230916A023A8329838FBF1F
:1005500089819A81892B09F08ECF8FB7F89426E094
:1005600030E030936A02209369028FBF80910001CE
:100570008111F1C088E08093FF0180E07DCF88E1A8
:1005800090E0213039F0809101012EE2829FC0017C
:100590001124019620916B02213061F021E020931B
:1005A0006B022FB7F89490936A02809369022FBF71
:1005B00081E062CF3FB7F8944091690250916A029E
:1005C0005C834B833FBF4B815C81452B09F053CF4C
:1005D0003FB7F89490936A02809369023FBF83E02B
:1005E0008093FF01209301018FEF8093A60283B7D0
:1005F000817F83BF9FB7F894809164008F7D809343
:1006000064009FBF8091A4029091A502892B91F173
:100610002FB7F8948091A4029091A5022FBF89373B
:10062000910508F49DC08FE287BD8FB7F894A89A12
:1006300016BC9DE095BD8FBF81E01ECF8FB7F894AB
:100640002091690230916A023E832D838FBF8D8194
:100650009E81892B09F00FCF8FB7F89426E030E008
:1006600030936A02209369028FBF82E08093FF017A
:1006700081E0BBCF2FB7F8948091A4029091A5029E
:100680002FBF8937910508F06EC086E287BDCDCFB8
:100690002FB7F8948091A4029091A5022FBF8937BB
:1006A000910508F471C083E287BD8FB7F894A89ACA
:1006B00016BC9DE095BD8FBF82E08093A102809122
:1006C000A302882309F49BC030E020E034C080916D
:1006D0009F029091A002849708F47BC080917102E0
:1006E000909172024FB7F89460916E0270916F0210
:1006F0007A8769874FBF49855A85841B950B2817D0
:10070000390708F066C08091A1028D7F09F455C0B9
:1007100080919F029091A002280F391F4FB7F89443
:1007200080919F029091A002969587959093A00248
:1007300080939F024FBF8091A1028D7F41F68FB7BA
:10074000F89440919F025091A0025C874B878FBF25
:100750008B859C85C0CF84E08093FF0180E08CCEA8
:1007600083E387BD62CF83E287BD5FCF9091640250
:100770009111B5CE882309F403C181E0809363020F
:1007800034CE8FE287BD91CF86E287BD8ECF809138
:10079000640281112ACE80916302882329F080911E
:1007A0006402882309F425C190916602992309F413
:1007B000E7C081E0809363029ECE8FB7F8944091AA
:1007C0009F025091A0025E874D878FBF8D859E85C9
:1007D000A3CF8091A1028D7F09F491C080919F02E7
:1007E0009091A0022FB7F89490936F0280936E02BD
:1007F0002FBF909372028093710280E03DCE909162
:10080000A1029D7F20919F023091A00291110BC007
:100810009FB7F89420919F023091A002388B2F87C8
:100820009FBF2F8538899FB7F89430936F0220932C
:100830006E029FBF30937202209371029091A102C9
:100840009D7F20919F023091A00291110BC09FB714
:10085000F89420919F023091A0023A8B298B9FBF80
:1008600029893A89203C384008F087CE9FB7F89410
:1008700020919F023091A002220F331F3093A002DB
:1008800020939F029FBFF8CD893008F044C0853087
:1008900008F477C080915F02823009F4A6CD9FB73B
:1008A000F89480916500877F8093650024E33CE0A5
:1008B0003093990020939800C09A1092950010925E
:1008C00094009FBF9FB7F89480916400877F8093C6
:1008D00064002CEE35E0309389002093880080E49A
:1008E000809380009FBF9FB7F894809191008560AE
:1008F000809391009FBF82E080935F0276CD8FB797
:10090000F89420919F023091A00238872F838FBFE7
:100910008F81988567CF80915F02833009F465CD20
:100920009FB7F89480916500877F8093650024E3EA
:100930003CE03093990020939800C09A1092950063
:10094000109294009FBF9FB7F89480916400877FB6
:100950008093640026E436E0309389002093880079
:1009600080E4809380009FBF9FB7F89480919100AE
:100970008560809391009FBF83E080935F0235CDB7
:1009800034CD833008F431CD80915F02813009F499
:100990002CCD9FB7F89480916500877F8093650088
:1009A00024E33CE03093990020939800C09A109281
:1009B0009500109294009FBF9FB7F89480916400B7
:1009C000877F8093640027E935E030938900209386
:1009D000880080E4809380009FBF9FB7F894809147
:1009E00091008560809391009FBF81E080935F02BA
:1009F000FCCCFBCC84E00895CF93DF9300D0CDB73F
:100A0000DEB78091A80281114EC08091AE028111A3
:100A10000FC081E08093A7028091A802811108C0D5
:100A200098E09093FF010F900F90DF91CF91089580
:100A300080916B02833091F083E080936B028FB7DB
:100A4000F89426E030E030936A02209369028FBF69
:100A500081E00F900F90DF91CF9108958FB7F894B8
:100A60002091690230916A023A8329838FBF89817C
:100A70009A81892B31F081E00F900F90DF91CF9117
:100A800008958FB7F89426E030E030936A022093FF
:100A900069028FBF85E08093FF0180E00F900F9087
:100AA000DF91CF91089580916302882361F1809155
:100AB0006402811128C0809164028111A6CF8091C7
:100AC0006302882329F080916402882309F4E5C039
:100AD00090916602992309F4A1C081E0809363029A
:100AE000992309F492CF1092A80280916B0080FFA5
:100AF0008CCF9FB7F89480916B008E7F80936B00B2
:100B00009FBFD89A82CF8091620290916402911126
:100B100016C090916302992329F090916402992361
:100B200009F47DC090916602282F292B09F476C024
:100B300021E020936302833008F067CFD1CF893062
:100B4000C0F5853008F471C080915F02823009F4ED
:100B50005CCF9FB7F89480916500877F8093650094
:100B600024E33CE03093990020939800C09A1092BF
:100B70009500109294009FBF9FB7F89480916400F5
:100B8000877F809364002CEE35E0309389002093BA
:100B9000880080E4809380009FBF9FB7F894809185
:100BA00091008560809391009FBF82E080935F02F7
:100BB0002CCF80915F02833009F427CF9FB7F89440
:100BC00080916500877F8093650024E33CE030934B
:100BD000990020939800C09A10929500109294006A
:100BE0009FBF9FB7F89480916400877F80936400D3
:100BF00026E436E0309389002093880080E48093D7
:100C000080009FBF9FB7F89480919100856080938A
:100C100091009FBF83E080935F02F7CEF6CE8823DA
:100C2000E9F381E080936302F0CE833008F4EDCEE7
:100C300080915F02813009F4E8CE9FB7F8948091EB
:100C40006500877F8093650024E33CE03093990042
:100C500020939800C09A10929500109294009FBF24
:100C60009FB7F89480916400877F8093640027E9A0
:100C700035E0309389002093880080E480938000E1
:100C80009FBF9FB7F89480919100856080939100F9
:100C90009FBF81E080935F02B8CEB7CE85E0089514
:100CA00088E00895CF93DF9300D0CDB7DEB7809171
:100CB0006B02853091F085E080936B028FB7F894DA
:100CC00026E030E030936A02209369028FBF81E012
:100CD0000F900F90DF91CF9108958FB7F8942091E6
:100CE000690230916A023A8329838FBF89819A8190
:100CF000892B31F081E00F900F90DF91CF91089513
:100D00008FB7F89426E030E030936A0220936902AE
:100D10008FBF80E00F900F90DF91CF910895611108
:100D200002C083E0089586E00895662311F080E014
:100D3000089583E00895DC0112968C911297882320
:100D400021F0815012968C930895ED91FC911197AA
:100D50000280F381E02D81E0E730F80731F413964B
:100D60008C91139714968C930895CD010994611179
:100D700003C086E090E0089583E090E00895FC01D0
:100D8000848185830895FC018381882319F08481FF
:100D9000882311F08281089580E00895FC0181E0AC
:100DA00082AF83B7817F83BF9FB7F894809164003F
:100DB0008F7D809364009FBF80AD91AD892B59F0EA
:100DC0002FB7F89480AD91AD2FBF89379105C0F44E
:100DD00083E387BD0AC02FB7F89480AD91AD2FBFD4
:100DE0008937910550F083E287BD8FB7F894A89AB0
:100DF00016BC9DE095BD8FBF089586E287BDF5CFF7
:100E00008FE287BDF2CFFC018FEF82AF83B7817F86
:100E100083BF9FB7F894809164008F7D80936400B6
:100E20009FBF80AD91AD892B59F02FB7F89480AD5D
:100E300091AD2FBF89379105C0F483E387BD0AC008
:100E40002FB7F89480AD91AD2FBF8937910550F041
:100E500083E287BD8FB7F894A89A16BC9DE095BD34
:100E60008FBF089586E287BDF5CF8FE287BDF2CFB1
:100E70009FB7F894E4E6F0E08081806280839FBFB2
:100E80001092C1002E989FB7F894E5E6F0E08081BB
:100E90008061808389B58D7F89BD9FBF0895EF9262
:100EA000FF920F931F93CF938C01C9B1C095C1706E
:100EB000DC0113968C9113978C17A1F0ED91FC91A6
:100EC000E480F5800484F585E02D6C2FC801099538
:100ED000B1EFEB16B0E0FB0659F4F8018283D801BC
:100EE0001396CC93CF911F910F91FF90EF9008959F
:100EF000682FC801F7010995F2CFEF92FF920F9387
:100F00001F93CF938C01C9B1C695C17081E0C827EA
:100F1000D80114968C9114978C17A9F0ED91FC913F
:100F2000E480F5800484F585E02D6C2FC8010995D7
:100F3000BBE9EB16B1E0FB0661F4F8018283938311
:100F4000D8011496CC93CF911F910F91FF90EF9001
:100F50000895BC01C801F7010995F2CFEF92FF9205
:100F60000F931F93CF938C01C9B1C2FBCC27C0F95B
:100F700081E0C827D80113968C9113978C17A1F0A4
:100F8000ED91FC91E480F5800484F585E02D6C2FD3
:100F9000C8010995B1EFEB16B0E0FB0659F4F80172
:100FA0008283D8011396CC93CF911F910F91FF901C
:100FB000EF900895682FC801F7010995F2CFEF92DD
:100FC000FF920F931F93CF938C01C9B1C3FBCC2722
:100FD000C0F981E0C827D80113968C9113978C171C
:100FE000A1F0ED91FC91E480F5800484F585E02D7D
:100FF0006C2FC8010995B1EFEB16B0E0FB0659F470
:10100000F8018283D8011396CC93CF911F910F9151
:10101000FF90EF900895682FC801F7010995F2CF6E
:101020001F93CF93DF9300D0CDB7DEB7DC011FB79E
:10103000F894ED91FC9111970680F781E02D81E005
:10104000EF39F80771F412962D913C913A83298378
:101050001FBF89819A810F900F90DF91CF911F91CF
:101060000895CD0109959C01F1CF83B186FB8827B6
:1010700080F908952E9808952E9A0895FC01809184
:101080006B0080FF0AC0848181110FC08381882397
:1010900059F012821682138208958381882319F0F1
:1010A00084818823B1F31282089582818F3FE1F316
:1010B0008F5F82830895DC0112968D919C91139726
:1010C000009731F0019713969C938E931297089591
:1010D000ED91FC9111970280F381E02DCD010994EF
:1010E000DC01D5968C91D597823029F0833029F197
:1010F000882321F00895D5961C92D597D3966D91AB
:101100007C91D49764327105A8F3D7968C91D797C8
:10111000811117C081E0D7968C93D797ED91FC9100
:1011200011970480F581E02D81E0EB39F80781F417
:1011300013967C936E931297089581E0D5968C93C5
:10114000089576956795D4967C936E93D397E6CF62
:10115000CD010994BF92CF92DF92EF92FF920F934D
:101160001F93CF93DF93CDB7DEB72C970FB6F894CC
:10117000DEBF0FBECDBF8C01DC01ED91FC9104847C
:10118000F585E02D0995882309F492C0D801ED91E9
:10119000FC910088F189E02DC801099582E0F801F1
:1011A00085ABD80187A9882309F492C0D12CC12C22
:1011B00039C0D3968D919C91849708F447C0F8016B
:1011C000E580F680BFB6F8940190F081E02D0680AE
:1011D000F781E02DB1E0EF39FB0709F0CEC0F8014F
:1011E000228133813C832B83BFBE8B819C81E81A93
:1011F000F90ACE14DF0450F5D801D5968C918D7F75
:1012000009F4B0C0D801D3968D919C91C80ED91E17
:101210002FB7F894F80183A994A99695879594AB74
:1012200083AB2FBFD801D5968C91D5978D7F09F0D0
:10123000C0CF8FB7F894F80123A934A93E832D833A
:101240008FBF8D819E81849708F0B9CFD801ED9131
:10125000FC9111970084F185E02DD5968C91D5975E
:101260008D7F09F092C08FB7F894D3962D913C9161
:101270003A8329838FBFE980FA80B1E0E73CFB071E
:1012800009F091C0DFB6F894D801ED91FC9104808B
:10129000F581E02DB1E0EB39FB0709F09AC0F801C8
:1012A000F382E282DFBED8011696FC92EE92159789
:1012B0002C960FB6F894DEBF0FBECDBFDF91CF9155
:1012C0001F910F91FF90EF90DF90CF90BF90089506
:1012D0000190F081E02D0084F185E02DD5968C9170
:1012E000D5978D7F09F04DC08FB7F894D3962D9187
:1012F0003C913A8729878FBFE984FA84B1E0E73CC3
:10130000FB0709F062C0DFB6F894D801ED91FC91BB
:101310000480F581E02DB1E0EB39FB0709F05DC0F9
:10132000F801F382E282DFBED8011696FC92EE92BB
:101330001597F80185A98D7F61F183A994A9803C57
:10134000984008F0B5CF2FB7F894D801D3968D9177
:101350009C91D497880F991FD4969C938E93D39782
:101360002FBFA6CF8FB7F894F80123A934A93887E7
:101370002F838FBF8F81988549CFC80109959C0124
:1013800031CFD396ED90FC90B9CFD396ED90FC90F1
:1013900074CF8FB7F89423A934A93C872B878FBFCC
:1013A0008B859C85CCCFB701C8012C960FB6F894DD
:1013B000DEBF0FBECDBFDF91CF911F910F91FF9088
:1013C000EF90DF90CF90BF900994B701C8010995C5
:1013D000B0CFB701C801099565CFB701C80109951C
:1013E000A2CF0895CF93DF9300D000D0CDB7DEB762
:1013F000FC0190915E0280915902990F982B9130D7
:1014000009F4A4C091112DC0909354023091AE0202
:1014100080916302882329F080916402882309F473
:10142000D1C08091620220916402211193C0209169
:101430006302211120C020916602882309F4D1C0E3
:1014400041E0409363028930F8F4853008F01EC112
:10145000833008F44BC18381882309F485C163E09C
:1014600064C180910402882379F2933009F444C165
:1014700090915402CBCF209164022111DCCF20E067
:101480008111DECF60E022C02FB7F89460ED71E0EB
:101490007093B3026093B20280916500877F80935E
:1014A00065006EE070E07093990060939800C09AB8
:1014B0001092950010929400809191008560809325
:1014C00091002FBF83818427838365E021E0809191
:1014D0000101823008F420E08FB7F894409169024E
:1014E00050916A025C834B838FBF4B815C81452B9B
:1014F00041F48281863008F4EAC0232F332309F4B3
:101500007CC08381811111C0613071F0933031F062
:101510009923B1F09091A702992391F031110CC059
:101520009091A802911108C081E00F900F900F9048
:101530000F90DF91CF9108959091A1029923A9F383
:10154000222391F331111AC1822FEFCF109254024E
:1015500090E05CCF893008F464C080915F028330F2
:1015600079F12FB7F89480916500877F80936500AB
:1015700044E35CE05093990040939800C09A109225
:101580009500109294002FBF2FB7F89480916400BB
:10159000877F8093640046E456E05093890040932F
:1015A000880080E4809380002FBF2FB7F89480914B
:1015B00091008560809391002FBF83E080935F024C
:1015C00061E084CF809164028111FACF809163023F
:1015D000882329F080916402882309F4CDC02091EA
:1015E0006602222309F44ECF81E080936302838157
:1015F000882309F4BDC062E098C080910101853064
:1016000008F078C08F5F8093010112828FB7F89441
:1016100043E150E150936A02409369028FBF21E099
:1016200070CF853008F4ADC080915F02823041F206
:101630002FB7F89480916500877F8093650044E31D
:101640005CE05093990040939800C09A10929500E6
:10165000109294002FBF2FB7F89480916400877F79
:10166000809364004CEE55E05093890040938800CD
:1016700080E4809380002FBF2FB7F8948091910071
:101680008560809391002FBF82E098CF8381811184
:101690004BC064E0992309F419CF4093A80264E099
:1016A00031110DC02091AE028091AD02281739F0A2
:1016B0008FB7F8941092AC021092AB028FBF9330A8
:1016C00019F081E08093A7021092A102FFCE42E0C0
:1016D000409300018F5F82838FB7F89443E150E11C
:1016E00050936A02409369028FBF0BCF21117FCFC5
:1016F00060E0ECCE85E087CF20915002309151021E
:101700002115310509F4B4CE8FB7F89440915202F7
:10171000509153025A8349838FBF49815A8142179E
:10172000530708F071CEA4CE64E02FB7F89440EDD3
:1017300051E05093B3024093B20280916500877FDD
:10174000809365004EE050E05093990040939800DC
:10175000C09A10929500109294008091910085603B
:10176000809391002FBFB2CE63E0911199CFAECE9E
:1017700062E09111A4CFAACE60E0A8CE1092000141
:10178000D4CE833008F41CCF80915F02813009F4FD
:1017900017CF2FB7F89480916500877F80936500FD
:1017A00044E35CE05093990040939800C09A1092F3
:1017B0009500109294002FBF2FB7F8948091640089
:1017C000877F8093640047E955E0509389004093F8
:1017D000880080E4809380002FBF2FB7F894809119
:1017E00091008560809391002FBF81E0E7CECF9379
:1017F000DF93CDB7DEB728970FB6F894DEBF0FBEE4
:10180000CDBF8091A80281118BC08091FF018630ED
:1018100009F469C080915E0290915902880F892B6A
:101820008130C9F0882321F0909104029111C4C045
:1018300080935402882389F08091AE0281111CC0EC
:1018400081E08093A7024091A802411115C088E071
:101850008093FF0107C0109254022C9A86E0809377
:10186000FF0141E0842F28960FB6F894DEBF0FBE2B
:10187000CDBFDF91CF9108958091A102813009F40D
:10188000DCC040910402442361F31092A202E09173
:101890009D02F0919E02309709F408C19F01ABEAC6
:1018A000BAEA0E94F41F6D837E838F839887DC01E0
:1018B000CB0121E1B695A795979587952A95D1F704
:1018C000E80FF91FE93380E3F80708F0EFC08FB79E
:1018D000F894F0936F02E0936E028FBFF093720260
:1018E000E0937102BFCF80916B02843009F4E1C0B4
:1018F00084E080936B028FB7F8942AE030E0309355
:101900006A02209369028FBF8091AE028111A9CF34
:1019100081E08093A7024091A8024111A3CF97CF05
:1019200080916302882361F180916402811128C053
:1019300080916402811169CF80916302882329F02C
:1019400080916402882309F427C19091660299234B
:1019500009F4CBC081E080936302992309F455CF49
:101960001092A80280916B0080FF4FCF9FB7F89430
:1019700080916B008E7F80936B009FBFD89A45CF7C
:10198000809162029091640291111CC09091630257
:10199000992329F090916402992309F4BFC0909192
:1019A0006602282F292B09F4A0C021E020936302AE
:1019B000833008F02ACFD1CF833009F497C08091CB
:1019C000540238CF893008F03CC0853008F4ACC0F0
:1019D00080915F02823009F418CF9FB7F89480910C
:1019E0006500877F8093650024E33CE03093990095
:1019F00020939800C09A10929500109294009FBF77
:101A00009FB7F89480916400877F809364002CEEE8
:101A100035E0309389002093880080E48093800033
:101A20009FBF9FB7F894809191008560809391004B
:101A30009FBF82E080935F02E8CE90E080E00E944A
:101A4000092080915F02833009F4DFCE9FB7F894BC
:101A500080916500877F8093650024E33CE03093AC
:101A6000990020939800C09A1092950010929400CB
:101A70009FBF9FB7F89480916400877F8093640034
:101A800026E436E0309389002093880080E4809338
:101A900080009FBF9FB7F8948091910085608093EC
:101AA00091009FBF83E080935F02AFCEE8E3F0E355
:101AB0000ECF8FB7F8942091690230916A023C836F
:101AC0002B838FBF8B819C81892B09F01DCF8FB712
:101AD000F8942AE030E030936A02209369028FBFC5
:101AE00087E08093FF0140E0BDCE8FCE2091500271
:101AF000309151022115310509F461CF9FB7F89457
:101B000040915202509153025A8349839FBF4981A9
:101B10005A814217530708F08BCE51CF882329F3FF
:101B200081E08093630271CE833008F46ECE8091A1
:101B30005F02813009F469CE9FB7F8948091650007
:101B4000877F8093650024E33CE0309399002093E5
:101B50009800C09A10929500109294009FBF9FB772
:101B6000F89480916400877F8093640027E935E0D2
:101B7000309389002093880080E4809380009FBF89
:101B80009FB7F894809191008560809391009FBFEA
:101B900081E080935F0239CE38CE1F920F920FB64C
:101BA0000F9211242F933F934F935F936F937F93E3
:101BB0008F939F93AF93BF93CF93EF93FF938BE458
:101BC00080936000C9B1C095C17080915D028C178F
:101BD00049F063E0C1111BC08AE592E00E94F10068
:101BE000C0935D028BE480936000FF91EF91CF91F1
:101BF000BF91AF919F918F917F916F915F914F9125
:101C00003F912F910F900FBE0F901F90189566E097
:101C1000E3CF1F920F920FB60F9211242F933F9391
:101C20004F935F936F937F938F939F93AF93BF93E4
:101C3000CF93EF93FF938BE48093600089B1C1E071
:101C4000982F927081FDC0E08091AD028C1781F0D9
:101C50008091B10263E170E1823021F063E070E0D5
:101C600091111BC089EA92E00E949B01C093AD02D2
:101C70008BE480936000FF91EF91CF91BF91AF9182
:101C80009F918F917F916F915F914F913F912F9194
:101C90000F900FBE0F901F90189566E070E0E2CF96
:101CA0001F920F920FB60F9211242F933F934F93D1
:101CB0005F936F937F938F939F93AF93BF93CF93D4
:101CC000EF93FF938BE48093600089B1C1E0682FAC
:101CD000647082FDC0E0809103028C1741F06111B5
:101CE0001DC080E092E00E94F100C09303021092B8
:101CF000A2028BE480936000FF91EF91CF91BF919E
:101D0000AF919F918F917F916F915F914F913F9193
:101D10002F910F900FBE0F901F90189563E0E1CFA9
:101D20001F920F920FB60F9211242F933F934F9350
:101D30005F936F937F938F939F93AF93BF93CF9353
:101D4000EF93FF938BE48093600089B1C1E0982FFB
:101D5000987083FDC0E0809158028C1749F066E0CE
:101D600091111BC085E592E00E94F100C0935802DA
:101D70008BE480936000FF91EF91CF91BF91AF9181
:101D80009F918F917F916F915F914F913F912F9193
:101D90000F900FBE0F901F90189563E0E3CF1F9236
:101DA0001FB61F9211248F939F938BE48093600042
:101DB00083B180958170809364028091630288234F
:101DC00021F0809164028823F1F080916402909167
:101DD0006502981741F08823E9F010926202809121
:101DE0006402809365028BE48093600080916402BA
:101DF000811118C08BE4809360009F918F911F9098
:101E00001FBE1F90189510926202109266021092E7
:101E10006302DBCF809166028F3F09F38F5F80936F
:101E20006602DDCF80916500877F809365008CE03E
:101E300093E09093990080939800C09A1092950037
:101E40001092940080916400877F809364008BEFF0
:101E500094E0909389008093880080E480938000D0
:101E600080919100856080939100C4CF1F920F9262
:101E70000FB60F9211242F933F934F935F936F935D
:101E80007F938F939F93AF93BF93EF93FF938BE4D5
:101E900080936000E091FE01F0E0EE0FFF1FEE5333
:101EA000FE4F80819181DC01ED91FC910190F081E8
:101EB000E02D09958091FE018630B8F48F5F809304
:101EC000FE018BE480936000FF91EF91BF91AF9191
:101ED0009F918F917F916F915F914F913F912F9142
:101EE0000F900FBE0F901F90189580E0E8CF0F92D3
:101EF0000FB60F921F9211242F933F934F935F932E
:101F00006F937F938F939F938BE4809360002091D6
:101F1000A6028091A4029091A50212160CF05BC05B
:101F2000022E000C330B4FE752E0BA01621B730B19
:101F30008617970798F549B5426049BD09B400FE78
:101F4000FDCF409165004F7E40936500820F931F47
:101F50009093BF008093D0009093A5028093A40239
:101F600021E02093C1002091A602213009F058C041
:101F70008937910508F06CC083E387BD8BE48093BB
:101F800060009F918F917F916F915F914F913F91F1
:101F90002F911F900F900FBE0F90189582E08093A5
:101FA000BF008FE78093D0005093A5024093A40216
:101FB0001092C1002E9A8091650080618093650027
:101FC00089B58D7F89BD8091A602813009F049C015
:101FD0008FE287BD2DC0022E000C330B44275527FE
:101FE000421B530B4817590760F11092BF00109223
:101FF000D0001092A5021092A4021092C1002E9857
:102000008091650080618093650089B58D7F89BD71
:102010008091A602813009F4AFCF86E287BD08C067
:1020200089379105D8F426E227BD892B09F0A6CF80
:1020300085B5887F85BD809164008062809364004F
:102040009DCF49B5426049BD09B400FEFDCF79CFAF
:102050002FE227BD8F37924059F390CF23E227BD5F
:10206000E4CF83E287BD8ACF0F920FB60F921F9203
:1020700011242F933F934F935F936F937F938F938D
:102080009F93AF93BF93EF93FF93CF93DF9300D0D2
:1020900000D0CDB7DEB78BE480936000E091B20250
:1020A000F091B302408151812281222309F45DC065
:1020B0008091B2029091B30203969093B302809301
:1020C000B20230E0A0E8BEE30E94F41F69837A8385
:1020D0008B839C83DC01CB012AE0B695A79597956D
:1020E00087952A95D1F7019720916500277F209346
:1020F00065009093990080939800C09A1092950083
:10210000109294004F3F540709F442C04115510505
:1021100009F443C080916400877F809364005093EA
:1021200089004093880080E4809380008091910032
:102130008560809391008BE4809360000F900F90F6
:102140000F900F90DF91CF91FF91EF91BF91AF91E1
:102150009F918F917F916F915F914F913F912F91BF
:102160001F900F900FBE0F901895809191008B7F5C
:1021700080939100C09A10929500109294008091E3
:1021800065008860809365004F3F540709F0BECF1B
:102190005093890040938800C9CF109280008091AD
:1021A00064008860809364002D98C0CFCF93DF9344
:1021B00000D000D0CDB7DEB7FC01A081B1814D9138
:1021C0005C91119712962C91222309F444C08081CE
:1021D000918103969183808330E0A0E8BEE30E9462
:1021E000F41F69837A838B839C83DC01CB012AE013
:1021F000B695A795979587952A95D1F70197209140
:102200006500277F20936500909399008093980044
:10221000C09A10929500109294004F3F540769F1B4
:102220004115510579F180916400877F80936400A6
:10223000509389004093880080E4809380008091CF
:1022400091008560809391000F900F900F900F90F8
:10225000DF91CF910895809191008B7F80939100C1
:10226000C09A109295001092940080916500886049
:10227000809365004F3F540799F65093890040932F
:102280008800DDCF10928000809164008860809388
:1022900064002D98D4CFEF92FF921F93CF93DF93DA
:1022A000EC01162F8B81861771F0E881F981E084AB
:1022B000F1840484F585E02DCE010995682FCE01C7
:1022C000F70109951B83DF91CF911F91FF90EF904C
:1022D0000895CDB7DEB7C054D109DEBFCDBF789425
:1022E0008091FF0114E3A12E1CE0B12E0CEE402ED4
:1022F00005E0502E96E4892E96E0992E2AE0722E63
:10230000843009F4CCC0853008F0E2C0882309F499
:102310009BC22C9A5C9A70E4C72E81E062E0F3E0E5
:1023200046E050E0AFEFEDE0B3E2DB2E06E21FE265
:10233000B3E37EE29BE4209100012111DFC12091F3
:10234000AE02282730910001332309F416C222235C
:1023500009F4B5C18093A7022091A8022111AFC151
:1023600088E08093FF018091A602813009F091C03E
:102370008FEF8093A60283B7817F83BF9FB7F894C6
:10238000809164008F7D809364009FBF8091A40240
:102390009091A502892B11F40C94001A2FB7F89490
:1023A0008091A4029091A5022FBF8937910510F06A
:1023B0000C94101C83E387BD8FB7F894A89A16BCC1
:1023C0009DE095BD8FBF82E08093A1028091A30222
:1023D000882311F40C940F1A30E020E033C0809170
:1023E0009F029091A002849708F43EC080917102F0
:1023F000909172024FB7F89460916E0270916F02E3
:1024000078AB6FA74FBF4FA558A9841B950B281712
:10241000390750F58091A1028D7F09F4CCC18091DC
:102420009F029091A002280F391F4FB7F894809116
:102430009F029091A002969587959093A002809319
:102440009F024FBF8091A1028D7F49F68FB7F8940C
:1024500040919F025091A0025AAB49AB8FBF89A90E
:102460009AA9849708F0C2CF8091A1028D7F11F4C0
:102470000C94BB1B80919F029091A0022FB7F894FF
:1024800090936F0280936E022FBF9093720280939D
:1024900071022C988091FF01843009F034CFE0E480
:1024A00041E0F2E053E026E030E09BE48091A802B6
:1024B0008111C9C38091AE028111A3C34093A702C9
:1024C0008091A80281119DC388E08093FF0118CFFD
:1024D000853009F407C4883009F012CF8091A60234
:1024E000813009F092C08FEF8093A60283B7817F7D
:1024F00083BF9FB7F894809164008F7D80936400C0
:102500009FBF8091A4029091A502892B11F40C9495
:10251000C81B2FB7F8948091A4029091A5022FBFF9
:102520008937910510F00C94DE1C83E387BD8FB7CB
:10253000F894A89A16BC9DE095BD8FBF82E0809369
:10254000A1028091A302882311F40C94191D30E09C
:1025500020E034C080919F029091A002849708F4FB
:102560003FC080917102909172024FB7F8946091D0
:102570006E0270916F0278876F834FBF4F815885CD
:10258000841B950B2817390758F58091A1028D7F80
:1025900011F40C94FD1C80919F029091A002280FD1
:1025A000391F4FB7F89480919F029091A0029695A1
:1025B00087959093A00280939F024FBF8091A102C4
:1025C0008D7F41F68FB7F89440919F025091A00201
:1025D0005A8749878FBF89859A85849708F0C1CF2C
:1025E0008091A1028D7F11F40C948F1D80919F0228
:1025F0009091A0022FB7F89490936F0280936E028F
:102600002FBF909372028093710245E026E030E084
:102610009BE418C040936B028FB7F89430936A0222
:10262000209369028FBF83B7817F83BF83B78160A7
:1026300083BF889583B78E7F83BF8FB7F8949093BD
:1026400060008FBF80916B02853021F78FB7F894BF
:102650006091690270916A027C836B838FBF6B818A
:102660007C81672B01F78FB7F89426E030E0309338
:102670006A02209369028FBF8091A702882309F420
:1026800075C71092FF0180916B02863009F443C731
:1026900086E080936B021FB7F894E0916702F09197
:1026A0006802848195818B59914009F04EC783E17E
:1026B00090E190936A02809369021FBF9FC22091AC
:1026C000FF01223009F49AC0233009F48FC0213071
:1026D00009F47DC023B7217F23BF23B7216023BF27
:1026E000889523B72E7F23BF2FB7F894909360006F
:1026F0002FBF20910001222309F421CE2091A802AE
:10270000222309F41CCE20916302222331F0209170
:102710006402222311F40C94C01C209162023091B7
:10272000640231110C943C1B30916302332331F06D
:1027300030916402332311F40C94071E3091660229
:10274000F22EF32A11F40C94CD1C809363022330F3
:1027500008F0F5CD332309F4F2CD1092A8022091B0
:102760006B0020FFECCD3FB7F89420916B002E7FDB
:1027700020936B003FBFD89AE2CD2111F1CD20917B
:10278000FF01223009F0A0CF20910101279F900185
:1027900011242F5F3F4F60906B0222242394621418
:1027A000B9F180936B02FFB6F89430936A022093DC
:1027B0006902FFBE8FCF8FB7F89440919F0250916E
:1027C000A0025CAB4BAB8FBF8BA99CA92CCE2091F8
:1027D0006B02222309F4FEC410926B022FB7F89407
:1027E00050936A02409369022FBF74CF20916B020D
:1027F000223009F42DC560936B02F0CF313021F601
:1028000028E130E060906B02222423946210C9CF4B
:102810003FB6F894E0906902F0906A02FAA6E9A641
:102820003FBEE9A4FAA4EF2809F054CFFFB6F8940C
:1028300030936A0220936902FFBEF093FF01609219
:102840000101A093A602DFC41092A80281E0809348
:10285000630280916B0080FF80C681E0809300015D
:1028600090E010E0FF24F39440ED51E02EE030E0E2
:1028700002E0E02E80E4D82E63E0662E0BE4809127
:102880005E02E0915902880F8E2B813009F4C0C09E
:10289000882309F4D7C0E0910402EE2309F4D2C0E2
:1028A000833009F4B9C080915402C090AE02E09127
:1028B0006302EE2329F0E0916402EE2309F4FBC0E9
:1028C000E0916202F0916402F111BFC0F0916302E5
:1028D000FF2329F0F0916402FF2309F43BC1F0913A
:1028E0006602EE2309F4F6C0F0926302A92FE930E4
:1028F00008F0FCC0E53008F069C1E33008F423C1FA
:102900009111C1C563E08823B1F0C1100DC0F091F1
:10291000AE02E091AD02FE1739F0EFB7F8941092D5
:10292000AB021092AC02EFBF833011F0F092A7021D
:102930001092A102A0E0B1E0E0910101E23008F4C0
:10294000B0E02FB6F894E0916902F0916A02FCAF12
:10295000EBAF2FBEEBADFCADEF2BD9F4163008F486
:10296000E3C0BC2DC11015C0E0910101E53008F0B5
:1029700084C3EF5FE0930101EFB7F89473E1272E72
:1029800070E1372E30926A0220926902EFBF10E0A8
:10299000B1E0A11119C06130B9F0833031F0882362
:1029A00079F08091A702882359F0C11004C080916A
:1029B000A802882349F08091A102882309F412C15A
:1029C000BB2311F0C1100CC18FB7F89409B400FCFF
:1029D00006C0E0916400E872E83209F4DCC3E3B7B2
:1029E000E17FE3BF8FBF83B7816083BF889583B7E3
:1029F0008E7F83BF8FB7F894009360008FBF809164
:102A00005E02E0915902880F8E2B813009F040CF91
:102A10001092540280E049CFE0915002F0915102AF
:102A2000309709F440CFCFB6F894A0915202B091FC
:102A30005302BAAFA9AFCFBEA9ADBAADAE17BF07AB
:102A400008F431CF8093540230CFA92FE93008F435
:102A500089C0E0915F02E33009F480C0FFB7F894C9
:102A6000E0916500E77FE0936500B0929900A09245
:102A70009800C09A1092950010929400FFBFFFB783
:102A8000F894E0916400E77FE093640090928900FD
:102A900080928800D0928000FFBFFFB7F894E09149
:102AA0009100E560E0939100FFBF60925F0261E0FA
:102AB000911141CF3FCFE0916402E1112DC4E0912B
:102AC0006302EE2329F0E0916402EE2309F4BBC611
:102AD000F0916602FF2309F440C0F0926302A92F2F
:102AE0009111B5C562E081111FCF25CFFFB7F894D2
:102AF0005093B3024093B202E0916500E77FE09308
:102B000065003093990020939800C09A1092950028
:102B100010929400E0919100E560E0939100FFBF76
:102B20009F25A92F65E007CFE09200011F5FEFB757
:102B3000F894F3E12F2EF0E13F2E30926A022092BA
:102B40006902EFBF26CFF111CBCFA92F60E0911121
:102B5000F2CEF0CEF0E0E111C7CEF7CF61E09111F7
:102B6000EACEE8CEE53008F422C6E0915F02E2301A
:102B7000A9F3FFB7F894E0916500E77FE093650063
:102B8000B0929900A0929800C09A1092950010926D
:102B90009400FFBFFFB7F894E0916400E77FE093F3
:102BA00064005092890040928800D0928000FFBF5C
:102BB000FFB7F894E0919100E560E0939100FFBFCA
:102BC000E0925F0261E09111B6CEB4CE9111EBC3F9
:102BD00064E0882309F4AFCEF092A80264E095CEB9
:102BE0001092000181E0809305028093FF01909193
:102BF000A802992309F4F4C3809363028091FF0132
:102C00007FCB80916B02833009F453C050936B02E9
:102C10008FB7F89430936A02209369028FBF83B70D
:102C2000817F83BF83B7816083BF889583B78E7FA1
:102C300083BF8FB7F894909360008FBF8091A802F4
:102C4000882309F437CC80916302882329F080918E
:102C50006402882309F494C3809162026091640243
:102C60006111D6C160916302662329F0609164020C
:102C7000662309F4FAC460916602782F762B09F472
:102C8000BDC340936302833008F014CC662309F47B
:102C900011CC1092A80280916B0080FF0BCC6FB713
:102CA000F89480916B008E7F80936B006FBFD89AF1
:102CB00001CC8FB7F8946091690270916A027EA38B
:102CC0006DA38FBF6DA17EA1672B09F0A8CF8FB731
:102CD000F89426E030E030936A02209369028FBFB7
:102CE00085E0F3CB8091A70291E089278093A2022F
:102CF0008091A602813009F460C09093A60283B748
:102D0000817F83BF9FB7F894809164008F7D80930B
:102D100064009FBF8091A4029091A502892B71F05D
:102D20002FB7F8948091A4029091A5022FBF893704
:102D3000910508F047C683E387BD0DC02FB7F8940F
:102D40008091A4029091A5022FBF8937910508F4C4
:102D500032C683E287BD8FB7F894A89A16BC9DE06F
:102D600095BD8FBF83E08093A10240919D02509159
:102D70009E0241155105D9F09A01ABEABAEA0E94C8
:102D8000F41F21966CAF7DAF8EAF9FAF2197DC0112
:102D9000CB0171E1B695A795979587957A95D1F76F
:102DA000BA01680F791F693320E3720710F068E3F6
:102DB00070E38CE692E00E94C7015F9A30E4F32E44
:102DC00051E042E0D42E63E0E62E16E004E04BE44E
:102DD0008091A802811187C08091FF01863009F49B
:102DE00055C080915E0290915902880F892B8130E5
:102DF00009F408C1882309F4C3C0909104029923FF
:102E000009F4BEC0833009F4A4C080915402882321
:102E100009F4BAC08091AE028111BAC05093A702E2
:102E20008091A8028111B4C088E08093FF01809155
:102E3000FF01873009F4FCC41092A3028091A6021E
:102E4000813009F0C5C18FEF8093A60283B7817FDF
:102E500083BF9FB7F894809164008F7D8093640056
:102E60009FBF8091A4029091A502892B09F4ECC424
:102E70002FB7F8948091A4029091A5022FBF8937B3
:102E8000910508F0A8C583E387BDEBC480916B0270
:102E9000843009F4F4C000936B028FB7F8947092F9
:102EA000690210926A028FBF8091AE02811107C041
:102EB0005093A7028091A802882309F4B5CF83B765
:102EC000817F83BF83B7816083BF889583B78E7FFF
:102ED00083BF8FB7F894409360008FBF8091A802A2
:102EE000882309F479CF80916302882329F08091A7
:102EF0006402882309F4C9C280916202909164023D
:102F00009111C8C190916302992329F090916402B4
:102F1000992309F4CEC290916602282F292B09F437
:102F2000CAC250936302833008F056CF992309F444
:102F300053CF1092A80280916B0080FF4DCF9FB7B6
:102F4000F89480916B008E7F80936B009FBFD89A1E
:102F500043CF20915002309151022115310509F4DF
:102F600054CF9FB7F89460915202709153027AA3A4
:102F700069A39FBF69A17AA16217730708F445CFBF
:102F800080935402811146CF2C9A1093FF0197CF62
:102F90008091A102813009F456C3809104028823F4
:102FA00009F48DCF1092A202E0919D02F0919E0251
:102FB0003097D1F09F01ABEABAEA0E94F41F219644
:102FC0006CAF7DAF8EAF9FAF2197DC01CB0121E1CC
:102FD000B695A795979587952A95D1F7E80FF91F8C
:102FE000E93370E3F70710F0E8E3F0E38FB7F89404
:102FF000F0936F02E0936E028FBFF0937202E09342
:1030000071025DCF109254022C9A1093FF0157CF9A
:10301000893008F086C1853008F479C480915F0258
:10302000823009F447CA6FB7F89480916500877FB2
:1030300080936500B0929900A0929800C09A109277
:103040009500109294006FBF6FB7F8948091640060
:10305000877F809364005092890040928800E093BB
:1030600080006FBF6FB7F894809191008560809366
:1030700091006FBFF0935F021DCAE5E07BCC8FB774
:10308000F8942091690230916A023CA32BA38FBF70
:103090008BA19CA1892B09F007CF8FB7F894709270
:1030A000690210926A028FBF87E08093FF018091CE
:1030B000A7028111BCCEE090A202EE2009F4B7CEA7
:1030C00080917102909172022FB7F89440916E0234
:1030D00050916F0258A34F8F2FBF2F8D38A1821BA5
:1030E000930B2091930230919402A9014C5F5F4FA2
:1030F0002F5632402D3131050CF070C4509394029C
:1031000040939302C0909302D0909402D6011396FC
:103110009C938E9312970D911C912091990230915E
:103120009A02C216D30609F4B3C5E0919902F09150
:103130009A02FE2C49E952E0BA010EC0DB016D9102
:103140007C91B2E0E539FB0709F4A4C4F12C30818D
:103150002181AF01E32FF22F20813181C216D306E6
:1031600009F464C4228133812817390758F4DA013D
:103170008D919C91D6018D939C93DA01CD92DC9236
:1031800080E090E0F110DACF22E0E539F20709F4AF
:1031900081C4FE2CDCCFE0916500E3FF20CCE3B7D7
:1031A000E17FEC60E3BF1ECC8091A1028D7F09F42A
:1031B00003C580919F029091A0022FB7F89490933D
:1031C0006F0280936E022FBF909372028093710200
:1031D0005F9814CDFFB6F8942091690230916A028D
:1031E0003CA72BA7FFBE2BA53CA5232B09F072CA39
:1031F0002FB7F89450936A02409369022FBF6093EF
:10320000FF018093A60223B7217F23BF3FB7F89425
:10321000209164002F7D209364003FBF2091A40281
:103220003091A502232B09F46AC0FFB6F8942091CF
:10323000A4023091A502FFBE2937310508F011C262
:10324000B7BD2FB7F894A89A16BCE5BD2FBF42CAE8
:10325000FFB6F8942091690230916A0238A72FA333
:10326000FFBE2FA138A5232B09F034CA8FB7F894DD
:1032700026E030E030936A02209369028FBF80918C
:1032800000018111E6C188E08093FF012C988091B4
:10329000FF0102C9893008F00FC1853008F458C415
:1032A00080915F02823009F497CD9FB7F8948091A6
:1032B0006500877F80936500B0929900A092980086
:1032C000C09A10929500109294009FBF9FB7F894F7
:1032D00080916400877F80936400509289004092BF
:1032E0008800F09280009FBF9FB7F8948091910072
:1032F0008560809391009FBFD0925F026DCDFFB635
:10330000F8942091A4023091A502FFBE293731051F
:1033100008F0A9C107BD95CFA92F61E091110BCB92
:1033200009CB80915F02833009F4C4C86FB7F89469
:1033300080916500877F80936500B0929900A0928C
:103340009800C09A10929500109294006FBF6FB7CA
:10335000F89480916400877F809364009092890044
:1033600080928800E09380006FBF6FB7F8948091DF
:1033700091008560809391006FBF50935F029AC85F
:1033800080916402811196C880916302882321F0A4
:1033900080916402882391F180916602882371F103
:1033A0004093630276CC64E0FFB7F8945093B30285
:1033B0004093B202E0916500E77FE09365003093AF
:1033C000990020939800C09A109295001092940052
:1033D000E0919100E560E0939100FFBFA1E0ABCAEE
:1033E00080916B0080FF0ACC9FB7F89480916B00AE
:1033F0008E7F80936B009FBFD89A00CC0C945A129A
:103400002FB7F8948091A4029091A5022FBF89371D
:10341000910508F009C286E287BD0C94DC11809109
:10342000A1028D7F09F49BC180919F029091A0021F
:103430002FB7F89490936F0280936E022FBF9093F2
:103440007202809371028091A1028D7F09F47BC189
:1034500080919F029091A002803C984010F00C94C3
:1034600049122FB7F89480919F029091A002880F83
:10347000991F9093A00280939F022FBF2C98809158
:10348000FF010C944C1263E08FCF80916402811194
:10349000A3CC80916302882329F080916402882361
:1034A00009F4BCC380916602882329F0509363021B
:1034B00040CD81118AC290CC80915F02833009F4A3
:1034C0008BCC9FB7F89480916500877F80936500CF
:1034D000B0929900A0929800C09A10929500109214
:1034E00094009FBF9FB7F89480916400877F80937A
:1034F00064009092890080928800F09280009FBFC3
:103500009FB7F894809191008560809391009FBF50
:10351000E0925F0261CC8FB7F894209169023091FC
:103520006A023A8329838FBF89819A81892B09F0A6
:1035300065CB1FB7F894E0916702F091680284812F
:1035400095818B59914009F4B2C863E170E187E637
:1035500092E00E949B011FBF51CB9FB7F8948091CE
:103560006B00816080936B009FBF77C98FB7F89421
:1035700020915202309153023A8B298B10925202C1
:10358000109253028FBF89899A8920914602309107
:103590004702A9014C5F5F4F225032402D33310565
:1035A0000CF0FDC150934702409346026A01D601D8
:1035B00013969C938E9312970C911196FC90E09128
:1035C0004C02F0914D02CE16DF0609F419C311E04A
:1035D0004CE452E0BA010DC0DB016D917C91B2E088
:1035E000E834FB0731F110E030812181AF01E32F96
:1035F000F22F20813181C216D306C1F0228133819E
:103600002817390758F4DA018D919C91D6018D93D2
:103610009C93DA01CD92DC9280E090E01111DCCF36
:1036200022E0E834F20729F011E0DECF0083F182D6
:10363000E5CFDB0112968D919C919093510280937E
:1036400050020C94411390E080E00E94092062E057
:10365000ABCE84E08093FF012C988091FF010C9405
:103660004C1217BDEECDD7BCECCD882309F4C6CEE5
:10367000409363020C945A122930A0F5253008F4C7
:10368000CEC220915F02223011F40C949F113FB7FB
:10369000F89420916500277F20936500B0929900EF
:1036A000A0929800C09A10929500109294003FBF8B
:1036B0003FB7F89420916400277F209364005092D4
:1036C000890040928800C09280003FBF3FB7F894C5
:1036D000209191002560209391003FBF60935F028D
:1036E0000C949F1120915F02233011F40C949F11D0
:1036F0003FB7F89420916500277F20936500B09232
:103700009900A0929800C09A10929500109294008F
:103710003FBF3FB7F89420916400277F2093640057
:103720009092890080928800C09280003FBF3FB78E
:10373000F894209191002560209391003FBFF09371
:103740005F020C949F118FB7F89420919F023091E3
:10375000A00238AF2FAB8FBF8FA998AD7DCE8FB7AA
:10376000F89420919F023091A0023EAB2DAB8FBF09
:103770008DA99EA95DCE8FB7F89420919F023091BC
:10378000A0023EA72DA78FBF8DA59EA50C943E122B
:103790002FB7F8948091A4029091A5022FBF89378A
:1037A000910508F004C186E287BD0C949712E330BE
:1037B00008F4B2CD60915F02613009F441C0FFB7F7
:1037C000F894E0916500E77FE0936500B09299007E
:1037D000A0929800C09A1092950010929400FFBF9A
:1037E000FFB7F894E0916400E77FE0936400B7E9E5
:1037F0002B2EB5E03B2E3092890020928800D0928B
:103800008000FFBFFFB7F894E0919100E560E0937E
:103810009100FFBFF0925F0261E091118CC88AC8ED
:103820008FE287BD0C94DC1183E287BD0C94DC1120
:103830001092A70288E08093FF0110920502FECA51
:10384000911179C877C881C92FB7F8948091A402E3
:103850009091A5022FBF8937910508F4B9C083E282
:1038600087BD8FB7F894A89A16BC9DE095BD8FBF11
:1038700082E08093A1028091A302882309F413C1FE
:1038800030E020E034C080919F029091A0028497A4
:1038900008F48ACC80917102909172024FB7F8942B
:1038A00060916E0270916F027E8B6D8B4FBF4D8960
:1038B0005E89841B950B2817390708F075CC809119
:1038C000A1028D7F09F4A6C080919F029091A00271
:1038D000280F391F4FB7F89480919F029091A00252
:1038E000969587959093A00280939F024FBF8091F9
:1038F000A1028D7F41F68FB7F89440919F025091BD
:10390000A002588F4F8B8FBF8F89988DC0CF833087
:1039100010F40C945A1280915F02813011F40C94CF
:103920005A126FB7F89480916500877F8093650085
:10393000B0929900A0929800C09A109295001092AF
:1039400094006FBF6FB7F89480916400877F809375
:103950006400A7E9EA2EA5E0FA2EF0928900E09231
:103960008800E09380006FBF6FB7F894809191005A
:103970008560809391006FBF40935F020C945A1250
:103980002091640221110C949F1120916302222343
:1039900061F120916402211128C00C949F1126E04E
:1039A00032E03093470220934602690100CE83E261
:1039B00087BD0C94971286E287BDCDC98FE287BD83
:1039C0000C9497128FE287BDC6C95093630204CA54
:1039D00086E287BD46CF8FE287BD43CF23E732E043
:1039E00030939402209393028DCB20916602222380
:1039F000A1F2809363020C94AD138FB7F8944091B9
:103A00009F025091A0025C874B878FBF8B859C855E
:103A10000C94CF128FB7F89440919F025091A0025E
:103A20005A8F498F8FBF898D9A8D52CF1183008312
:103A300099CB8091A1028D7F09F47EC080919F0275
:103A40009091A0022FB7F89490936F0280936E022A
:103A50002FBF90937202809371028091A1028D7F9B
:103A600009F451C080919F029091A002803C98403F
:103A700010F00C9405132FB7F89480919F02909149
:103A8000A002880F991F9093A00280939F022FBFDE
:103A90000C940513DB0112968D919C9190939E02DC
:103AA00080939D02C4C98091A1028D7F09F49CC0BE
:103AB00080919F029091A0022FB7F89490936F028B
:103AC00080936E022FBF9093720280937102809157
:103AD000A1028D7F09F47CC080919F029091A00289
:103AE000803C984008F074CB2FB7F89480919F02E7
:103AF0009091A002880F991F9093A00280939F023B
:103B00002FBF5F987BC88FB7F89420919F023091A8
:103B1000A002388B2F878FBF8F859889A7CF8FB74B
:103B2000F89420919F023091A0023E832D838FBF95
:103B30008D819E810C94FA128FB7F89420919F0288
:103B40003091A0023E872D878FBF8D859E857ACFCD
:103B5000833008F441C980915F02813009F43CC987
:103B60009FB7F89480916500877F80936500B0923D
:103B70009900A0929800C09A10929500109294001B
:103B80009FBF9FB7F89480916400877F8093640003
:103B900067E975E07093890060938800F092800077
:103BA0009FBF9FB7F89480919100856080939100AA
:103BB0009FBF50935F0210C98FB7F89420919F0266
:103BC0003091A0023C8B2B8B8FBF8B899C89F5CACF
:103BD0008FB7F89420919F023091A0023E8F2D8FD5
:103BE0008FBF8D8D9E8D7CCF8FB7F89420919F02D3
:103BF0003091A0023C8F2B8F8FBF8B8D9C8D5CCF23
:103C000000934C02F0924D02E02FFF2DE0CC2223D6
:103C100009F4C3CE809363020C949F11DDC8233056
:103C200010F40C949F1120915F02213011F40C9438
:103C30009F113FB7F89420916500277F209365007E
:103C4000B0929900A0929800C09A1092950010929C
:103C500094003FBF3FB7F89420916400277F2093E2
:103C6000640027E9E22E25E0F22EF0928900E0922E
:103C70008800C09280003FBF3FB7F8942091910028
:103C80002560209391003FBF80935F020C949F11A9
:103C900010939A020093990248CA0F931F93CF93EF
:103CA00084EB92E09093B3028093B2021092B5023B
:103CB0001092B4021092B6029FB7F89480916400FB
:103CC000877F809364001092800089E08093810058
:103CD00080916400886080936400259A2D9880917B
:103CE0006500877F809365001092900082E080934A
:103CF00071002FEF3FEF30939900209398008DE0F3
:103D00008093910080916500886080936500C09ADF
:103D10009FBF89B18170C1E08C2710925C028093B3
:103D20005D0280935E028EE591E090935B0280934A
:103D30005A02509869B161706C278AE592E00E943E
:103D40004B1189B183FB882780F98C271092570289
:103D500080935802809359028AE491E0909356022E
:103D600080935502539869B163FB662760F96C270D
:103D700085E592E00E944B1189B182FB882780F98A
:103D80008C2710920202809303028093040282E245
:103D900091E09093010280930002529869B162FB16
:103DA000662760F96C2780E092E00E944B1186E361
:103DB00091E09093010280930002C0930502E6E037
:103DC000F2E080E4DF011D928A95E9F7F093470263
:103DD000E0934602109249021092480210924B0260
:103DE00010924A0288E492E090934D0280934C0234
:103DF00010924F0210924E021092510210925002F5
:103E0000109253021092520289B1869581708C27CC
:103E10001092AC021092AB0202EA11E01093AA02D7
:103E20000093A9029FB7F8949FBF8093AD0280933F
:103E3000AE028EE091E09093AA028093A90251987D
:103E400089B186958170C8278091AD028C1761F089
:103E50006C2F89EA92E00E943601BC0189EA92E067
:103E60000E94A501C093AD0282EB91E09093AA025B
:103E70008093A9028091AE0291E089278093B102DC
:103E800010926F0210926E0210936D0200936C02FA
:103E90008FB7F8948FBF109270022AE831E0309308
:103EA0006D0220936C02E3E7F2E080E2DF011D92F5
:103EB0008A95E9F7F0939402E093930210929602A8
:103EC00010929502109298021092970225E932E022
:103ED00030939A022093990210929C0210929B02B6
:103EE00010929E0210929D0223E230E03093A002D5
:103EF00020939F021092A1029093A2029093A3029A
:103F0000269A2E9822E731E030936D0220936C02BE
:103F10001092A5021092A4022FEF2093A6023FB7A1
:103F2000F8948AE682BF80E189BD809165008F7E2A
:103F30008093650081E28093C0001092BF001092D0
:103F4000D0001092A5021092A40282E08093BF00DC
:103F50008FE78093D1001092C1003FBF8091640031
:103F60008F7D8093640083E084BD80916E008160CA
:103F700080936E0088E085BDA89A16BC809164008D
:103F800080628093640010926A021092690210931A
:103F90006802009367028FB7F8948FBF42EA51E03E
:103FA000509368024093670220936B0226E031E051
:103FB00030936102209360021092620210926302B9
:103FC00010926602209883B18170892780936502E0
:103FD0008093640286E091E0909361028093600296
:103FE000CF911F910F910895A29FB001B39FC0017F
:103FF000A39F700D811D1124911DB29F700D811D15
:104000001124911D0895EE0FFF1F0590F491E02DEE
:1040100009949FB7F8948091640080628093640053
:104020009FBF1092C1002E989FB7F89480916500B1
:1040300080618093650089B58D7F89BD9FBF5C9845
:104040002C985F989FB7F89420ED31E03093B3023D
:104050002093B20280916500877F809365002EE0F7
:1040600030E03093990020939800C09A1092950008
:1040700010929400809191008560809391009FBF81
:104080008091640083FFFCCF8091650083FFF8CFAF
:10409000F89483B7817F846083BF83B7816083BFD7
:0640A0008895F894FFCFA3
:1040A6000201000000003E08C306000000005B0895
:1040B600BF069B019F01A5011008B7067D070000FA
:1040C60000009B060701F1000401E100F4009506DB
:1040D600AE07000000000B010701F1000401E1003A
:1040E600F4009506AE07000000009B060701F100EC
:1040F6000401E100F4008F06DF07000000009B06C4
:104106000701F1000401E100F4008F064F070000EB
:1041160000005B0870089B019F01C7011008C001E1
:10412600CE0603073807000000005B0870089B01F5
:104136009F01C701100835083C083A08AA08000084
:1041460000005B08F1099B019F01A5011008000012
:1041560000005B0845019B019F01A501100836017F
:104166007D075A0255020002A9026C02670260022C
:10417600FB044BF30332FB044BF30332FB044BF318
:104186000332FB044BF30332000000F303E1FB04AC
:0E419600E1000000FB04E1F303E10000000083
:02000004008278
:03000000DFD8F84E
:00000001FF
