:100000000C9457000C94390B0C94750B0C94BB0B8F
:100010000C94FA0B0C94DF000C94DF000C94DF00BE
:100020000C94DF000C94380C0C94DF000C94DF006F
:100030000C94AE0C0C94DF000C94DF000C94DF00E9
:100040000C94DF000C94DF000C94DF000C94DF00B4
:100050000C94DF000C94DF000C94DF000C94EF0C88
:100060000C94DF000C94DF000C94DF000C94DF0094
:100070000C94DF000C94DF000C94DF000C94DF0084
:100080000C94A80D0C94DF000C94DF000C94DF009E
:100090000C94DF000C94DF000C94DF000C94DF0064
:1000A0000C94DF000C94DF000C94DF00431914BEA5
:1000B00080E885BF85BF549A5C98249A2C98579AFB
:1000C0005F9884B1817784B99FB7F89484B18177C0
:1000D00084B985B18E6885B99FBF8AB18F798AB995
:1000E0009FB7F8948AB18F798AB98BB180668BB942
:1000F0009FBF87B117B89FB7F89487B117B888B179
:100100008FEF88B99FBF9DB11DB89FB7F8942DB1EF
:100110001DB82EB18EB99FBF90B310BA9FB7F89497
:1001200020B310BA21B381BB9FBFEAE7F0E0808122
:100130008F77808380B7806880BF8DEA809364006A
:1001400089E98093650011241FBECFEFDAE0DEBF9E
:10015000CDBF12E0A0E0B1E0E0EFF6E302C0059011
:100160000D92A630B107D9F722E0A6E0B2E001C0B7
:100170001D92A03CB207E1F710E0C7E5D0E004C053
:100180002197FE010E94F91AC635D107C9F7F894E4
:10019000A895E0E6F0E088E180838BE4808381E04D
:1001A000809368001BBA80936B0085E5809369009B
:1001B0001CBA8FE08DBB0E94DE0E0C94FF1A0C94CB
:1001C0000000DC01ED91FC9111970480F581E02D98
:1001D00080E0E13FF80719F412966C930895CD0181
:1001E0000994FC0162830895DC01ED91FC91119763
:1001F0000680F781E02D81E0E430F80719F41296CB
:100200008C910895CD010994FC0182810895FC012F
:10021000838184830895CF93DF93EC018A818823BF
:1002200059F081508A838C81882319F08D8188232D
:1002300079F0DF91CF910895E881F9810280F3810F
:10024000E02D21E0E730F20771F48B818C83EBCF56
:10025000CE5ADF4F888199818F3F980751F30196DD
:1002600099838883E6CFCE010995DDCFFC01808597
:10027000823041F0662319F083E090E008958AE02F
:1002800090E0089583E190E10895FC0184819581D7
:10029000891709F445C0811124C081E080878CE56D
:1002A00095E09383828383EF91E09093BC028093E7
:1002B000BB0280916500877F809365008EE090E0AF
:1002C0009093990080939800C09A10929500109294
:1002D0009400809191008560809391008481858352
:1002E000089510868CEF91E09093BC028093BB023E
:1002F00080916500877F809365008EE090E0909309
:10030000990080939800C09A1092950010929400E2
:100310008091910085608093910084818583089508
:100320008581811105C08085813011F482E080874C
:100330000895FC01828193810895FC017383628397
:100340000895CF93DC01CFB7F894ED91FC9111970C
:100350000480F581E02D81E0ED39F80741F4129633
:100360006C93129713967C93CFBFCF910895CD01D4
:100370000995CFBFCF910895CF93DF9300D000D0E0
:1003800000D0CDB7DEB78091BA02823009F43FC009
:10039000833059F1813051F081E00F900F900F9030
:1003A0000F900F900F90DF91CF9108959091B90227
:1003B000911194C09091B5029827209101012130AC
:1003C00009F489C0992349F08093B9028093AF0260
:1003D0008091AE02882309F481C08091AD02882308
:1003E00009F4D0C01092AD0208C08091AD028230F5
:1003F00009F478C082E08093AD028FB7F89426E0CC
:1004000030E03093AC022093AB028FBFC5CF809118
:10041000B90281112EC08091B50291E08927209107
:100420000101213021F1882341F09093B90290938A
:10043000AF028091AE028823E1F0223009F49FC020
:10044000809100012EE2829FC0011124019620912B
:10045000AD02213009F4B7C021E02093AD022FB7DF
:10046000F8949093AC028093AB022FBF95CF882372
:1004700039F383E08093BA028091A8028F3F09F498
:100480008BCF8FEF8093A80283B7817F83BF9FB705
:10049000F894809164008F7D809364009FBF809169
:1004A000A6029091A702892B09F452C02FB7F894A5
:1004B0008091A6029091A7022FBF8937910508F479
:1004C00054C08FE287BD8FB7F894A89A16BC9DE000
:1004D00095BD8FBF61CF992309F47FCF83E08093CF
:1004E000BA025ACF8FB7F8942091AB023091AC0288
:1004F0003A8329838FBF89819A81892B09F04CCF58
:100500008FB7F89426E030E03093AC022093AB0232
:100510008FBF809101018130B1F08091B9028111CA
:1005200012C08091B50291E089272091010121300C
:1005300011F1882311F19093B9029093AF02809149
:10054000AE0281111AC088E08093BA0280E025CF04
:100550002FB7F8948091A6029091A7022FBF8937F8
:10056000910530F486E287BDAECF83E387BDABCF84
:1005700083E287BDA8CF8111E6CF85E0E5CF88E192
:1005800090E065CF8FB7F8942091AB023091AC0228
:100590003E832D838FBF8D819E81892B09F0FCCEF8
:1005A0008FB7F89426E030E03093AC022093AB0292
:1005B0008FBF82E08093BA028091A802813009F453
:1005C000EBCE81E05FCF3FB7F8944091AB02509102
:1005D000AC025C834B833FBF4B815C81452B09F0B0
:1005E000DBCE3FB7F8949093AC028093AB023FBF51
:1005F00083E08093BA02209300018091A8028F3F8C
:1006000009F4CACE3ECFFC0192AD81E0913009F0F1
:1006100080E00895FC0181E082AF83B7817F83BFD2
:100620009FB7F894809164008F7D809364009FBF92
:1006300080AD91AD892B59F02FB7F89480AD91AD75
:100640002FBF89379105C0F483E387BD0AC02FB758
:10065000F89480AD91AD2FBF8937910550F083E2BA
:1006600087BD8FB7F894A89A16BC9DE095BD8FBF43
:10067000089586E287BDF5CF8FE287BDF2CFFC01FA
:100680008FEF82AF83B7817F83BF9FB7F89480914C
:1006900064008F7D809364009FBF80AD91AD892BF6
:1006A00059F02FB7F89480AD91AD2FBF89379105E0
:1006B000C0F483E387BD0AC02FB7F89480AD91AD35
:1006C0002FBF8937910550F083E287BD8FB7F8942B
:1006D000A89A16BC9DE095BD8FBF089586E287BDA0
:1006E000F5CF8FE287BDF2CFFF920F931F93CF9389
:1006F000DF93EC018B01FFB6F894E881F981048067
:10070000F581E02D81E0ED39F80759F46A831B8308
:10071000FFBE0D831E83DF91CF911F910F91FF903C
:100720000895CE010995F4CF662311F086E008956F
:1007300083E00895662311F080E0089583E0089532
:10074000DC0112968C911297882321F08150129629
:100750008C930895ED91FC9111970280F381E02D27
:1007600081E0E730F80731F413968C9113971496D3
:100770008C930895CD010994662319F083E090E0ED
:1007800008958AE090E00895FC01848185830895AE
:10079000FC018381882319F08481882311F08281F0
:1007A000089580E00895FC0182AD8F3F09F408951B
:1007B0008FEF82AF83B7817F83BF9FB7F89480911B
:1007C00064008F7D809364009FBF80AD91AD892BC5
:1007D00059F02FB7F89480AD91AD2FBF89379105AF
:1007E000C0F483E387BD0AC02FB7F89480AD91AD04
:1007F0002FBF8937910550F083E287BD8FB7F894FA
:10080000A89A16BC9DE095BD8FBF089586E287BD6E
:10081000F5CF8FE287BDF2CFFC0182AD813009F4C4
:10082000089581E082AF83B7817F83BF9FB7F8943B
:10083000809164008F7D809364009FBF80AD91ADF7
:10084000892B59F02FB7F89480AD91AD2FBF893720
:100850009105C0F483E387BD0AC02FB7F89480AD3B
:1008600091AD2FBF8937910550F083E287BD8FB7D7
:10087000F894A89A16BC9DE095BD8FBF089586E2B6
:1008800087BDF5CF8FE287BDF2CFEF92FF920F9336
:100890001F93CF938C01C9B1C095C170DC01139631
:1008A0008C9113978C17A1F0ED91FC91E480F58069
:1008B0000484F585E02D6C2FC8010995B1EFEB1686
:1008C000B0E0FB0659F4F8018283D8011396CC936B
:1008D000CF911F910F91FF90EF900895682FC8015D
:1008E000F7010995F2CFEF92FF920F931F93CF93E9
:1008F0008C01C9B1C695C17081E0C827D801149692
:100900008C9114978C17A9F0ED91FC91E480F580FF
:100910000484F585E02D6C2FC8010995BDE9EB161F
:10092000B1E0FB0661F4F80182839383D801149649
:10093000CC93CF911F910F91FF90EF900895BC0140
:10094000C801F7010995F2CFEF92FF920F931F9321
:10095000CF938C01C9B1C2FBCC27C0F981E0C82775
:10096000D80113968C9113978C17A1F0ED91FC91FF
:10097000E480F5800484F585E02D6C2FC80109958D
:10098000B1EFEB16B0E0FB0659F4F8018283D80111
:100990001396CC93CF911F910F91FF90EF900895F4
:1009A000682FC801F7010995F2CFEF92FF920F93DC
:1009B0001F93CF938C01C9B1C3FBCC27C0F981E051
:1009C000C827D80113968C9113978C17A1F0ED913D
:1009D000FC91E480F5800484F585E02D6C2FC8013E
:1009E0000995B1EFEB16B0E0FB0659F4F8018283EC
:1009F000D8011396CC93CF911F910F91FF90EF9058
:100A00000895682FC801F7010995F2CFDC01ED9137
:100A1000FC9111970488F589E02D83E0E33DF80708
:100A2000A9F5DA968C91DA978F3F41F409B400FC6E
:100A3000FDCF8091640085FFF9CF08958FEFDA969E
:100A40008C93DA9783B7817F83BF9FB7F8948091A7
:100A500064008F7D809364009FBFD8968D919C9198
:100A6000D997892BB1F42FB7F894D8968D919C9192
:100A70002FBF89379105C8F486E287BD8FB7F894F8
:100A8000A89A16BC9DE095BD8FBFD0CFCD0109952A
:100A9000CDCF2FB7F894D8968D919C912FBF8937E1
:100AA000910530F483E387BDE9CF83E287BDE6CFCC
:100AB0008FE287BDE3CF1F93CF93DF9300D0CDB7F5
:100AC000DEB7DC011FB7F894ED91FC911197068019
:100AD000F781E02D81E0E939F80771F412962D9144
:100AE0003C913A8329831FBF89819A810F900F908F
:100AF000DF91CF911F910895CD0109959C01F1CF10
:100B000083B186FB882780F908952E9808952E9A40
:100B10000895FC0180916B0080FF0AC084818111DF
:100B20000FC08381882359F01282168213820895A0
:100B30008381882319F084818823B1F31282089578
:100B400082818F3FE1F38F5F82830895DC011296EB
:100B50008D919C911397009731F0019713969C9378
:100B60008E9312970895ED91FC9111970280F38175
:100B7000E02DCD010994DC01D5968C91D59782307A
:100B800029F0833029F1882321F00895D5961C920D
:100B9000D597D3966D917C91D49764327105A8F363
:100BA000D7968C91D797811117C081E0D7968C93F7
:100BB000D797ED91FC9111970480F581E02D81E0AC
:100BC000ED39F80781F413967C936E93129708958C
:100BD00081E0D5968C93089576956795D4967C930D
:100BE0006E93D397E6CFCD010994DC01ED91FC9192
:100BF0000684F785E02D0994DC01ED91FC910088D5
:100C0000F189E02D0994BF92CF92DF92EF92FF928B
:100C10000F931F93CF93DF93CDB7DEB72C970FB60B
:100C2000F894DEBF0FBECDBF8C01DC01ED91FC91CD
:100C30000484F585E02D0995882309F48DC0D80139
:100C4000ED91FC910088F189E02DC801099582E0C1
:100C5000F80185ABD80187A9882309F48DC0C12C80
:100C6000D12C3AC0D3968D919C91849708F448C0BA
:100C7000F801E580F680BFB6F8940190F081E02D90
:100C80000680F781E02DB1E0E939FB0709F0C4C027
:100C9000F801228133813C832B83BFBE8B819C81F1
:100CA000E81AF90ACE14DF0458F5D801D5968C91CC
:100CB0008D7F882309F4A5C0D801D3968D919C918E
:100CC000C80ED91E2FB7F894F80183A994A9969558
:100CD000879594AB83AB2FBFD801D5968C91D597D0
:100CE0008D7F8111BFCF8FB7F894F80123A934A964
:100CF0003E832D838FBF8D819E81849708F0B8CF6E
:100D0000D801ED91FC9111970084F185E02DD596E5
:100D10008C91D5978D7F882309F482C0D396ED906E
:100D2000FC90B3E0E437FB0709F09AC0DFB6F89413
:100D3000D801ED91FC910480F581E02DB1E0ED3911
:100D4000FB0709F0A3C0F801F382E282DFBED801FD
:100D50001696FC92EE9215972C960FB6F894DEBF7D
:100D60000FBECDBFDF91CF911F910F91FF90EF90FC
:100D7000DF90CF90BF9008950190F081E02D008426
:100D8000F185E02DD5968C91D5978D7F882309F438
:100D900052C0D396ED90FC90B3E0E437FB0709F026
:100DA00071C0DFB6F894D801ED91FC910480F58113
:100DB000E02DB1E0ED39FB0709F06CC0F801F382DA
:100DC000E282DFBED8011696FC92EE921597F801EA
:100DD00085A98D7F8823D1F183A994A9803C98406F
:100DE00008F0BACF2FB7F894D801D3968D919C9183
:100DF000D497880F991FD4969C938E93D3972FBF27
:100E0000ABCF8FB7F894F80123A934A938872F8383
:100E10008FBF8F81988554CFC80109959C013BCF26
:100E20008FB7F894D3962D913C913A8329838FBF45
:100E3000E980FA8076CF8FB7F894D3962D913C91C4
:100E40003A8729878FBFE984FA84A6CF8FB7F894B1
:100E500023A934A93C872B878FBF8B859C85BECF68
:100E6000B701C8012C960FB6F894DEBF0FBECDBFF8
:100E7000DF91CF911F910F91FF90EF90DF90CF9076
:100E8000BF900994B701C8010995A1CFB701C80166
:100E900009955CCFB701C801099593CF0895CF9309
:100EA000DF9300D000D0CDB7DEB7FC0180916502A2
:100EB000882381F080916002882331F080910B02B9
:100EC000811131C193E00BC080910B02811132C1BD
:100ED00092E005C080916002811134C090E090934F
:100EE0005B024091B50280916A02882329F08091CB
:100EF0006B02882309F463C08091690220916B0220
:100F0000211124C020916A02222329F020916B0232
:100F1000222309F43FC120916D02882309F45EC0A9
:100F200031E030936A02893008F064C0853008F0FF
:100F300006C1833008F032C1211156C010926602FA
:100F400050E07AC010925B0290E0CBCF893008F479
:100F5000E0C080916602833009F4E3C02FB7F894B3
:100F600080916500877F8093650064E37CE07093E7
:100F7000990060939800C09A109295001092940086
:100F80002FBF2FB7F89480916400877F809364000F
:100F900066E476E0709389006093880080E4809333
:100FA00080002FBF2FB7F8948091910085608093C7
:100FB00091002FBF83E08093660251E03DC0809195
:100FC0006B028111AEC080916A02882329F0809162
:100FD0006B02882309F468C120916D02222309F471
:100FE000DCC081E080936A028481882309F445C1D2
:100FF00052E0AAC02FB7F89468ED71E07093BC027C
:101000006093BB0280916500877F809365006EE0EE
:1010100070E07093990060939800C09A10929500C8
:1010200010929400809191008560809391002FBF71
:1010300084818327848355E0609100018FB7F89401
:101040002091AB023091AC023C832B838FBF2B816C
:101050003C81232B29F121E06230D8F18481811178
:1010600018C05130C1F1933041F0992309F48BC07D
:101070009091AF02992309F486C04111B6C08091C6
:10108000AE02882341F181E09091A302911101C049
:1010900080E00F900F900F900F90DF91CF91089507
:1010A0008381863000F520910101222309F445C097
:1010B00023E0209301018F5F83838FB7F89423E1AE
:1010C00030E13093AC022093AB028FBF21E062305D
:1010D00028F620E0C3CF81E00F900F900F900F9083
:1010E000DF91CF910895411112C0809100018530A8
:1010F00008F084E08F5F8093000113828FB7F8942B
:1011000023E130E13093AC022093AB028FBF21E0AA
:10111000A5CF853008F4C9C080916602823009F0FD
:101120007CC051E089CF809157029091580200977E
:1011300009F0A7C090915B02D4CE22E0BACF84819F
:10114000882309F460C054E02FB7F89468ED71E08B
:101150007093BC026093BB0280916500877F80938F
:1011600065006EE070E07093990060939800C09AFB
:101170001092950010929400809191008560809368
:1011800091002FBF59CF222309F4A5CF411135C0BB
:10119000822F7FCF20E08111C3CED0CE84818111F8
:1011A0003AC053E0992309F447CF41110DC0209173
:1011B000B5028091B402281739F08FB7F8941092D5
:1011C000B3021092B2028FBF933019F081E0809386
:1011D000AF021092A3028FB7F89423E230E030936D
:1011E000A2022093A1028FBF27CF9091A30299233F
:1011F00009F44FCF222309F455C091E090930101E7
:101200001092AE0246CF54E0992309F415CF3093E3
:10121000AE0254E0CACF53E097CF2FB7F894809135
:101220006500877F8093650064E37CE0709399009C
:1012300060939800C09A10929500109294002FBF6E
:101240002FB7F89480916400877F809364006CEEE0
:1012500075E0709389006093880080E4809380003B
:101260002FBF2FB7F89480919100856080939100F3
:101270002FBF82E08093660254CF52E09111A4CF39
:10128000DBCE2FB7F8944091590250915A025A83FD
:1012900049832FBF29813A812817390708F44ACF9B
:1012A00093E01DCE842FF5CE49CE833008F439CF9C
:1012B00080916602813009F434CF2FB7F894809181
:1012C0006500877F8093650064E37CE070939900FC
:1012D00060939800C09A10929500109294002FBFCE
:1012E0002FB7F89480916400877F8093640067E94A
:1012F00075E0709389006093880080E4809380009B
:101300002FBF2FB7F8948091910085608093910052
:101310002FBF81E08093660251E08ECECF93DF93A2
:10132000CDB7DEB728970FB6F894DEBF0FBECDBF9E
:101330008091BA02853009F466C0863009F442C053
:10134000843051F081E028960FB6F894DEBF0FBECE
:10135000CDBFDF91CF91089580916502880F909164
:101360006002992309F45FC0882309F455C0809175
:101370000B028111BDC083E080935B028091B902B2
:1013800081114CC08091B50281110AC081E0809327
:10139000B9028093AF028091AE02882309F43EC067
:1013A0008091AD02833009F4DFC083E08093AD0209
:1013B0008FB7F89426E030E03093AC022093AB0274
:1013C0008FBFC0CF8091AD02843009F475C084E036
:1013D0008093AD028FB7F8942AE030E03093AC02EE
:1013E0002093AB028FBF8091B90281117FC08091A1
:1013F000B5028111A7CF81E08093B9028093AF023B
:101400008091AE02A0CF80916502880F909160021A
:10141000911113C08111A0C010925B022C9A86E03A
:101420008093BA028FCF8823B9F380910B02811188
:1014300074C082E080935B02A1CF882369F380911E
:101440000B0281116FC083E080935B028091B9022F
:101450008111E4CF8091B502811109C081E08093B0
:10146000B9028093AF028091AE028823B9F28091D5
:10147000A302813009F4E0C080910B02882309F4B3
:1014800061CF1092A40280919F029091A0029C01D2
:10149000215031092B31384108F0D2C0880F991FF3
:1014A0002FB7F89490937102809370022FBF90939E
:1014B00074028093730246CF8FB7F8942091AB02E9
:1014C0003091AC0238872F838FBF8F819885892B0D
:1014D00009F089CF8FB7F8942AE030E03093AC025E
:1014E0002093AB028FBF87E08093BA0280E02BCFBE
:1014F0008091570290915802009779F02FB7F89495
:101500004091590250915A025C834B832FBF2B812B
:101510003C812817390708F02ECF80915B0281119A
:101520002DCF7CCF8091570290915802009779F08F
:101530002FB7F8944091590250915A025E834D831F
:101540002FBF2D813E812817390708F07CCF80916D
:101550005B0281117BCF62CF80910B028111F7CFAB
:1015600082E080935B0272CF8FB7F8942091AB0238
:101570003091AC023A8329838FBF89819A81892B6C
:1015800009F0E0CE8FB7F89426E030E03093AC025B
:101590002093AB028FBF8091AF0291E089278093A7
:1015A000A4028091A802813009F441C09093A8025E
:1015B00083B7817F83BF9FB7F894809164008F7D4C
:1015C000809364009FBF8091A6029091A702892B0F
:1015D000D1F12FB7F8948091A6029091A7022FBF66
:1015E0008937910508F03FC083E387BD8FB7F89432
:1015F000A89A16BC9DE095BD8FBF83E08093A3029F
:1016000080919F029091A0029C01215031092B31C1
:10161000384130F5880F991F2FB7F89490937102D5
:10162000809370022FBF90937402809373025F9A2D
:1016300085E08093BA0286CE80E090E00E94FF1A97
:1016400088E390E32DCF2FB7F8948091A602909174
:10165000A7022FBF8937910548F486E287BDC6CF20
:1016600088E390E3D9CF8FE287BDC0CF83E287BD07
:10167000BDCF1F920F920FB60F9211242F933F935D
:101680004F935F936F937F938F939F93AF93BF938A
:10169000CF93EF93FF938BE480936000C9B1C09523
:1016A000C170809164028C1749F063E0C1111BC0C6
:1016B00081E692E00E94F100C09364028BE4809383
:1016C0006000FF91EF91CF91BF91AF919F918F916A
:1016D0007F916F915F914F913F912F910F900FBE2E
:1016E0000F901F90189566E0E3CF1F920F920FB6F0
:1016F0000F9211242F933F934F935F936F937F9398
:101700008F939F93AF93BF93CF93EF93FF938BE40C
:101710008093600089B18270C1E08111C0E0909136
:10172000B4029C1781F09091B80263E170E19230AD
:1017300021F063E070E081111BC080EB92E00E9419
:101740009D01C093B4028BE480936000FF91EF9100
:10175000CF91BF91AF919F918F917F916F915F9149
:101760004F913F912F910F900FBE0F901F901895A2
:101770006AE070E0E2CF1F920F920FB60F92112431
:101780002F933F934F935F936F937F938F939F9389
:10179000AF93BF93CF93EF93FF938BE4809360005D
:1017A00069B16470C1E06111C0E080910A028C17D8
:1017B00041F061111DC087E092E00E94F100C093EA
:1017C0000A021092A4028BE480936000FF91EF91D3
:1017D000CF91BF91AF919F918F917F916F915F91C9
:1017E0004F913F912F910F900FBE0F901F90189522
:1017F00063E0E1CF1F920F920FB60F9211242F9347
:101800003F934F935F936F937F938F939F93AF9388
:10181000BF93CF93EF93FF938BE48093600089B1E4
:101820008870C1E08111C0E090915F029C1749F07F
:1018300066E081111BC08CE592E00E94F100C0932C
:101840005F028BE480936000FF91EF91CF91BF9195
:10185000AF919F918F917F916F915F914F913F9148
:101860002F910F900FBE0F901F90189563E0E3CF5C
:101870001F921FB61F9211248F939F938BE4809326
:10188000600083B18095817080936B0280916A02C1
:101890008823F1F080916B02811153C0109269028C
:1018A00010926D0210926A0280916B0280936C021A
:1018B0008BE48093600080916B0281111EC08BE4E9
:1018C000809360009F918F911F901FBE1F9018956D
:1018D00080916B0290916C02981751F38823B1F1BB
:1018E0001092690280916B0280936C028BE480936A
:1018F000600080916B02882311F380916500877FDF
:10190000809365008CE093E0909399008093980019
:10191000C09A109295001092940080916400877F85
:10192000809364008BEF94E090938900809388000B
:1019300080E4809380008091910085608093910085
:10194000BECF80916C02882359F2B2CF80916D0294
:101950008F3F41F28F5F80936D02C4CF1F920F9231
:101960000FB60F9211242F933F934F935F936F9372
:101970007F938F939F93AF93BF93EF93FF938BE4EA
:1019800080936000E0910602F0E0EE0FFF1FE65347
:10199000FE4F80819181DC01ED91FC910190F081FD
:1019A000E02D0995809106028630B8F48F5F809310
:1019B00006028BE480936000FF91EF91BF91AF919D
:1019C0009F918F917F916F915F914F913F912F9157
:1019D0000F900FBE0F901F90189580E0E8CF0F92E8
:1019E0000FB60F921F9211242F933F934F935F9343
:1019F0006F937F938F939F938BE4809360002091EC
:101A0000A8028091A6029091A70212160CF05FC066
:101A1000022E000C330B4FE752E0BA01621B730B2E
:101A20008617970790F549B5426049BD09B400FE95
:101A3000FDCF409165004F7E40936500820F931F5C
:101A40009093BF008093D0009093A7028093A6024A
:101A500021E02093C1002091A802213091F589371F
:101A6000910508F06EC083E387BD8BE4809360002E
:101A70009F918F917F916F915F914F913F912F91A6
:101A80001F900F900FBE0F90189582E08093BF00BB
:101A90008FE78093D0005093A7024093A602109244
:101AA000C1002E9A8091650080618093650089B5A0
:101AB0008D7F89BD8091A802813031F48FE287BD8E
:101AC00037C08937910578F183E287BDCECF022EEA
:101AD000000C330B44275527421B530B481759075B
:101AE000D8F01092BF001092D0001092A70210926E
:101AF000A6021092C1002E988091650080618093AB
:101B0000650089B58D7F89BD8091A802813009F477
:101B1000AACF86E287BD0CC049B5426049BD09B471
:101B200000FEFDCF86CF26E227BD892B09F09DCF91
:101B300085B5887F85BD8091640080628093640054
:101B400094CF2FE227BD8F37924009F08ECFF0CF90
:101B50000F920FB60F921F9211242F933F934F9322
:101B60005F936F937F938F939F93AF93BF93EF9305
:101B7000FF93CF93DF9300D000D0CDB7DEB78BE4D7
:101B800080936000E091BB02F091BC0240815181E2
:101B90002281211142C0809191008B7F809391001E
:101BA000C09A109295001092940080916500886010
:101BB000809365004F3F540709F45DC041155105FE
:101BC00009F45EC080916400877F80936400509325
:101BD00089004093880080E4809380008091910088
:101BE0008560809391008BE4809360000F900F904C
:101BF0000F900F90DF91CF91FF91EF91BF91AF9137
:101C00009F918F917F916F915F914F913F912F9114
:101C10001F900F900FBE0F9018958091BB0290916E
:101C2000BC0203969093BC028093BB0230E0A0E814
:101C3000BEE30E94EA1A69837A838B839C83DC016A
:101C4000CB012AE0B695A795979587952A95D1F768
:101C5000019720916500277F20936500909399005C
:101C600080939800C09A10929500109294004F3F74
:101C7000540709F0A3CF5093890040938800AECF5A
:101C800010928000809164008860809364002D9899
:101C9000A5CFCF93DF9300D000D0CDB7DEB7FC0146
:101CA000A081B1814D915C91119712962C912111D7
:101CB0002FC0809191008B7F80939100C09A1092E9
:101CC0009500109294008091650088608093650073
:101CD0004F3F540709F446C04115510509F447C068
:101CE00080916400877F80936400509389004093C3
:101CF000880080E4809380008091910085608093CB
:101D000091000F900F900F900F90DF91CF91089559
:101D10008081918103969183808330E0A0E8BEE3C7
:101D20000E94EA1A69837A838B839C83DC01CB014E
:101D30002AE0B695A795979587952A95D1F70197AB
:101D400020916500277F20936500909399008093F0
:101D50009800C09A10929500109294004F3F54073B
:101D600009F0BACF5093890040938800C5CF1092F4
:101D70008000809164008860809364002D98BCCFBF
:101D8000EF92FF921F93CF93DF93EC01162F8B817D
:101D9000861771F0E881F981E084F1840484F58587
:101DA000E02DCE010995682FCE01F70109951B831F
:101DB000DF91CF911F91FF90EF900895CDB7DEB7DF
:101DC000A497DEBFCDBF78948091BA02EBE4DE2EFB
:101DD000F6E0BF2EAAE0AA2EBEE0EB2EF12C13E215
:101DE000C12E08ED402E01E0502E8111C5C1109288
:101DF000AE0281E080936A0280916B0080FF3CC25A
:101E00001092010120E060E071E0E3E1F0E18091F7
:101E10006502882309F4AFC080916002882309F429
:101E20003DC180910B02882309F4ABC08091570219
:101E300090915802009779F03FB7F8944091590279
:101E400050915A025AA349A33FBF49A15AA148172A
:101E5000590708F096C090915B023091B5028091CD
:101E60006A02882329F080916B02882309F4CCC090
:101E70004091690250916B02822F51118AC050919A
:101E80006A02552329F050916B02552309F49DC134
:101E900050916D02442309F4C6C070936A02493020
:101EA00008F002C1453008F096C1433008F097C1F0
:101EB0005111BEC010926602822F10E0B1E0409135
:101EC0000001423008F4B0E0AFB7F8944091AB02A3
:101ED0005091AC025CA34BA3AFBF4BA15CA1452BBF
:101EE00091F4663008F0C5C040910101411171C103
:101EF00042E0409301016F5F4FB7F894F093AC025A
:101F0000E093AB024FBF811117C01130A9F093309D
:101F100041F0992309F41CC18091AF02882309F490
:101F200017C1311181C18091AE02882329F08091BF
:101F3000A302882309F410C69FB7F89409B400FCE3
:101F400006C0809164008872883209F435C183B775
:101F5000817F83BF9FBF83B7816083BF889583B72D
:101F60008E7F83BF8FB7F894D09260008FBF80912F
:101F70006502811151CF80916002811106C090E00D
:101F800001C093E090935B0268CF10925B0290E0F7
:101F900064CF493008F0A6C0453008F47AC14091BA
:101FA0006602423079F1AFB7F89440916500477FFF
:101FB0004093650044E35CE050939900409398009F
:101FC000C09A1092950010929400AFBFAFB7F894EA
:101FD00040916400477F409364004CEE55E050937D
:101FE00089004093880040E440938000AFBF5FB712
:101FF000F894409191004560409391005FBF42E0AA
:102000004093660211E05ACF80916B02811113C197
:1020100080916A02882329F080916B02882309F459
:1020200095C450916D02552309F4D2C070936A0291
:10203000822F222309F429C112E04FB7F89450925D
:10204000BC024092BB0280916500877F809365004F
:10205000F0929900E0929800C09A10929500109228
:102060009400809191008560809391004FBF81E042
:1020700025CFB32F311147CF40910001453008F0F3
:1020800044E04F5F409300014FB7F894F093AC02E7
:10209000E093AB024FBF60E0B1E035CF80910B021F
:1020A0008111D9CE92E06ECF4FB7F8945092BC0216
:1020B0004092BB0280916500877F80936500F0921B
:1020C0009900E0929800C09A1092950010929400A6
:1020D000809191008560809391004FBF2727822FC8
:1020E00015E0ECCE40916602433009F48BCFAFB7D8
:1020F000F89440916500477F4093650044E35CE0BD
:102100005093990040939800C09A109295001092B5
:102110009400AFBFAFB7F89440916400477F4093FD
:10212000640046E456E0509389004093880040E400
:1021300040938000AFBF5FB7F89440919100456035
:10214000409391005FBF43E04093660211E0B6CE3A
:10215000BB2309F4F1CE332309F4EECE81E0809362
:1021600001011092AE0280930C0282E08093BA02C9
:1021700080916B0080FD14C05C9A8091BA0285301A
:1021800009F4ECC1883009F4D6C1823009F4BAC030
:102190005C988091BA0229CE80916B0080FFECCFD1
:1021A0009FB7F89480916B008E7F80936B009FBFE8
:1021B000D89A8091BA0219CE8091650083FFC7CE6C
:1021C00083B7817F8C6083BFC5CE50E0411165CE5F
:1021D00071CE43E08ECE222389F114E02ECF21115F
:1021E00049C013E0992309F469CE31110DC0409123
:1021F000B5028091B402481739F08FB7F894109265
:10220000B3021092B2028FBF933019F081E0809335
:10221000AF021092A3028FB7F894C092A10210925D
:10222000A2028FBF80E04ACE8091A302882371F082
:10223000B11194CF81CE822F11E040CE14E09923CA
:1022400009F43CCE7093AE0214E0CFCF909101011F
:102250008091AE0221E020930C02992309F450C032
:1022600092E09093BA02882309F496CF81E080939C
:102270006A0282CF13E0E1CE9FB7F89480916B00A1
:10228000816080936B009FBFBBCD12E09111BCCFEA
:1022900015CE433080F240916602413009F4B2CE4F
:1022A000AFB7F89440916500477F4093650044E3E1
:1022B0005CE05093990040939800C09A109295006A
:1022C00010929400AFBFAFB7F89440916400477F7D
:1022D0004093640047E955E050938900409388009B
:1022E00040E440938000AFBF5FB7F8944091910005
:1022F0004560409391005FBF41E04093660282CE0B
:1023000095E0AFCF1092B90283B7817F83BF2C9A3B
:1023100081E08093BA0241E053E062E026E030E0E1
:102320000FC0813009F480C083B7816083BF889576
:1023300083B78E7F83BF8FB7F894D09260008FBF32
:102340008091AE02811115C08091BA028230D9F11C
:10235000833039F78091AD02823009F493C36093E2
:10236000AD028FB7F8943093AC022093AB028FBFCD
:10237000DBCF80916A02882329F080916B02882349
:1023800009F4B4C08091690290916B02911104C369
:1023900090916A02992329F090916B02992309F494
:1023A0005FC590916D02882309F4AFC071E070930E
:1023B0006A02833048F69111AEC010926602809195
:1023C000BA02823029F68091B902811158C08091F9
:1023D000B502842790910101913009F44DC0882302
:1023E00049F04093B9024093AF028091AE02882336
:1023F00009F445C0923009F4BDC4809100017EE229
:10240000879FC001112401967091AD02713009F4CB
:10241000B8C471E07093AD027FB7F8949093AC02AA
:102420008093AB027FBF80CF9091B90291115BC0C6
:102430009091B502982770910101713009F450C054
:10244000992349F08093B9028093AF028091AE0244
:10245000882309F448C08091AD02882309F4B5C4EB
:102460001092AD028FB7F894E6E0F0E0F093AC0282
:10247000E093AB028FBF58CF882309F4BECF5093AF
:10248000BA028091A8028F3F09F44ECF8FEF80935C
:10249000A80283B7817F83BF9FB7F89480916400BF
:1024A0008F7D809364009FBF8091A6029091A702C8
:1024B000892B09F44FC47FB7F8948091A6029091BC
:1024C000A7027FBF8937910508F0ECC483E387BD7D
:1024D0008FB7F894A89A16BC9DE095BD8FBF24CF06
:1024E000992309F4B8CF5093BA021ECF80916B02A2
:1024F00081112ACF80916A02882329F080916B0292
:10250000882309F435C690916D02992309F430C4EB
:1025100081E080936A021092AE0280916B0080FF8E
:1025200013CF9FB7F89480916B008E7F80936B00E0
:102530009FBFD89A09CF1092BA028091AD0286301F
:1025400009F464C4B092AD028FB7F89423E130E18E
:102550003093AC022093AB028FBF1ACE1092B90217
:1025600083B7817F83BF84E08093BA0224E00FC0E9
:10257000843009F477C183B7816083BF889583B7BE
:102580008E7F83BF8FB7F894D09260008FBF809109
:10259000AE028111DCC08091BA02853009F403C11A
:1025A000863031F78091AD02843009F4E1C2209386
:1025B000AD028FB7F894A092AB021092AC028FBF1D
:1025C0008091B902811156C38091B5028111D3CF98
:1025D00081E08093B9028093AF028091AE028111B5
:1025E000CACF8091BA02873009F41FC41092A502A5
:1025F00088E08093BA028091A802813009F0A4C0DB
:102600008FEF8093A80283B7817F83BF9FB7F89431
:10261000809164008F7D809364009FBF8091A602AB
:102620009091A702892B09F474C42FB7F894809174
:10263000A6029091A7022FBF8937910508F010C517
:1026400083E387BD8FB7F894A89A16BC9DE095BD2B
:102650008FBF82E08093A3028091A502882309F4B2
:1026600027C420E030E034C08091A1029091A20202
:10267000849708F440C080917302909174024FB720
:10268000F89460917002709171027E836D834FBFE8
:102690004D815E81841B950B2817390760F5809169
:1026A000A3028D7F882309F43BC18091A102909100
:1026B000A202280F391F4FB7F8948091A102909180
:1026C000A202969587959093A2028093A1024FBF94
:1026D0008091A3028D7F8111C7CF8FB7F89440916D
:1026E000A1025091A20258874F838FBF8F81988596
:1026F000849708F0C0CF8091A3028D7F8090A102C3
:102700009090A20281110BC08FB7F8942091A10282
:102710003091A2023C832B838FBF8B809C807FB63D
:10272000F894E0916E02F0916F02848195818D5949
:10273000914009F07FC590927102809270027FBE35
:1027400090927402809273025F982C9816CD8091BB
:102750006A02882329F080916B02882309F4F7C06C
:102760008091690290916B02911151C190916A021E
:10277000992329F090916B02992309F47BC39091DE
:102780006D02882309F4F2C031E030936A0283308D
:1027900008F001CF9111F0C0109266028091BA0248
:1027A000853009F0FDCE80916502880F909160021E
:1027B000992309F4C1C0882309F4A7C080910B02B2
:1027C0008823B1F08091570290915802009709F444
:1027D000A2C03FB7F8944091590250915A025E8BC3
:1027E0004D8B3FBF4D895E894817590708F493C048
:1027F00083E080935B028091B902811180C0809157
:10280000B50281110AC081E08093B9028093AF02C2
:102810008091AE02882309F472C08091A3028130B6
:1028200009F498C480910B02882309F4A4CE109275
:10283000A40280919F029091A002AC0141505109E5
:102840004B31584108F091C4880F991F3FB7F89455
:1028500090937102809370023FBF909374028093B3
:10286000730289CE80916502880F9091600299234E
:1028700009F449C0882309F448C080910B028823D9
:10288000A1F080915702909158020097A1F13FB7B3
:10289000F8944091590250915A025C8B4B8B3FBF88
:1028A0004B895C894817590730F183E080935B02BC
:1028B0008091B902811123C08091B502811109C0B4
:1028C00081E08093B9028093AF028091AE028823A9
:1028D000B1F08091AD02833009F452C383E080935C
:1028E000AD028FB7F89446E050E05093AC024093AD
:1028F000AB028FBF40CE80915B028111D9CF2C9A61
:10290000B092BA0238CE8111B6C410925B022C9AF2
:10291000B092BA0230CE80915B0281116CCFEFCFC2
:102920008FB7F8944091A1025091A2025A8749872B
:102930008FBF89859A85BDCE882339F380910B029C
:102940008111E9CF82E080935B0255CFB3CA8091B9
:102950006B02811120CE80916A02882329F0809138
:102960006B02882309F405C490916D02992309F440
:1029700000C281E080936A021092AE0280916B00E7
:1029800080FF09CE9FB7F89480916B008E7F809373
:102990006B009FBFD89AFFCD893008F071C1853098
:1029A00008F468C380916602823009F4CDCC9FB7E9
:1029B000F89480916500877F80936500E4E3FCE0F4
:1029C000F0939900E0939800C09A109295001092AD
:1029D00094009FBF9FB7F89480916400877F809395
:1029E0006400ECEEF5E0F0938900E093880080E469
:1029F000809380009FBF9FB7F8948091910085607D
:102A0000809391009FBF82E0809366029DCC8930C5
:102A100008F06BC1853008F465C38091660282308E
:102A200009F4B9CD9FB7F89480916500877F8093B2
:102A3000650044E35CE05093990040939800C09A8D
:102A400010929500109294009FBF9FB7F8948091C8
:102A50006400877F809364004CEE55E050938900BA
:102A60004093880080E4809380009FBF9FB7F894D4
:102A7000809191008560809391009FBF82E0809358
:102A8000660289CD8FB7F894E091AB02F091AC0269
:102A9000FC8FEB8F8FBF8B8D9C8D892B09F044CCE5
:102AA0008FB7F89426E030E03093AC022093AB026D
:102AB0008FBF809101018130C1F08091B9028111F5
:102AC00014C08091B50291E0892720910101213045
:102AD00009F43EC0882309F43DC09093B902909355
:102AE000AF028091AE02811135C088E08093BA02B6
:102AF0008091A8028F3F09F428CE8FEF8093A8021F
:102B000083B7817F83BF9FB7F894809164008F7DE6
:102B1000809364009FBF8091A6029091A702892BA9
:102B200009F4B2C12FB7F8948091A6029091A70240
:102B30002FBF8937910508F090C283E387BD8FB717
:102B4000F894A89A16BC9DE095BD8FBF2C9815CB24
:102B50008111CBCF85E0CACF8091010191E09093A4
:102B60000C02882309F42DC182E08093BA027ECB47
:102B70008FB7F8944091AB025091AC02588F4F8BB5
:102B80008FBF8F89988D892B09F01ACD8FB7F89454
:102B9000A092AB021092AC028FBF87E08093BA0282
:102BA0008091AF0281111DCD8090A402882009F48C
:102BB00018CD80917302909174022FB7F8944091D0
:102BC000700250917102588B4F872FBF2F85388923
:102BD000821B930B209195023091960289010C5F24
:102BE0001F4F215732402D3131050CF03CC2980166
:102BF0003093960220939502F8019383828370802C
:102C00006180E0919B02F0919C02E017F10709F4CA
:102C1000A5C2982C4BE952E0BA010EC0DB016D91C0
:102C20007C91B2E0E739FB0709F481C1912C308136
:102C30002181AF01E32FF22F20813181201731074D
:102C4000E1F0228133812817390758F4DA018D9198
:102C50009C91D8018D939C93DA010D931C9380E095
:102C600090E09110DBCF22E0E739F20709F45FC171
:102C7000982CDDCF8091AF0295CF70826182E1CF39
:102C800080916602833009F45FCB9FB7F8948091FE
:102C90006500877F80936500E4E3FCE0F093990092
:102CA000E0939800C09A10929500109294009FBFF4
:102CB0009FB7F89480916400877F80936400E6E476
:102CC000F6E0F0938900E093880080E48093800030
:102CD0009FBF9FB7F8948091910085608093910089
:102CE0009FBF83E0809366022FCB80916602833082
:102CF00009F451CC9FB7F89480916500877F809349
:102D0000650044E35CE05093990040939800C09ABA
:102D100010929500109294009FBF9FB7F8948091F5
:102D20006400877F8093640046E456E050938900F6
:102D30004093880080E4809380009FBF9FB7F89401
:102D4000809191008560809391009FBF83E0809384
:102D5000660221CC7FB7F8948091A6029091A702D9
:102D60007FBF8937910508F0A0C086E287BDB0CB50
:102D700024CB12CD88E190E07091AD02713009F062
:102D800048CBAFB7F894E091AB02F091AC02FE8F64
:102D9000ED8FAFBFED8DFE8DEF2B09F0C5CAEFB7FC
:102DA000F8949093AC028093AB02EFBF83E08093E2
:102DB000BA02709300018091A8028F3F09F4B4CA4F
:102DC00065CB85E08093BA0251CA8FB7F894E09141
:102DD000AB02F091AC02F8A3EF8F8FBF8F8D98A15B
:102DE000892B09F0A1CA8FB7F894E6E0F0E0F093E0
:102DF000AC02E093AB028FBF82E08093BA02809175
:102E0000A802813009F490CA81E041CB8FB7F894D1
:102E10002091AB023091AC023A8329838FBF898124
:102E20009A81892B09F0B4C98FCB8091AF028111AF
:102E300087C08FB7F8942091590230915A023A8F87
:102E4000298F10925A02109259028FBF898D9A8D44
:102E5000009709F08FC11092AF0210920C02C8CBFC
:102E6000882309F485CF91E090936A02833008F4B7
:102E7000A4CA6ACA882309F47CCF91E090936A02BD
:102E8000833008F489CC87CB2FB7F8948091A602C1
:102E90009091A7022FBF8937910508F0DBC086E229
:102EA00087BD4DCE8FE287BD13CB83E287BD10CBAC
:102EB0008091A3028D7F882309F456C08091A102DE
:102EC0009091A2022FB7F8949093710280937002B0
:102ED0002FBF90937402809373028091A3028D7F21
:102EE0008823B1F18091A1029091A202803C984088
:102EF00008F02ACC2FB7F8948091A1029091A202F9
:102F0000880F991F9093A2028093A1022FBF5F9810
:102F10001CCC2FB7F8948091A6029091A7022FBFE6
:102F20008937910508F0A3C086E287BD8BCBDB0112
:102F300012968D919C919093A00280939F0251CB09
:102F40008FB7F89410925A02109259028FBF83CF14
:102F50008FB7F8942091A1023091A2023E872D876D
:102F60008FBF8D859E85C2CF8FB7F8942091A10227
:102F70003091A2023C872B878FBF8B859C85A2CF87
:102F80008FB7F8944091AB025091AC025A8B498BA9
:102F90008FBF89899A89892B09F0EDCA8FB7F89478
:102FA00046E050E05093AC024093AB028FBF80915B
:102FB000AF0291E089278093A4028091A80281301A
:102FC00009F443C09093A80283B7817F83BF9FB762
:102FD000F894809164008F7D809364009FBF8091FE
:102FE000A6029091A702892B09F02AC13FB7F89455
:102FF0008091A6029091A7023FBF8937910508F002
:1030000032C186E287BD8FB7F894A89A16BC9DE0BE
:1030100095BD8FBF83E08093A30280919F02909122
:10302000A002AC01415051094B31584108F015C183
:10303000880F991F3FB7F8949093710280937002A4
:103040003FBF90937402809373025F9A85E08093F0
:10305000BA0291CA83E287BD72CD8FE287BD6FCD80
:103060008FE287BDEFCA25E732E08901C1CD83E257
:1030700087BDE8CA833008F467C980916602813051
:1030800009F462C99FB7F89480916500877F8093A7
:103090006500E4E3FCE0F0939900E0939800C09AA7
:1030A00010929500109294009FBF9FB7F894809162
:1030B0006400877F80936400E7E9F5E0F09389007E
:1030C000E093880080E4809380009FBF9FB7F894CE
:1030D000809191008560809391009FBF81E08093F3
:1030E000660232C9833008F456CA80916602813084
:1030F00009F451CA9FB7F89480916500877F809347
:10310000650044E35CE05093990040939800C09AB6
:1031100010929500109294009FBF9FB7F8948091F1
:103120006400877F8093640047E955E050938900ED
:103130004093880080E4809380009FBF9FB7F894FD
:10314000809191008560809391009FBF81E0809382
:10315000660221CA80E090E00E94FF1A70929B02F2
:1031600060929C02E72DF62D54CD88E390E36ECB60
:1031700024C912CB20914D0230914E0289010C5F7F
:103180001F4F295032402D33310514F00DE012E06D
:1031900010934E0200934D02F80193838283808046
:1031A000918020915302309154020217130709F4C1
:1031B0005DC0E0915302F09154027724739443E58B
:1031C00052E0BA010DC0DB016D917C91B2E0EF34A9
:1031D000FB0739F1712C30812181AF01E32FF22FF0
:1031E0002081318102171307C9F02281338128170A
:1031F000390758F4DA018D919C91D8018D939C93F5
:10320000DA010D931C9380E090E07110DCCF22E096
:10321000EF34F20731F077247394DDCF918280820E
:10322000E4CFDB0112968D919C919093580280938C
:10323000570211CEB4018EE692E00E949D017FCA32
:103240003FB7F8948091A6029091A7023FBF8937BB
:10325000910530F483E387BDD6CE88E390E3EACED0
:103260008FE287BDD0CE83E287BDCDCE909254024F
:10327000809253029ECF80910B0281113CCB82E061
:1032800080935B0215CB0F931F93CF938DEB92E04E
:103290009093BC028093BB021092BE021092BD02BA
:1032A0001092BF029FB7F89480916400877F80934B
:1032B00064001092800089E0809381008091640016
:1032C000886080936400259A2D9880916500877F9F
:1032D000809365001092900082E0809371002FEF40
:1032E0003FEF30939900209398008DE080939100F8
:1032F00080916500886080936500C09A9FBF89B106
:103300008170C1E08C2710926302809364028093E5
:1033100065028EE591E0909362028093610250987D
:1033200069B161706C2781E692E00E94C00E89B19C
:1033300083FB882780F98C2710925E0280935F02BE
:10334000809360028AE491E090935D0280935C0236
:10335000539869B163FB662760F96C278CE592E0AE
:103360000E94C00E89B182FB882780F98C271092B9
:10337000090280930A0280930B0282E291E090930B
:10338000080280930702529869B162FB662760F9D0
:103390006C2787E092E00E94C00E86E391E0909354
:1033A000080280930702C0930C02EDE0F2E080E493
:1033B000DF011D928A95E9F7F0934E02E0934D02EA
:1033C0001092500210924F0210925202109251022B
:1033D0008FE492E09093540280935302109256022D
:1033E00010925502109258021092570210925A02EF
:1033F0001092590289B1869581708C271092B30280
:103400001092B2020AEA11E01093B1020093B002E6
:103410009FB7F8949FBF8093B4028093B5028EE06B
:1034200091E09093B1028093B002519889B1869552
:103430008170C8278091B4028C1761F06C2F80EBEB
:1034400092E00E943601BC0180EB92E00E94A10153
:10345000C093B4028AEB91E09093B1028093B002E2
:103460008091B50291E089278093B8021092710291
:103470001092700210936F0200936E028FB7F8944F
:103480008FBF109272022EE831E030936F022093CA
:103490006E02E5E7F2E080E2DF011D928A95E9F72E
:1034A000F0939602E0939502109298021092970280
:1034B00010929A021092990227E932E030939C020E
:1034C00020939B0210929E0210929D021092A002E5
:1034D00010929F0223E230E03093A2022093A102D7
:1034E0001092A3029093A4029093A502269A2E987C
:1034F00022E731E030936F0220936E021092A70210
:103500001092A6022FEF2093A8023FB7F8948AE604
:1035100082BF80E189BD809165008F7E80936500C8
:1035200081E28093C0001092BF001092D0001092F0
:10353000A7021092A60282E08093BF008FE78093DB
:10354000D1001092C1003FBF809164008F7D8093B5
:10355000640083E084BD80916E00816080936E0082
:1035600088E085BDA89A16BC809164008062809333
:1035700064001092AC021092AB021093AA02009366
:10358000A9028FB7F8948FBF4AEA51E05093AA027C
:103590004093A9022093AD0226E031E03093680207
:1035A000209367021092690210926A0210926D02D3
:1035B000209883B18170892780936C0280936B027D
:1035C00086E091E09093680280936702CF911F910B
:1035D0000F910895A29FB001B39FC001A39F700DEA
:1035E000811D1124911DB29F700D811D1124911D0B
:1035F0000895EE0FFF1F0590F491E02D099480913E
:10360000A8028F3FD1F18FEF8093A80283B7817F0B
:1036100083BF9FB7F894809164008F7D809364008E
:103620009FBF8091A6029091A702892B81F02FB7AE
:10363000F8948091A6029091A7022FBF8937910537
:1036400018F483E387BD12C08FE287BD0FC02FB788
:10365000F8948091A6029091A7022FBF8937910517
:1036600018F486E287BD02C083E287BD8FB7F89465
:10367000A89A16BC9DE095BD8FBF09B400FCFDCF94
:103680008091640085FFF9CF5C982C985F989FB774
:10369000F89428ED31E03093BC022093BB02809176
:1036A0006500877F809365002EE030E030939900BD
:1036B00020939800C09A10929500109294008091E7
:1036C00091008560809391009FBF8091640083FF8B
:1036D000FCCF8091650083FFF8CFF89483B7817F9A
:1036E000846083BF83B7816083BF8895F894FFCFE0
:1036F0000103000000008905C80300000000A605C2
:10370000C4039D019901A1015B05BC037304000082
:103710000000A0030701F1000401E100F4009A0396
:10372000A404000000000B010701F1000401E10006
:10373000F4009A03A40400000000A0030701F100B4
:103740000401E100F4009403D50400000000A0038C
:103750000701F1000401E100F400940345040000B6
:103760000000A605BB059D01990174035B050303D9
:103770000A033F030C04D303060500000000A6055E
:10378000BB059D01990174035B05800587058505CF
:10379000F505FC05030600000000A6054E079D0187
:1037A0009901A1015B0500000000A60545019D01EE
:1037B0009901A1015B053601730461025C020702F5
:1037C000B0026E02A9026702FB044BF30332FB0452
:1037D0004BF30332FB044BF30332FB044BF3033292
:1037E000000000F303E1FB04E1000000FB04E1F34F
:0637F00003E100000000EF
:02000004008278
:03000000DFD8F84E
:00000001FF
