:100000000C9457000C94C3080C94F8080C9439090C
:100010000C9474090C94DF000C94DF000C94DF0046
:100020000C94DF000C94AD090C94DF000C94DF00FD
:100030000C94E7090C94DF000C94DF000C94DF00B3
:100040000C94DF000C94DF000C94DF000C94DF00B4
:100050000C94DF000C94DF000C94DF000C94DF00A4
:100060000C94DF000C94DF000C94DF000C94DF0094
:100070000C94DF000C94DF000C94DF000C94DF0084
:100080000C94DF000C94DF000C94DF000C94DF0074
:100090000C94DF000C94DF000C94DF000C94DF0064
:1000A0000C94DF000C94DF000C94DF00721215BE7C
:1000B000259A2D98249A2C9884B1817384B99FB77E
:1000C000F89484B1817384B985B18E6C85B99FBF72
:1000D0008AB18F718AB99FB7F8948AB18F718AB942
:1000E0008BB1806E8BB99FBF87B117B89FB7F8945B
:1000F00087B117B888B18FEF88B99FBF9DB11DB880
:100100009FB7F8942DB11DB82EB18EB99FBF90B393
:1001100010BA9FB7F89420B310BA21B381BB9FBF28
:10012000EAE7F0E080818F77808380B7806880BFC6
:100130008DEA8093640089E98093650011241FBED5
:10014000CFEFDAE0DEBFCDBF11E0A0E0B1E0E8EE36
:10015000FBE202C005900D92A03CB107D9F722E066
:10016000A0ECB1E001C01D92A037B207E1F710E0AA
:10017000C7E5D0E004C02197FE010E949613C63562
:10018000D107C9F7A895E0E6F0E080818861808317
:100190008BE4808381E0809368001BBA80936B00BE
:1001A00085E5809369001CBA8FE08DBB789483B796
:1001B000817F8C6083BF0E944A0A0C9433150C9493
:1001C0000000DC01ED91FC9111970480F581E02D98
:1001D00080E0E13FF80719F412966C930895CD0181
:1001E0000994FC0162830895DC01ED91FC91119763
:1001F0000680F781E02D81E0E430F80719F41296CB
:100200008C910895CD010994FC0182810895FC012F
:10021000838184830895CF93DF93EC018A818823BF
:1002200059F081508A838C81882319F08D8188232D
:1002300079F0DF91CF910895E881F9810280F3810F
:10024000E02D21E0E730F20771F48B818C83EBCF56
:10025000CE5ADF4F888199818F3F980751F30196DD
:1002600099838883E6CFCE010995DDCFFC01808597
:10027000823041F0662319F083E090E0089586E033
:1002800090E0089583E190E10895FC0184819581D7
:10029000891771F0811109C081E080878CE595E0B4
:1002A000938382838481858308951086858308954E
:1002B0008581811105C08085813011F482E08087BD
:1002C0000895DC01D5968C91D597823029F0833042
:1002D00029F1882321F00895D5961C92D597D396BD
:1002E0006D917C91D49764327105A8F3D7968C9167
:1002F000D797811117C081E0D7968C93D797ED914E
:10030000FC9111970480F581E02D81E0EB39F8072D
:1003100081F413967C936E931297089581E0D5969D
:100320008C93089576956795D4967C936E93D39726
:10033000E6CFCD010994FC01738362830895FF9297
:100340000F931F93CF93DF93EC018B01FFB6F894CB
:10035000E881F9810480F581E02D81E0EB39F8072F
:1003600059F46A831B83FFBE0D831E83DF91CF91F7
:100370001F910F91FF900895CE010995F4CF80E071
:100380000895FC01828193810895FC017383628347
:10039000089581E00895CF93DC01CFB7F894ED91F3
:1003A000FC9111970480F581E02D81E0EB39F8078D
:1003B00041F412966C93129713967C93CFBFCF9112
:1003C0000895CD010995CFBFCF910895CF93DF93C5
:1003D00000D0CDB7DEB78091000181110DC08091B2
:1003E0006C02811142C088E08093C10180E00F90CF
:1003F0000F90DF91CF91089580915F02882349F19A
:100400008091630281116BC0809162028B3008F58C
:100410009091640291111DC08430D8F480916302E0
:10042000811117C080916602882399F010925F02B3
:1004300080916B0080FF0DC09FB7F89480916B0096
:100440008E7F80936B009FBFD89A80910001882394
:1004500031F280916C02811108C081E080935E02CC
:1004600080915F02882309F4BECF80912502882302
:1004700089F0109225028FB7F89426E030E030938F
:100480002402209323028FBF81E00F900F90DF9111
:10049000CF9108958FB7F8942091230230912402D0
:1004A0003A8329838FBF89819A81892B31F081E03A
:1004B0000F900F90DF91CF9108958FB7F89426E0B9
:1004C00030E030932402209323028FBF82E0809398
:1004D000C10180E00F900F90DF91CF91089580913E
:1004E00064028111B6CF9ACF82E00895CF93DF9353
:1004F00000D000D0CDB7DEB780910001811123C0BC
:1005000080916C02882309F457C0809101012EE28A
:10051000829FC0011124019620912502213009F407
:100520009CC021E0209325022FB7F89490932402D9
:10053000809323022FBF81E00F900F900F900F90B8
:10054000DF91CF91089590915F02992351F190919D
:1005500063029111BAC0909162029B3010F5209114
:10056000640221111EC09430E0F490916302911155
:1005700018C0909166029923A1F010925F029091A9
:100580006B0090FF0EC09FB7F89480916B008E7F38
:1005900080936B009FBFD89A80910001882309F453
:1005A000AFCF90916C0291117AC091E090935E026E
:1005B00090915F02911173C088E08093C1014C9BC0
:1005C00066C05C9882E080935B0280915D02882324
:1005D00009F496C030E020E034C080915902909137
:1005E0005A02849708F476C080912B0290912C02D5
:1005F0004FB7F89460912802709129027C836B8335
:100600004FBF4B815C81841B950B2817390708F07D
:1006100061C080915B028D7F09F44FC080915902C7
:1006200090915A02280F391F4FB7F89480915902C0
:1006300090915A029695879590935A028093590209
:100640004FBF80915B028D7F41F64FB7F894809148
:10065000590290915A024FBFC4CF3FB7F8944091CE
:100660002302509124025A8349833FBF49815A8112
:10067000452BD9F43FB7F89490932402809323023A
:100680003FBF83E08093C101209301015C9880E02B
:100690000F900F900F900F90DF91CF9108958130C0
:1006A00009F033CF88E190E037CF81E00F900F90D1
:1006B0000F900F90DF91CF9108954FB7F8948091EC
:1006C000590290915A024FBFADCF9091640291119F
:1006D00068CF4BCF80915B028D7F09F448C0809139
:1006E000590290915A022FB7F8949093290280935F
:1006F00028022FBF90932C0280932B0280E01CCF06
:1007000090915B029D7F2091590230915A0299236A
:10071000B1F19FB7F89430932902209328029FBF2C
:1007200030932C0220932B0290915B029D7F2091AD
:10073000590230915A02992391F0203C384008F038
:10074000A6CF9FB7F8942091590230915A02220FF8
:10075000331F30935A02209359029FBFEDCE9FB7AB
:10076000F8942091590230915A029FBFE6CF2FB7DB
:10077000F8948091590290915A022FBFB4CF9FB73D
:10078000F8942091590230915A029FBFC2CF83E062
:100790000895CF93DF9300D0CDB7DEB780910001ED
:1007A00081110DC080916C02811142C088E080935C
:1007B000C10180E00F900F90DF91CF91089580915B
:1007C0005F02882349F18091630281116DC080919D
:1007D00062028B3008F59091640291111DC0843043
:1007E000D8F480916302811117C08091660288233A
:1007F00099F010925F0280916B0080FF0DC09FB74F
:10080000F89480916B008E7F80936B009FBFD89A85
:1008100080910001882331F280916C02811108C01F
:1008200081E080935E0280915F02882309F4BECF4D
:1008300080912502823091F082E0809325028FB76B
:10084000F89426E030E030932402209323028FBFF7
:1008500081E00F900F90DF91CF9108958FB7F894BA
:1008600020912302309124023A8329838FBF89810A
:100870009A81892B31F081E00F900F90DF91CF9119
:1008800008958FB7F89426E030E030932402209347
:1008900023028FBF80910001882309F487CF84E071
:1008A0008093C10180E0D5CF809164028111B4CFE3
:1008B00098CF84E00895CF93DF9300D0CDB7DEB713
:1008C00080915F02882369F080916302811157C093
:1008D000809162028B3028F490916402992309F48C
:1008E0006BC080916C0281110FC081E080935E0229
:1008F00080915F02811108C098E09093C1010F9030
:100900000F90DF91CF91089580912502833091F06F
:1009100083E0809325028FB7F89426E030E030938F
:100920002402209323028FBF81E00F900F90DF916C
:10093000CF9108958FB7F89420912302309124022B
:100940003A8329838FBF89819A81892B31F081E095
:100950000F900F90DF91CF9108958FB7F89426E014
:1009600030E030932402209323028FBF85E08093F0
:10097000C10180E00F900F90DF91CF910895809199
:1009800064028111AECF809163028111AACF809160
:100990006602882309F4A5CF10925F0280916B0054
:1009A00080FF9FCF9FB7F89480916B008E7F8093DC
:1009B0006B009FBFD89A95CF843008F092CFE3CFD9
:1009C00085E0089588E00895CF93DF9300D0CDB7F8
:1009D000DEB780912502853091F085E08093250275
:1009E0008FB7F89426E030E030932402209323025E
:1009F0008FBF81E00F900F90DF91CF9108958FB757
:100A0000F89420912302309124023A8329838FBFE6
:100A100089819A81892B31F081E00F900F90DF91CD
:100A2000CF9108958FB7F89426E030E030932402F8
:100A3000209323028FBF80E00F900F90DF91CF9122
:100A40000895611102C083E0089586E00895662349
:100A500011F080E0089583E00895DC0112968C91F6
:100A60001297882321F0815012968C930895ED916E
:100A7000FC9111970280F381E02D81E0E730F807C7
:100A800031F413968C91139714968C930895CD019D
:100A90000994611103C086E090E0089583E090E03E
:100AA0000895FC018481858308951F93CF93DF937C
:100AB00000D0CDB7DEB7DC011FB7F894ED91FC9103
:100AC00011970680F781E02D81E0E13CF80771F491
:100AD00012962D913C913A8329831FBF89819A8177
:100AE0000F900F90DF91CF911F910895CD0109953F
:100AF0009C01F1CFFC018381811102C082810895A4
:100B000080E00895CF93DC01CFB7F894ED91FC918C
:100B100011970480F581E02D81E0E53CF80741F470
:100B200012966C93129713967C93CFBFCF91089532
:100B3000CD010995CFBFCF910895EF92FF921F93FA
:100B4000CF93DF93EC0119B111708B81811789F07C
:100B5000E881F981E480F5800484F585E02D612F3A
:100B6000CE01099591EFE91690E0F90641F48A83E8
:100B70001B83DF91CF911F91FF90EF900895682F15
:100B8000CE01F7010995F4CFEF92FF921F93CF9317
:100B9000DF93EC0119B1169511708C81811791F0DA
:100BA000E881F981E480F5800484F585E02D612FEA
:100BB000CE01099525ECE21621E0F20649F48A837C
:100BC0009B831C83DF91CF911F91FF90EF9008953D
:100BD000BC01CE01F7010995F4CFEF92FF921F936C
:100BE000CF93DF93EC0119B112FB112710F98B8120
:100BF000811789F0E881F981E480F5800484F58526
:100C0000E02D612FCE01099591EFE91690E0F906EC
:100C100041F48A831B83DF91CF911F91FF90EF9066
:100C20000895682FCE01F7010995F4CFEF92FF9256
:100C30001F93CF93DF93EC0119B113FB112710F928
:100C40008B81811789F0E881F981E480F580048443
:100C5000F585E02D612FCE01099591EFE91690E021
:100C6000F90641F48A831B83DF91CF911F91FF9096
:100C7000EF900895682FCE01F7010995F4CFDC01BC
:100C800012968D919C911397009731F001971396CE
:100C90009C938E9312970895ED91FC911197028089
:100CA000F381E02DCD0109940895FC0180916B0042
:100CB00080FF04C08481811103C0089512820895C9
:100CC00082818F3FD1F38F5F82830895DC0112967A
:100CD0008D919C911397009731F0019713969C93F7
:100CE0008E9312970895ED91FC9111970280F381F4
:100CF000E02DCD010994FC018281938108951F9319
:100D0000CF93DF9300D0CDB7DEB7DC011FB7F894E7
:100D1000ED91FC9111970680F781E02D86E0EB378D
:100D2000F80771F412962D913C913A8329831FBFE5
:100D300089819A810F900F90DF91CF911F91089533
:100D4000CD0109959C01F1CFCF93DF9300D000D066
:100D5000CDB7DEB7FC019091200280911B02990F64
:100D6000982B913009F47FC091114EC01092160259
:100D700020916C0281E030910101323008F480E072
:100D80003FB7F89440912302509124025C834B8337
:100D90003FBF4B815C81452BC9F43281363008F46A
:100DA00093C0822F211112C080910101853018F467
:100DB0008F5F8093010112828FB7F89443E150E175
:100DC00050932402409323028FBF81E0933031F08F
:100DD000992379F090915E02992359F0211104C072
:100DE00090915F029923B9F190915B02992309F4E4
:100DF00063C0882381F1211155C00F900F900F908F
:100E00000F90DF91CF9108958091C60181112FC07D
:100E10009093160220916C0280916302811134C07C
:100E2000809162028B3008F076C0309164023111FB
:100E3000A1CF843068F1211106C030916C028091FD
:100E40006B0238136CC0933019F081E080935E021E
:100E500010925B028FCF81E00F900F900F900F9058
:100E6000DF91CF91089590E080E00E943315933098
:100E7000D1F19091160220916C02992309F47ACF56
:100E800080916302882361F280916402811172CFA4
:100E90008091630281116ECF80916602882309F4EC
:100EA00069CFD1CF1092000180E00F900F900F908A
:100EB0000F90DF91CF91089580E00F900F900F90E9
:100EC0000F90DF91CF91089542E0409300013F5F82
:100ED00032833FB7F89443E150E1509324024093AA
:100EE00023023FBF73CF20911202309113022115CC
:100EF000310509F4BECF8FB7F89440911402509198
:100F000015025A8349838FBF49815A81421753077B
:100F100008F07ECFAECF81E080935F028CCF8FB799
:100F2000F89410926A02109269028FBF8CCF1F93BF
:100F3000CF93DF93CDB7DEB728970FB6F894DEBF17
:100F40000FBECDBF80915F02882369F0809163025C
:100F500081115CC0809162028B3028F49091640210
:100F6000992309F4D1C08091C101863091F180911B
:100F7000200290911B02880F892B813009F4CBC08D
:100F8000811112C0109216022C9A86E08093C10142
:100F900011E0812F28960FB6F894DEBF0FBECDBFAB
:100FA000DF91CF911F9108959091C60191114BC08F
:100FB0008093160280916C02811152C081E080936F
:100FC0005E0210915F0211114BC088E08093C10155
:100FD000E0CF80912502843009F4A1C084E08093A1
:100FE00025028FB7F8942AE030E030932402209352
:100FF00023028FBF80916C028111CACF81E0809360
:101000005E0210915F021111C4CFDFCF80916402A4
:101010008111A9CF809163028111A5CF80916602D1
:10102000882309F4A0CF10925F0280916B0080FFAB
:101030009ACF9FB7F89480916B008E7F80936B005E
:101040009FBFD89A90CF833009F485C08091160253
:10105000882309F499CF80916C02882309F4AECFDC
:1010600080915B02813009F456C01091C6011123B2
:1010700009F48ECF10925C02809157029091580231
:10108000009709F445C09C0150E040E02D833E8369
:101090004F835887CA01B9010E94381426E636E604
:1010A00046EA5FE36D837E838F8398876D817E81BF
:1010B0008F8198850E94C61420E030E040E05FE315
:1010C0006D837E838F8398876D817E818F819885E4
:1010D0000E949D136D837E838F8398876D817E81AF
:1010E0008F8198850E940914CB016933704380F485
:1010F0002FB7F89490932902809328022FBF9093E2
:101100002C0280932B0245CF843008F02CCF82CF65
:1011100088E390E3EDCF90E080E00E9433158FB735
:10112000F89420912302309124023C832B838FBFBB
:101130008B819C81892B09F05DCF8FB7F8942AE0D1
:1011400030E030932402209323028FBF87E0809306
:10115000C10110E01ECF209112023091130221151F
:10116000310509F473CF9FB7F89440911402509160
:1011700015025A8349839FBF49815A8142175307F9
:1011800008F464CF15CF1F920F920FB60F9211245F
:101190002F933F934F935F936F937F938F939F937F
:1011A000AF93BF93CF93EF93FF93C9B1C170809179
:1011B0001F028C1749F063E0C11118C08CE192E066
:1011C0000E94F100C0931F02FF91EF91CF91BF9158
:1011D000AF919F918F917F916F915F914F913F91CF
:1011E0002F910F900FBE0F901F90189566E0E6CFDD
:1011F0001F920F920FB60F9211242F933F934F938C
:101200005F936F937F938F939F93AF93BF93CF938E
:10121000EF93FF9389B1982F927081FBCC27C0F98F
:1012200080916B02C81781F080916F0263E170E1D9
:10123000823021F063E070E09923C1F087E692E00C
:101240000E94C501C0936B02FF91EF91CF91BF91B6
:10125000AF919F918F917F916F915F914F913F914E
:101260002F910F900FBE0F901F90189566E070E0C1
:10127000E5CF1F920F920FB60F9211242F933F9339
:101280004F935F936F937F938F939F93AF93BF938E
:10129000CF93EF93FF9389B1982F947082FBCC2763
:1012A000C0F98091C5018C1749F060E09923D1F015
:1012B00082EC91E00E94F100C093C50110925C02A3
:1012C000FF91EF91CF91BF91AF919F918F917F91BE
:1012D0006F915F914F913F912F910F900FBE0F90A3
:1012E0001F90189563E0E4CF1F920F920FB60F92F4
:1012F00011242F933F934F935F936F937F938F931B
:101300009F93AF93BF93CF93EF93FF9389B1982FA0
:10131000987083FBCC27C0F980911A028C1749F092
:1013200066E09923C1F087E192E00E94F100C0934A
:101330001A02FF91EF91CF91BF91AF919F918F9141
:101340007F916F915F914F913F912F910F900FBEC1
:101350000F901F90189563E0E6CF1F921FB61F9263
:1013600011248F939F9383B1817080936402809145
:101370006302882381F080916402811106C010927B
:10138000620210926602109263029F918F911F90E9
:101390001FBE1F9018958091640290916502981766
:1013A000A1F3882361F0109262028091640280931D
:1013B00065029F918F911F901FBE1F90189580917D
:1013C00066028F3F91F38F5F80936602EECF1F928C
:1013D0000F920FB60F9211242F933F934F935F9369
:1013E0006F937F938F939F93AF93BF93EF93FF93ED
:1013F00080916000806480936000E091C001F0E023
:10140000EE0FFF1FEE54FE4F80819181DC01ED91C4
:10141000FC910190F081E02D09958091C00186300A
:10142000C8F48F5F8093C0018091600080648093D6
:101430006000FF91EF91BF91AF919F918F917F914C
:101440006F915F914F913F912F910F900FBE0F9031
:101450001F90189580E0E6CFEF92FF921F93CF93F5
:10146000DF93EC01162F8B81861771F0E881F981EB
:10147000E084F1840484F585E02DCE010995682F80
:10148000CE01F70109951B83DF91CF911F91FF904A
:10149000EF900895CDB7DEB7A297DEBFCDBF8091A4
:1014A000C10116E00AE0E02E93E1F92E00E1282FB9
:1014B00030E08930F0F7F901E551FA4E0C949613BB
:1014C00080915E0291E0892780935C024C9BC3C3AC
:1014D00066E0D62ECC24C39474E0B72E80915F02D0
:1014E000882369F08091630281117CC5809162023A
:1014F0008B3028F490916402992309F490C4809170
:10150000C101863009F49CC28091200290911B0297
:10151000880F892B813009F4B2C1811101C3109267
:1015200016022C9AD092C10183B7816083BF88953F
:1015300083B78E7F83BFD2CF2D9A91E023E0809135
:101540005F02882379F08091630281114DC28091FE
:1015500062028B3038F430916402311103C0843060
:1015600008F446C280916C02811107C090935E021C
:1015700080915F02882309F437C08091250283306F
:1015800009F41BC2209325028FB7F894109323020D
:10159000109224028FBF83B7816083BF889583B781
:1015A0008E7F83BFCCCF2C9A2D9A21E015C08091DD
:1015B0002502882309F4EAC1109225028FB7F89416
:1015C00010932302109224028FBF83B7816083BFE0
:1015D000889583B78E7F83BF809100018111B6C14A
:1015E00080916C028111E3CF88E08093C1015FCFCD
:1015F0005C9A4EE231E080910001811164C18091DA
:101600006C02811140C188E08093C1014C9B4FCF97
:101610005C9882E080935B0280915D02882309F4EC
:101620002BC430E020E032C08091590290915A02E0
:101630008497C8F180912B0290912C024FB7F894B7
:1016400060912802709129027E8B6D8B4FBF4D896E
:101650005E89841B950B2817390728F580915B025A
:101660008D7F09F49BC48091590290915A02280FF2
:10167000391F4FB7F8948091590290915A0296956C
:10168000879590935A02809359024FBF80915B02D5
:101690008D7F51F64FB7F8948091590290915A027C
:1016A0004FBF849738F680915B028D7F09F474C632
:1016B0008091590290915A022FB7F8949093290281
:1016C000809328022FBF90932C0280932B0280914D
:1016D000C101EDCE4C9B6EC05C9892E090935B0292
:1016E00090915D02992309F4DAC550E040E033C0DF
:1016F00020912B0230912C029FB7F8946091280220
:10170000709129027E8F6D8F9FBF6D8D7E8D261B00
:10171000370B4217530798F590915B029D7F2091FC
:10172000590230915A02911107C09FB7F894209145
:10173000590230915A029FBF420F531F9FB7F8942E
:101740002091590230915A023695279530935A02CA
:10175000209359029FBF90915B029D7F2091590277
:1017600030915A02911107C09FB7F8942091590205
:1017700030915A029FBF2432310508F0B9CF9091C1
:101780005B029D7F2091590230915A02911107C04E
:101790009FB7F8942091590230915A029FBF9FB78A
:1017A000F89430932902209328029FBF30932C0293
:1017B00020932B022D982C9810925F0291E0909329
:1017C000630290916B0090FFDDC391E09093000164
:1017D00093B7917F9C6093BF9091200220911B0250
:1017E000990F922B913009F44AC0782FE1E0F2E092
:1017F000911117C11092160260916C0221E0309194
:101800000101323008F420E03FB7F8944091230200
:10181000509124025C8F4B8F3FBF4B8D5C8D452BCD
:1018200039F4763008F41CC4262F662309F413C358
:10183000933031F0992379F090915E02992359F019
:10184000611104C090915F02992349F090915B026D
:10185000992309F444C3222311F061113EC393B7C5
:10186000916093BF889593B79E7F93BF909120021C
:1018700020911B02990F922B913009F0B9CF90E083
:1018800080E00E94331580910101849FC0011124E2
:10189000019620912502213009F43AC030932502A7
:1018A0002FB7F89490932402809323022FBF83B71D
:1018B000816083BF889583B78E7F83BF809100014D
:1018C000882309F49CCE90915F02992369F090914E
:1018D00063029111B2C3909162029B3028F420916F
:1018E0006402222309F40EC390916C02911107C087
:1018F00030935E0290915F02992309F484CE813087
:1019000009F0C1CF88E190E020912502213031F625
:101910005FB7F89460912302709124027C8B6B8BEB
:101920005FBF6B897C89672B09F0C1CF3FB7F89403
:1019300090932402809323023FBF83E08093C101F0
:10194000209301015C988091C101B1CD80915F022B
:10195000882369F08091630281116AC380916202D9
:101960008B3028F490916402992309F4EBC28091A2
:101970006C0281111CCE20935E0280915F0288234D
:1019800009F432CE80912502811116CE8FB7F894DA
:101990004091230250912402588F4F8B8FBF8F8923
:1019A000988D892B09F011CE8FB7F89410932302EC
:1019B000109224028FBF82E018CE8FB7F894409126
:1019C000230250912402588B4F878FBF4F8558892F
:1019D000452B09F0E0CD8FB7F894109323021092B5
:1019E00024028FBF85E001CE809164028111BACDBF
:1019F000809163028111B6CD80916602882309F43B
:101A0000B1CD10925F0280916B0080FFABCD3FB7EC
:101A1000F89480916B008E7F80936B003FBFD89AC3
:101A2000A1CD2091C601222309F4F7C0933009F417
:101A3000DDC09091160260916C029111F2C0DECE71
:101A400080912502843009F416C3B09225028FB725
:101A5000F894E0922302109224028FBF80916C02CE
:101A6000811162CDC0925E0280915F0281115CCDD6
:101A700088E08093C1018091C101873009F465C479
:101A800010925D024C9B79C15C9882E080935B026E
:101A900080915D02882309F4C1C430E020E034C0A5
:101AA0008091590290915A02849708F4A2C48091BF
:101AB0002B0290912C024FB7F894609128027091FC
:101AC000290278876F834FBF4F815885841B950B00
:101AD0002817390708F08DC480915B028D7F09F4C7
:101AE00048C48091590290915A02280F391F4FB76C
:101AF000F8948091590290915A0296958795909307
:101B00005A02809359024FBF80915B028D7F41F64C
:101B10004FB7F8948091590290915A024FBFC4CFA9
:101B20009091C601911173C18093160280916C024D
:101B3000811107C0C0925E0280915F02882309F480
:101B400097CF80915B02813009F499CE8091C601D4
:101B5000882309F4E9CC10925C028091570290919D
:101B600058020097A9F19C0150E040E02F8F38A364
:101B700049A35AA3CA01B9010E94381426E636E6E1
:101B800046EA5FE36F8F78A389A39AA36F8D78A14C
:101B900089A19AA10E94C61420E030E040E05FE3F2
:101BA0006F8F78A389A39AA36F8D78A189A19AA139
:101BB0000E949D136F8F78A389A39AA36F8D78A13C
:101BC00089A19AA10E940914CB016933704310F0D6
:101BD00088E390E32FB7F89490932902809328022A
:101BE0002FBF90932C0280932B029ECC2091120247
:101BF000309113022115310509F41BCF4FB7F8942A
:101C0000A0911402B0911502BA8FA98F4FBF498DD0
:101C10005A8D4217530708F40CCF90931602609127
:101C20006C022091630221110DC2209162022B30BF
:101C300008F0A7C3309164023111E0CD243008F4DC
:101C400005C2662309F468C3933011F0E0935E0285
:101C500010925B02D3CD5C9A83E080935B0280910B
:101C6000570290915802009709F495C19C0150E0E9
:101C700040E02F8F38A349A35AA3CA01B9010E949B
:101C8000381426E636E646EA5FE36F8F78A389A329
:101C90009AA36F8D78A189A19AA10E94C61420E011
:101CA00030E040E05FE36F8F78A389A39AA36F8D44
:101CB00078A189A19AA10E949D136F8F78A389A30F
:101CC0009AA36F8D78A189A19AA10E940914693302
:101CD00030E3730708F05FC186E292E00E949F0143
:101CE000F7CB95E010C0909325028FB7F89410932E
:101CF0002302109224028FBF83B7816083BF88952F
:101D000083B78E7F83BF80912502853061F78FB7BF
:101D1000F89420912302309124023E832D838FBFBB
:101D20002D813E81232B41F78FB7F8941093230226
:101D3000109224028FBF2D982C9880915E028823E8
:101D400009F442C21092C10180912502863009F443
:101D50001AC286E080932502DFB6F894E091210252
:101D6000F0912202848195818B59914009F025C21E
:101D7000F092230200932402DFBE8091C10197CB31
:101D800021E032E08091000181111DC080916C0240
:101D90008823B1F180912502823009F407C1309384
:101DA00025028FB7F89410932302109224028FBF5C
:101DB00083B7816083BF889583B78E7F83BF80910F
:101DC0000001882319F380915F02882379F08091C4
:101DD000630281110CC1809162028B3038F49091C2
:101DE0006402911103C0843008F405C180916C0233
:101DF0008111D0CF20935E0280915F028111CACF02
:101E000088E08093C1012C988091C10150CB833030
:101E100009F4D2C280911602811188CE82CB84301F
:101E200008F06DCB80916302811169CB80916602CD
:101E3000882309F464CB10925F0280916B0080FFCD
:101E40005ECB9FB7F89480916B008E7F80936B0080
:101E50009FBFD89A54CB20910101253018F42F5FF1
:101E6000209301012FB7F894F092230200932402EB
:101E70002FBF782F21E0DCCC80915B028D7F09F4AD
:101E800083C28091590290915A022FB7F89490938F
:101E90002902809328022FBF90932C0280932B025B
:101EA00080915B028D7F09F47FC2809159029091ED
:101EB0005A02803C984008F060CF2FB7F894809188
:101EC000590290915A02880F991F90935A02809359
:101ED00059022FBF8091C101EACA1092000181E02E
:101EE0008093C7018093C10190915F0291112AC232
:101EF00080916B0080FDDFC283B7817F83BF8091BB
:101F0000C101D5CA943008F0EFCC909163029111D1
:101F1000EBCC90916602992309F4E6CC10925F0213
:101F200090916B0090FFE0CC9FB7F89480916B008C
:101F30008E7F80936B009FBFD89A809100018111A2
:101F4000D3CC5DCB843008F012CD80916302811137
:101F50000ECD80916602882309F409CD10925F02AC
:101F600080916B0080FF03CD9FB7F89480916B0048
:101F70008E7F80936B009FBFD89A80910001811162
:101F8000F6CC2ECB2FB7F89490916B009160909384
:101F90006B002FBF1ACC68E370E39ECE4FB7F89466
:101FA0008091590290915A024FBF61CB8FB7F8943C
:101FB00040912302509124025A8B498B8FBF89890B
:101FC0009A89892B09F0F4CE8FB7F89410932302E5
:101FD000109224028FBF80910001882309F410CF52
:101FE00084E00FCF80916402811189CA1BCF809158
:101FF00064028111FBCE809163028111F7CE809142
:102000006602882309F4F2CE10925F0280916B0081
:1020100080FFECCE9FB7F89480916B008E7F809309
:102020006B009FBFD89A809100018111DFCEAECEA8
:102030008091640281119BCC88CF909164029111B0
:1020400053CC63CF209164022111D8CB209163023D
:102050002111D4CB20916602222309F4CFCBF4CDF9
:10206000F09300017F5F3FB7F894F0922302009352
:1020700024023FBFDDCB8FB7F8942091230230912B
:1020800024023E872D878FBF8D859E85892B09F081
:10209000E5CC8FB7F894E0922302109224028FBF10
:1020A00087E08093C10180915E028111E4CCB09001
:1020B0005C02BB2009F4DFCC80912B0290912C02B2
:1020C0002FB7F89440912802509129025A874987E6
:1020D0002FBF29853A85821B930B20914D023091A9
:1020E0004E02A9014C5F5F4F295232402D3131051C
:1020F0000CF0C2C150934E0240934D0280904D02AD
:1021000090904E02D40113969C938E931297CD908B
:10211000DC9020915302309154028216930609F408
:10212000DCC1E0915302F091540223E532E0B901A1
:10213000AA24A39420C0428153814817590758F418
:10214000D9018D919C91D4018D939C93D9018D924D
:102150009C9280E090E0BB2019F0DB016D917C91B6
:10216000BA24B2E0EF34FB0709F49DC150814181EC
:102170009F01E52FF42F4081518184169506D9F6F1
:10218000D182C082D8CF8FB7F894209123023091AA
:1021900024023A8329838FBF89819A81892B09F090
:1021A000ECCDDFB6F894E0912102F0912202848117
:1021B00095818B59914009F4DBCD63E170E181E2B7
:1021C00092E00E949B01D8CD8FB7F8942091140221
:1021D000309115023C832B83109214021092150249
:1021E0008FBF8B819C812091080230910902A90147
:1021F0004C5F5F4F245C31402D3331050CF09BC0A8
:1022000050930902409308028090080290900902BE
:10221000D40113969C938E931297CD90DC902091CD
:102220000E0230910F028216930609F4DDC0E09190
:102230000E02F0910F02BB24B3944EE052E0BA01BB
:102240000EC0DB016D917C91B2E0EA30FB0709F42E
:1022500087C0B12C30812181AF01E32FF22F208183
:1022600031818216930609F478C0228133812817C0
:10227000390758F4DA018D919C91D4018D939C9388
:10228000DA018D929C9280E090E0B110DACF22E0EA
:10229000EA30F20709F464C0BB24B394DBCF909119
:1022A0005B029D7F2091590230915A02911107C023
:1022B0009FB7F8942091590230915A029FBF9FB75F
:1022C000F89430932902209328029FBF30932C0268
:1022D00020932B0290915B029D7F209159023091B7
:1022E0005A02911107C09FB7F8942091590230917A
:1022F0005A029FBF203C384008F05CCA9FB7F89450
:102300002091590230915A02220F331F30935A0202
:10231000209359029FBF4ECA30916C0220916B02EC
:10232000321709F491CC2FB7F894109269021092E9
:102330006A022FBF89CC28EC31E030930902209348
:10234000080262CF80936302D7CD10925E0288E0CC
:102350008093C1011092C70195CBD182C08285CFF5
:10236000DB0112968D919C9190931302809312023F
:10237000E9CC4FB7F8948091590290915A024FBF1F
:10238000B4CBE0935F025DCC2FB7F89480915902F3
:1023900090915A022FBF79CD2FB7F89480915902AE
:1023A00090915A022FBF88C92FB7F8948091590293
:1023B00090915A022FBF7DCD2091120230911302CD
:1023C0002115310509F426CD9FB7F89440911402E8
:1023D000509115025C874B879FBF4B855C854217E8
:1023E000530708F417CDA0CBD0920F02C0920E0273
:1023F0001ECF80915B028D7F09F44DC08091590200
:1024000090915A022FB7F894909329028093280252
:102410002FBF90932C0280932B02AFCC80915B0254
:102420008D7F89F18091590290915A022FB7F894CB
:1024300090932902809328022FBF90932C028093BF
:102440002B0280915B028D7F09F43FC0809159027D
:1024500090915A02803C984008F08FCC2FB7F894A6
:102460008091590290915A02880F991F90935A02B5
:10247000809359022FBF81CC2DE232E030934E027F
:1024800020934D023BCE2FB7F89480915902909142
:102490005A022FBFCBCF2FB7F89480915902909159
:1024A0005A022FBFAFCFFB018281938190935802D4
:1024B00080935702E0CA9FB7F89480916B008E7F9B
:1024C00080936B009FBFD89A17CD2FB7F894809157
:1024D000590290915A022FBFBDCFD0925402C092A0
:1024E00053021FCECF9389B1817010921E02809348
:1024F0001F028093200282E991E090931D02809355
:102500001C02509869B161708CE192E00E942C0A23
:1025100089B183FB882780F91092190280931A02EF
:1025200080931B028EE791E090931802809317022C
:10253000539869B163FB662760F987E192E00E94D6
:102540002C0A89B182FB882780F91092C4018093FC
:10255000C5018093C60186E591E09093C301809305
:10256000C201529869B162FB662760F982EC91E082
:102570000E942C0A8AE691E09093C3018093C201E5
:1025800081E08093C701E8ECF1E080E4DF011D9277
:102590008A95E9F7F0930902E093080210920B0282
:1025A00010920A0210920D0210920C028AE092E040
:1025B00090930F0280930E0210921102109210025B
:1025C000109213021092120210921502109214022D
:1025D00089B18695817010926A021092690222E395
:1025E00031E030936802209367029FB7F8949FBF51
:1025F00080936B0280936C028EE191E0909368026D
:10260000809367025198C9B1C695C17080916B02E1
:10261000C81761F06C2F87E692E00E943601BC017A
:1026200087E692E00E948205C0936B0282E491E00B
:10263000909368028093670289B191E086958170DA
:10264000892780936F0226E131E030936102209365
:102650006002109262021092630210926602209849
:1026600083B18170809365028093640226E131E03A
:102670003093610220936002109229021092280286
:1026800026EA31E030932702209326028FB7F89490
:102690008FBF10922A0246E051E0509327024093E8
:1026A0002602EDE2F2E080E2DF011D928A95E9F771
:1026B000F0934E02E0934D021092500210924F029E
:1026C00010925202109251024FE452E05093540281
:1026D00040935302109256021092550210925802E3
:1026E0001092570243E250E050935A02409359022D
:1026F00010925B0290935C0290935D02549A5C98F6
:10270000109224021092230230932202209321027D
:102710008FB7F8948FBF86EA91E09093220280935E
:1027200021028FEF80932502CF910895EE0FFF1FB6
:102730000590F491E02D09945058BB27AA270E94D8
:10274000B4130C948C140E947E1438F00E948514EB
:1027500020F039F49F3F19F426F40C947B140EF406
:10276000E095E7FB0C947514E92F0E949D1458F333
:10277000BA17620773078407950720F079F4A6F566
:102780000C94BF140EF4E0950B2EBA2FA02D0B0164
:10279000B90190010C01CA01A0011124FF27591BA6
:1027A00099F0593F50F4503E68F11A16F040A22FAC
:1027B000232F342F4427585FF3CF4695379527951D
:1027C000A795F0405395C9F77EF41F16BA0B620B1C
:1027D000730B840BBAF09150A1F0FF0FBB1F661F63
:1027E000771F881FC2F70EC0BA0F621F731F841FA6
:1027F00048F4879577956795B795F7959E3F08F0CC
:10280000B0CF9395880F08F09927EE0F979587958D
:1028100008950E94A51488F09F5798F0B92F992722
:10282000B751B0F0E1F0660F771F881F991F1AF0BB
:10283000BA95C9F714C0B13091F00E94BF14B1E04D
:1028400008950C94BF14672F782F8827B85F39F04C
:10285000B93FCCF3869577956795B395D9F73EF454
:1028600090958095709561957F4F8F4F9F4F0895FC
:10287000E89409C097FB3EF490958095709561951A
:102880007F4F8F4F9F4F9923A9F0F92F96E9BB27D0
:102890009395F695879577956795B795F111F8CF4C
:1028A000FAF4BB0F11F460FF1BC06F5F7F4F8F4FB7
:1028B0009F4F16C0882311F096E911C0772321F0AD
:1028C0009EE8872F762F05C0662371F096E8862F45
:1028D00070E060E02AF09A95660F771F881FDAF79C
:1028E000880F9695879597F9089597F99F6780E8DF
:1028F00070E060E008959FEF80EC089500240A9452
:102900001616170618060906089500240A941216CA
:102910001306140605060895092E0394000C11F4FD
:10292000882352F0BB0F40F4BF2B11F460FF04C0AA
:102930006F5F7F4F8F4F9F4F089557FD9058440F03
:10294000551F59F05F3F71F04795880F97FB991F0E
:1029500061F09F3F79F087950895121613061406CB
:10296000551FF2CF4695F1DF08C016161706180658
:10297000991FF1CF86957105610508940895E89433
:10298000BB2766277727CB0197F908950E94D914B2
:102990000C948C140E947E1438F00E94851420F050
:1029A000952311F00C9475140C947B1411240C9441
:1029B000C0140E949D1470F3959FC1F3950F50E0D1
:1029C000551F629FF001729FBB27F00DB11D639FE1
:1029D000AA27F00DB11DAA1F649F6627B00DA11D87
:1029E000661F829F2227B00DA11D621F739FB00D2D
:1029F000A11D621F839FA00D611D221F749F33279D
:102A0000A00D611D231F849F600D211D822F762F35
:102A10006A2F11249F5750409AF0F1F088234AF012
:102A2000EE0FFF1FBB1F661F771F881F915050407E
:102A3000A9F79E3F510580F00C9475140C94C014B6
:102A40005F3FE4F3983ED4F3869577956795B79505
:102A5000F795E7959F5FC1F7FE2B880F911D96951F
:102A6000879597F90895F8944C9BAAC05C9882E0EA
:102A700080935B0280915D0281111DC066C04FB7DB
:102A8000F8948091590290915A024FBF04C08091EE
:102A9000590290915A02280F391F4FB7F89480912C
:102AA000590290915A029695879590935A02809375
:102AB00059024FBF02C030E020E080915B028D7F61
:102AC00041F44FB7F8948091590290915A024FBF48
:102AD00004C08091590290915A028497D0F080915D
:102AE0002B0290912C024FB7F894609128027091BC
:102AF00029027A8369834FBF49815A81841B950BD0
:102B00002817390730F480915B028D7F09F0BFCF21
:102B1000B6CF80915B028D7F41F42FB7F8948091FE
:102B2000590290915A022FBF04C08091590290918E
:102B30005A022FB7F89490932902809328022FBF4E
:102B400090932C0280932B023BC080915B028D7F7F
:102B500041F42FB7F8948091590290915A022FBFF7
:102B600004C08091590290915A022FB7F894909323
:102B70002902809328022FBF90932C0280932B026E
:102B800080915B028D7F41F42FB7F89480915902B8
:102B900090915A022FBF04C08091590290915A021D
:102BA000803C984068F42FB7F89480915902909136
:102BB0005A02880F991F90935A02809359022FBF8F
:102BC0002D982C9883B7816083BF889583B78E7FBB
:102BD00083BFF894FFCF6A0BD30AF80AC00E9C0A91
:082BE000600A590A590A710E3E
:102BE8000201000000003F0661019B01C1019F0135
:102BF80055050000000055067A050000000066062D
:102C08005105C5017B0682057F064905C4050000FC
:102C1800000066065406C5017B0682057F06000093
:102C2800000066064501C5017B0682057F06360160
:102C3800C405000000002D050701F1000401E100B2
:102C4800F4002705ED05000000000B010701F10065
:102C58000401E100F4002705ED05000000002D0542
:102C68000701F1000401E100F40021051606000047
:102C780000002D050701F1000401E100F400210521
:102C88009D05000000003F0654069B01C101CB01D1
:102C980055051C021702C2016702260221026002C2
:00000001FF
