:100000000C9457000C94D60D0C94120E0C94590EAF
:100010000C94990E0C94DF000C94DF000C94DF001C
:100020000C94DF000C94D80E0C94DF000C94DF00CD
:100030000C944E0F0C94DF000C94DF000C94DF0046
:100040000C94DF000C94DF000C94DF000C94DF00B4
:100050000C94DF000C94DF000C94DF000C948F0FE5
:100060000C94DF000C94DF000C94DF000C94DF0094
:100070000C94DF000C94DF000C94DF000C94DF0084
:100080000C944C100C94DF000C94DF000C94DF00F7
:100090000C94DF000C94DF000C94DF000C94DF0064
:1000A0000C94DF000C94DF000C94DF007C1E14BE67
:1000B00080E885BF85BF549A5C98249A2C98579AFB
:1000C0005F9884B1817784B99FB7F89484B18177C0
:1000D00084B985B18E6885B99FBF8AB18F798AB995
:1000E0009FB7F8948AB18F798AB98BB180668BB942
:1000F0009FBF87B117B89FB7F89487B117B888B179
:100100008FEF88B99FBF9DB11DB89FB7F8942DB1EF
:100110001DB82EB18EB99FBF90B310BA9FB7F89497
:1001200020B310BA21B381BB9FBFEAE7F0E0808122
:100130008F77808380B7806880BF8DE8809364006C
:1001400089E98093650011241FBECFEFDAE0DEBF9E
:10015000CDBF11E0A0E0B1E0E4E0F1E402C0059021
:100160000D92AE3FB107D9F722E0AEEFB1E001C08A
:100170001D92A73BB207E1F710E0C7E5D0E004C04D
:100180002197FE010E943220C635D107C9F7F894A5
:10019000A895E0E6F0E088E180838BE4808381E04D
:1001A000809368001BBA80936B0085E5809369009B
:1001B0001CBA8FE08DBB0E9481110C9438200C94E6
:1001C0000000DC01ED91FC9111970480F581E02D98
:1001D00080E0E13FF80719F412966C930895CD0181
:1001E0000994FC0162830895DC01ED91FC91119763
:1001F0000680F781E02D81E0E430F80719F41296CB
:100200008C910895CD010994FC0182810895FC012F
:10021000838184830895CF93DF93EC018A818823BF
:1002200059F081508A838C81882319F08D8188232D
:1002300079F0DF91CF910895E881F9810280F3810F
:10024000E02D21E0E730F20771F48B818C83EBCF56
:10025000CE5ADF4F888199818F3F980751F30196DD
:1002600099838883E6CFCE010995DDCFFC01808597
:10027000823041F0662319F083E090E0089586E033
:1002800090E0089583E190E10895FC0184819581D7
:10029000891709F445C0811124C081E080878CE56D
:1002A00095E0938382838BEE91E09093B3028093E9
:1002B000B20280916500877F809365008EE090E0B8
:1002C0009093990080939800C09A10929500109294
:1002D0009400809191008560809391008481858352
:1002E0000895108684EF91E09093B3028093B20258
:1002F00080916500877F809365008EE090E0909309
:10030000990080939800C09A1092950010929400E2
:100310008091910085608093910084818583089508
:100320008581811105C08085813011F482E080874C
:10033000089580E00895FC01738362830895FC01B1
:1003400082819381089582E00895CF93DC01CFB735
:10035000F894ED91FC9111970480F581E02D81E0F6
:10036000EB39F80741F412966C93129713967C932D
:10037000CFBFCF910895CD010995CFBFCF910895FB
:10038000FC0192AD81E0913009F080E00895FF9288
:100390000F931F93CF93DF93EC018B01FFB6F8947B
:1003A000E881F9810480F581E02D81E0EB39F807DF
:1003B00059F46A831B83FFBE0D831E83DF91CF91A7
:1003C0001F910F91FF900895CE010995F4CFCF931F
:1003D000DF93CDB7DEB762970FB6F894DEBF0FBEDE
:1003E000CDBF80910001813009F0A6C08091AE029E
:1003F00091E0892720910001213009F4C1C08111C9
:1004000015C08091FF01823009F433C1833009F4B3
:1004100027C1813009F4D3C081E062960FB6F89409
:10042000DEBF0FBECDBFDF91CF9108959093A7029D
:100430008091A8028111E5CF88E08093FF0180912F
:10044000A602813009F0EBC08FEF8093A60283B73C
:10045000817F83BF9FB7F894809164008F7D8093E4
:1004600064009FBF8091A4029091A502892B09F49A
:1004700073C12FB7F8948091A4029091A5022FBF69
:100480008937910508F484C18FE287BD8FB7F8944E
:10049000A89A16BC9DE095BD8FBF82E08093A10213
:1004A0008091A302882309F482C130E020E034C0A7
:1004B00080919F029091A002849708F4BDC1809121
:1004C0007102909172024FB7F89460916E02709130
:1004D0006F027A8769874FBF49855A85841B950BC0
:1004E0002817390708F0A8C18091A1028D7F09F46F
:1004F00052C180919F029091A002280F391F4FB7DF
:10050000F89480919F029091A00296958795909380
:10051000A00280939F024FBF8091A1028D7F41F680
:100520008FB7F89440919F025091A0025C874B874F
:100530008FBF8B859C85C0CF8091A802882309F44A
:1005400055CF80916302882329F08091640288232B
:1005500009F4CFC18091620290916402911182C12D
:1005600090916302992309F45CC090916402911107
:1005700058C0882309F408C181E08093630236CF14
:1005800081115ACF8091FF01823009F03FCF8091D5
:1005900001012EE2829FC0011124019620916B027D
:1005A000213009F4B0C021E020936B022FB7F894FA
:1005B00090936A02809369022FBF81E02ECF8091D1
:1005C0006B02882309F45BC010926B028FB7F8941A
:1005D00026E030E030936A02209369028FBF1CCF7F
:1005E0008FB7F8942091690230916A023A83298387
:1005F0008FBF89819A81892B09F00ECF8FB7F8942C
:1006000026E030E030936A02209369028FBF809128
:100610000001813009F0ADC088E08093FF0180E0E7
:10062000FCCE90916602282F292B09F4ADC021E061
:1006300020936302833008F0D9CE992309F4D6CEF3
:100640001092A80280916B0080FFD0CE9FB7F894E3
:1006500080916B008E7F80936B009FBFD89AC6CE2F
:1006600080916B02823009F4BBCF82E080936B02F1
:10067000ADCF88E190E0223009F089CF8FCF8FB7DE
:10068000F8942091690230916A023E832D838FBFD6
:100690008D819E81892B09F0BFCE8FB7F89426E01B
:1006A00030E030936A02209369028FBF82E080932A
:1006B000FF0181E08093A60283B7817F83BF9FB74C
:1006C000F894809164008F7D809364009FBF809137
:1006D000A4029091A502892B91F12FB7F8948091F3
:1006E000A4029091A5022FBF8937910508F046C05A
:1006F00083E387BD8FB7F894A89A16BC9DE095BD9B
:100700008FBF81E08ACE3FB7F89440916902509143
:100710006A025C834B833FBF4B815C81452B09F0B0
:100720007BCE3FB7F89490936A02809369023FBFF3
:1007300083E08093FF01209301018FEFBBCF2FB7A0
:10074000F8948091A4029091A5022FBF893791055A
:10075000C0F486E287BDCECF2FB7F8948091A40273
:100760009091A5022FBF8937910578F486E287BD65
:100770008DCE84E08093FF0180E04FCE8FE287BD75
:10078000B9CF83E287BDB6CF31CE83E287BD7ECEBF
:1007900083E387BD7BCE8FB7F89440919F02509141
:1007A000A0025E874D878FBF8D859E85A6CE9091D6
:1007B000A1029D7F20919F023091A00291110BC058
:1007C0009FB7F89420919F023091A002388B2F8719
:1007D0009FBF2F8538899FB7F89430936F0220937D
:1007E0006E029FBF30937202209371029091A1021A
:1007F0009D7F20919F023091A00291110BC09FB765
:10080000F89420919F023091A0023A8B298B9FBFD0
:1008100029893A89203C384008F001CF9FB7F894E5
:1008200020919F023091A002220F331F3093A0022B
:1008300020939F029FBFF1CD8091A1028D7F09F48B
:100840004CC080919F029091A0022FB7F894909392
:100850006F0280936E022FBF909372028093710299
:1008600080E0DBCD893008F05AC0853008F48CC0B8
:1008700080915F02823009F4B9CD9FB7F8948091DE
:100880006500877F8093650024E33CE03093990006
:1008900020939800C09A10929500109294009FBFE8
:1008A0009FB7F89480916400877F809364002CEE5A
:1008B00035E0309389002093880080E480938000A5
:1008C0009FBF9FB7F89480919100856080939100BD
:1008D0009FBF82E080935F0289CD8FB7F89420910B
:1008E0009F023091A00238872F838FBF8F81988518
:1008F000ACCF80916402811179CD8091630288230D
:1009000029F080916402882309F476C090916602F0
:10091000992309F439CF81E0809363028ECE8091D0
:100920005F02833009F462CD9FB7F894809165002F
:10093000877F8093650024E33CE030939900209307
:100940009800C09A10929500109294009FBF9FB794
:10095000F89480916400877F8093640026E436E0F9
:10096000309389002093880080E4809380009FBFAB
:100970009FB7F894809191008560809391009FBF0C
:1009800083E080935F0232CD833008F42FCD8091D5
:100990005F02813009F42ACD9FB7F89480916500F9
:1009A000877F8093650024E33CE030939900209397
:1009B0009800C09A10929500109294009FBF9FB724
:1009C000F89480916400877F8093640027E935E084
:1009D000309389002093880080E4809380009FBF3B
:1009E0009FB7F894809191008560809391009FBF9C
:1009F00081E080935F02FACCF9CC84E00895CF9334
:100A0000DF9300D0CDB7DEB78091A80281114EC030
:100A10008091AE0281110FC081E08093A702809186
:100A2000A802811108C098E09093FF010F900F90E9
:100A3000DF91CF91089580916B02833091F083E034
:100A400080936B028FB7F89426E030E030936A020F
:100A5000209369028FBF81E00F900F90DF91CF91BB
:100A600008958FB7F8942091690230916A023A8311
:100A700029838FBF89819A81892B31F081E00F9082
:100A80000F90DF91CF9108958FB7F89426E030E072
:100A900030936A02209369028FBF85E08093FF0143
:100AA00080E00F900F90DF91CF91089580916302C5
:100AB000882361F180916402811128C080916402D1
:100AC0008111A6CF80916302882329F0809164026E
:100AD000882309F4E5C090916602992309F4A1C026
:100AE00081E080936302992309F492CF1092A802C7
:100AF00080916B0080FF8CCF9FB7F89480916B0042
:100B00008E7F80936B009FBFD89A82CF80916202C4
:100B100090916402911116C090916302992329F07B
:100B200090916402992309F47DC090916602282F68
:100B3000292B09F476C021E020936302833008F06A
:100B400067CFD1CF8930C0F5853008F471C080916E
:100B50005F02823009F45CCF9FB7F8948091650002
:100B6000877F8093650024E33CE0309399002093D5
:100B70009800C09A10929500109294009FBF9FB762
:100B8000F89480916400877F809364002CEE35E0B8
:100B9000309389002093880080E4809380009FBF79
:100BA0009FB7F894809191008560809391009FBFDA
:100BB00082E080935F022CCF80915F02833009F442
:100BC00027CF9FB7F89480916500877F8093650059
:100BD00024E33CE03093990020939800C09A10924F
:100BE0009500109294009FBF9FB7F8948091640085
:100BF000877F8093640026E436E030938900209359
:100C0000880080E4809380009FBF9FB7F894809114
:100C100091008560809391009FBF83E080935F0285
:100C2000F7CEF6CE8823E9F381E080936302F0CE1D
:100C3000833008F4EDCE80915F02813009F4E8CE74
:100C40009FB7F89480916500877F8093650024E3C7
:100C50003CE03093990020939800C09A1092950040
:100C6000109294009FBF9FB7F89480916400877F93
:100C70008093640027E935E0309389002093880051
:100C800080E4809380009FBF9FB7F894809191008B
:100C90008560809391009FBF81E080935F02B8CE12
:100CA000B7CE85E0089588E00895CF93DF9300D014
:100CB000CDB7DEB780916B02853091F085E08093EF
:100CC0006B028FB7F89426E030E030936A022093ED
:100CD00069028FBF81E00F900F90DF91CF9108954F
:100CE0008FB7F8942091690230916A023A83298380
:100CF0008FBF89819A81892B31F081E00F900F900D
:100D0000DF91CF9108958FB7F89426E030E03093CB
:100D10006A02209369028FBF80E00F900F90DF91ED
:100D2000CF910895611102C083E0089586E008958F
:100D3000662311F080E0089583E00895DC011296A7
:100D40008C911297882321F0815012968C930895EC
:100D5000ED91FC9111970280F381E02D81E0E73065
:100D6000F80731F413968C91139714968C93089589
:100D7000CD010994611103C086E090E0089583E0FD
:100D800090E00895FC01848185830895FC018381AE
:100D9000882319F08481882311F08281089580E0EE
:100DA0000895FC0181E082AF83B7817F83BF9FB745
:100DB000F894809164008F7D809364009FBF80AD24
:100DC00091AD892B59F02FB7F89480AD91AD2FBF1D
:100DD00089379105C0F483E387BD0AC02FB7F89423
:100DE00080AD91AD2FBF8937910550F083E287BD6B
:100DF0008FB7F894A89A16BC9DE095BD8FBF089553
:100E000086E287BDF5CF8FE287BDF2CFFC018FEF81
:100E100082AF83B7817F83BF9FB7F89480916400CE
:100E20008F7D809364009FBF80AD91AD892B59F079
:100E30002FB7F89480AD91AD2FBF89379105C0F4DD
:100E400083E387BD0AC02FB7F89480AD91AD2FBF63
:100E50008937910550F083E287BD8FB7F894A89A3F
:100E600016BC9DE095BD8FBF089586E287BDF5CF86
:100E70008FE287BDF2CF9FB7F894E4E6F0E080817F
:100E8000806280839FBF1092C1002E989FB7F89414
:100E9000E5E6F0E080818061808389B58D7F89BD42
:100EA0009FBF0895EF92FF920F931F93CF938C01F2
:100EB000C9B1C095C170DC0113968C9113978C1742
:100EC000A1F0ED91FC91E480F5800484F585E02D9E
:100ED0006C2FC8010995B1EFEB16B0E0FB0659F491
:100EE000F8018283D8011396CC93CF911F910F9173
:100EF000FF90EF900895682FC801F7010995F2CF90
:100F0000EF92FF920F931F93CF938C01C9B1C695B7
:100F1000C17081E0C827D80114968C9114978C1762
:100F2000A9F0ED91FC91E480F5800484F585E02D35
:100F30006C2FC8010995BBE9EB16B1E0FB0661F423
:100F4000F80182839383D8011496CC93CF911F919B
:100F50000F91FF90EF900895BC01C801F70109952A
:100F6000F2CFEF92FF920F931F93CF938C01C9B1F1
:100F7000C2FBCC27C0F981E0C827D80113968C9119
:100F800013978C17A1F0ED91FC91E480F580048417
:100F9000F585E02D6C2FC8010995B1EFEB16B0E097
:100FA000FB0659F4F8018283D8011396CC93CF91B4
:100FB0001F910F91FF90EF900895682FC801F701DE
:100FC0000995F2CFEF92FF920F931F93CF938C016D
:100FD000C9B1C3FBCC27C0F981E0C827D80113965B
:100FE0008C9113978C17A1F0ED91FC91E480F58022
:100FF0000484F585E02D6C2FC8010995B1EFEB163F
:10100000B0E0FB0659F4F8018283D8011396CC9323
:10101000CF911F910F91FF90EF900895682FC80115
:10102000F7010995F2CF1F93CF93DF9300D0CDB78F
:10103000DEB7DC011FB7F894ED91FC9111970680A3
:10104000F781E02D81E0EF39F80771F412962D91C8
:101050003C913A8329831FBF89819A810F900F9019
:10106000DF91CF911F910895CD0109959C01F1CF9A
:1010700083B186FB882780F908952E9808952E9ACB
:101080000895FC0180916B0080FF0AC0848181116A
:101090000FC08381882359F012821682138208952B
:1010A0008381882319F084818823B1F31282089503
:1010B00082818F3FE1F38F5F82830895DC01129676
:1010C0008D919C911397009731F0019713969C9303
:1010D0008E9312970895ED91FC9111970280F38100
:1010E000E02DCD010994DC01D5968C91D597823005
:1010F00029F0833029F1882321F00895D5961C9298
:10110000D597D3966D917C91D49764327105A8F3ED
:10111000D7968C91D797811117C081E0D7968C9381
:10112000D797ED91FC9111970480F581E02D81E036
:10113000EB39F80781F413967C936E931297089518
:1011400081E0D5968C93089576956795D4967C9397
:101150006E93D397E6CFCD010994BF92CF92DF92E1
:10116000EF92FF920F931F93CF93DF93CDB7DEB72C
:101170002C970FB6F894DEBF0FBECDBF8C01DC01FB
:10118000ED91FC910484F585E02D0995882309F4FF
:1011900092C0D801ED91FC910088F189E02DC80141
:1011A000099582E0F80185ABD80187A9882309F465
:1011B00092C0D12CC12C39C0D3968D919C9184972B
:1011C00008F447C0F801E580F680BFB6F8940190B6
:1011D000F081E02D0680F781E02DB1E0EF39FB07CB
:1011E00009F0CEC0F801228133813C832B83BFBE3E
:1011F0008B819C81E81AF90ACE14DF0450F5D801DE
:10120000D5968C918D7F09F4B0C0D801D3968D917D
:101210009C91C80ED91E2FB7F894F80183A994A900
:101220009695879594AB83AB2FBFD801D5968C91BB
:10123000D5978D7F09F0C0CF8FB7F894F80123A917
:1012400034A93E832D838FBF8D819E81849708F0C2
:10125000B9CFD801ED91FC9111970084F185E02D73
:10126000D5968C91D5978D7F09F092C08FB7F89461
:10127000D3962D913C913A8329838FBFE980FA80E0
:10128000B1E0E73CFB0709F091C0DFB6F894D80164
:10129000ED91FC910480F581E02DB1E0EB39FB0785
:1012A00009F09AC0F801F382E282DFBED8011696F7
:1012B000FC92EE9215972C960FB6F894DEBF0FBEF7
:1012C000CDBFDF91CF911F910F91FF90EF90DF90F5
:1012D000CF90BF9008950190F081E02D0084F185BA
:1012E000E02DD5968C91D5978D7F09F04DC08FB7A5
:1012F000F894D3962D913C913A8729878FBFE98442
:10130000FA84B1E0E73CFB0709F062C0DFB6F8946D
:10131000D801ED91FC910480F581E02DB1E0EB392D
:10132000FB0709F05DC0F801F382E282DFBED8015D
:101330001696FC92EE921597F80185A98D7F61F1C2
:1013400083A994A9803C984008F0B5CF2FB7F894B2
:10135000D801D3968D919C91D497880F991FD496DC
:101360009C938E93D3972FBFA6CF8FB7F894F80195
:1013700023A934A938872F838FBF8F81988549CFC0
:10138000C80109959C0131CFD396ED90FC90B9CF5F
:10139000D396ED90FC9074CF8FB7F89423A934A91D
:1013A0003C872B878FBF8B859C85CCCFB701C8012D
:1013B0002C960FB6F894DEBF0FBECDBFDF91CF9154
:1013C0001F910F91FF90EF90DF90CF90BF90099405
:1013D000B701C8010995B0CFB701C801099565CF1C
:1013E000B701C8010995A2CF0895CF93DF9300D02C
:1013F00000D0CDB7DEB7FC0190915E02809159021A
:10140000990F982B913009F4B3C091112DC090938E
:1014100054023091AE0280916302882329F08091BA
:101420006402882309F4E0C0809162022091640282
:101430002111A2C020916302211120C020916602D7
:10144000882309F4E0C041E0409363028930F8F456
:10145000853008F032C1833008F450C1838188237D
:1014600009F48AC163E069C180910402882379F29A
:10147000933009F449C190915402CBCF209164027A
:101480002111DCCF20E08111DECF60E022C02FB738
:10149000F89460ED71E07093B3026093B2028091B2
:1014A0006500877F809365006EE070E0709399001F
:1014B00060939800C09A10929500109294008091C9
:1014C00091008560809391002FBF8381842783835F
:1014D00065E021E080910101823008F420E08FB7BF
:1014E000F8944091690250916A025C834B838FBFEC
:1014F0004B815C81452BB9F48281863008F08FC026
:1015000040910001442309F4A1C043E0409300014D
:101510008F5F82838FB7F89443E150E150936A0262
:10152000409369028FBF8381811111C0613071F0D6
:10153000933031F09923B1F09091A702992391F063
:1015400031110CC09091A802911108C081E00F9058
:101550000F900F900F90DF91CF9108959091A1027D
:101560009923A9F3222391F3311110C1822FEFCFD8
:101570001092540290E04DCF893008F469C08091F8
:101580005F02833079F12FB7F89480916500877FEF
:101590008093650044E35CE0509399004093980089
:1015A000C09A10929500109294002FBF2FB7F89414
:1015B00080916400877F8093640046E456E05093F6
:1015C00089004093880080E4809380002FBF2FB76C
:1015D000F894809191008560809391002FBF83E003
:1015E00080935F0261E075CF809164028111FACF30
:1015F00080916302882329F080916402882309F492
:10160000C3C020916602222309F43FCF81E080937A
:1016100063028381882309F4B3C062E08EC0232F64
:10162000311181CF80910101853008F06BC08F5F4F
:101630008093010112828FB7F89443E150E15093F7
:101640006A02409369028FBF21E06DCF42E05ECF16
:10165000853008F49FC080915F02823019F22FB765
:10166000F89480916500877F8093650044E35CE097
:101670005093990040939800C09A10929500109250
:1016800094002FBF2FB7F89480916400877F8093D8
:1016900064004CEE55E0509389004093880080E44C
:1016A000809380002FBF2FB7F894809191008560C0
:1016B000809391002FBF82E093CF838181113CC042
:1016C00064E0992309F405CF4093A80264E0311146
:1016D0000DC02091AE028091AD02281739F08FB76E
:1016E000F8941092AC021092AB028FBF933019F0B5
:1016F00081E08093A7021092A102EBCE211189CF45
:1017000060E0E7CE85E094CF209150023091510205
:101710002115310509F4AFCE8FB7F89440915202EC
:10172000509153025A8349838FBF49815A8142178E
:10173000530708F06CCE9FCE64E02FB7F89440EDCD
:1017400051E05093B3024093B20280916500877FCD
:10175000809365004EE050E05093990040939800CC
:10176000C09A10929500109294008091910085602B
:10177000809391002FBFADCE63E09111A8CFA9CE89
:1017800062E09111B3CFA5CE60E0A3CE91E090933B
:101790000001DDCE833008F425CF80915F028130D7
:1017A00009F420CF2FB7F89480916500877F80934C
:1017B000650044E35CE05093990040939800C09A20
:1017C00010929500109294002FBF2FB7F89480913B
:1017D0006400877F8093640047E955E05093890057
:1017E0004093880080E4809380002FBF2FB7F89447
:1017F000809191008560809391002FBF81E0F0CEB1
:10180000CF93DF93CDB7DEB728970FB6F894DEBF3E
:101810000FBECDBF8091A80281118BC08091FF01C6
:10182000863009F469C080915E0290915902880F58
:10183000892B8130C9F0882321F090910402911105
:10184000C4C080935402882389F08091AE02811134
:101850001CC081E08093A7024091A802411115C0ED
:1018600088E08093FF0107C0109254022C9A86E012
:101870008093FF0141E0842F28960FB6F894DEBFD5
:101880000FBECDBFDF91CF9108958091A10281302D
:1018900009F4DCC040910402442361F31092A202D7
:1018A000E0919D02F0919E02309709F408C19F01DA
:1018B000ABEABAEA0E9423206D837E838F839887E8
:1018C000DC01CB0121E1B695A795979587952A95DF
:1018D000D1F7E80FF91FE93380E3F80708F0EFC00C
:1018E0008FB7F894F0936F02E0936E028FBFF0937E
:1018F0007202E0937102BFCF80916B02843009F4D1
:10190000E1C084E080936B028FB7F8942AE030E066
:1019100030936A02209369028FBF8091AE028111D9
:10192000A9CF81E08093A7024091A8024111A3CFE3
:1019300097CF80916302882361F1809164028111C5
:1019400028C080916402811169CF8091630288234D
:1019500029F080916402882309F427C190916602DE
:10196000992309F4CBC081E080936302992309F4A1
:1019700055CF1092A80280916B0080FF4FCF9FB788
:10198000F89480916B008E7F80936B009FBFD89AF4
:1019900045CF809162029091640291111CC0909198
:1019A0006302992329F090916402992309F4BFC03E
:1019B00090916602282F292B09F4A0C021E02093E2
:1019C0006302833008F02ACFD1CF833009F497C067
:1019D0008091540238CF893008F03CC0853008F43B
:1019E000ACC080915F02823009F418CF9FB7F894A1
:1019F00080916500877F8093650024E33CE030930D
:101A0000990020939800C09A10929500109294002B
:101A10009FBF9FB7F89480916400877F8093640094
:101A20002CEE35E0309389002093880080E4809389
:101A300080009FBF9FB7F89480919100856080934C
:101A400091009FBF82E080935F02E8CE90E080E04B
:101A50000E94382080915F02833009F4DFCE9FB767
:101A6000F89480916500877F8093650024E33CE0D3
:101A70003093990020939800C09A1092950010928C
:101A800094009FBF9FB7F89480916400877F8093F4
:101A9000640026E436E0309389002093880080E4D7
:101AA000809380009FBF9FB7F894809191008560DC
:101AB000809391009FBF83E080935F02AFCEE8E305
:101AC000F0E30ECF8FB7F8942091690230916A024B
:101AD0003C832B838FBF8B819C81892B09F01DCF89
:101AE0008FB7F8942AE030E030936A0220936902BD
:101AF0008FBF87E08093FF0140E0BDCE8FCE209165
:101B00005002309151022115310509F461CF9FB780
:101B1000F89440915202509153025A8349839FBFD7
:101B200049815A814217530708F08BCE51CF882341
:101B300029F381E08093630271CE833008F46ECE86
:101B400080915F02813009F469CE9FB7F89480914B
:101B50006500877F8093650024E33CE03093990023
:101B600020939800C09A10929500109294009FBF05
:101B70009FB7F89480916400877F8093640027E981
:101B800035E0309389002093880080E480938000C2
:101B90009FBF9FB7F89480919100856080939100DA
:101BA0009FBF81E080935F0239CE38CE1F920F92A3
:101BB0000FB60F9211242F933F934F935F936F9320
:101BC0007F938F939F93AF93BF93CF93EF93FF93A5
:101BD0008BE480936000C9B1C095C17080915D02B3
:101BE0008C1749F063E0C1111BC08AE592E00E94A6
:101BF000F100C0935D028BE480936000FF91EF9150
:101C0000CF91BF91AF919F918F917F916F915F9194
:101C10004F913F912F910F900FBE0F901F901895ED
:101C200066E0E3CF1F920F920FB60F9211242F930D
:101C30003F934F935F936F937F938F939F93AF9354
:101C4000BF93CF93EF93FF938BE48093600089B1B0
:101C5000C1E0982F927081FDC0E08091AD028C1799
:101C600081F08091B10263E170E1823021F063E0A4
:101C700070E091111BC089EA92E00E949B01C09321
:101C8000AD028BE480936000FF91EF91CF91BF9103
:101C9000AF919F918F917F916F915F914F913F9104
:101CA0002F910F900FBE0F901F90189566E070E077
:101CB000E2CF1F920F920FB60F9211242F933F93F2
:101CC0004F935F936F937F938F939F93AF93BF9344
:101CD000CF93EF93FF938BE48093600089B1C1E0D1
:101CE000682F647082FDC0E0809103028C1741F080
:101CF00061111DC080E092E00E94F100C0930302D8
:101D00001092A2028BE480936000FF91EF91CF913B
:101D1000BF91AF919F918F917F916F915F914F9103
:101D20003F912F910F900FBE0F901F90189563E079
:101D3000E1CF1F920F920FB60F9211242F933F9372
:101D40004F935F936F937F938F939F93AF93BF93C3
:101D5000CF93EF93FF938BE48093600089B1C1E050
:101D6000982F987083FDC0E0809158028C1749F03D
:101D700066E091111BC085E592E00E94F100C093DE
:101D800058028BE480936000FF91EF91CF91BF9157
:101D9000AF919F918F917F916F915F914F913F9103
:101DA0002F910F900FBE0F901F90189563E0E3CF17
:101DB0001F921FB61F9211248F939F938BE48093E1
:101DC000600083B18095817080936402809163028A
:101DD0008823F1F080916402811153C01092620255
:101DE00010926602109263028091640280936502F1
:101DF0008BE4809360008091640281111EC08BE4AB
:101E0000809360009F918F911F901FBE1F90189527
:101E10008091640290916502981751F38823B1F183
:101E20001092620280916402809365028BE4809339
:101E3000600080916402882311F380916500877FA0
:101E4000809365008CE093E09093990080939800D4
:101E5000C09A109295001092940080916400877F40
:101E6000809364008BEF94E09093890080938800C6
:101E700080E4809380008091910085608093910040
:101E8000BECF80916502882359F2B2CF809166025D
:101E90008F3F41F28F5F80936602C4CF1F920F92F3
:101EA0000FB60F9211242F933F934F935F936F932D
:101EB0007F938F939F93AF93BF93EF93FF938BE4A5
:101EC00080936000E091FE01F0E0EE0FFF1FEE5303
:101ED000FE4F80819181DC01ED91FC910190F081B8
:101EE000E02D09958091FE018630B8F48F5F8093D4
:101EF000FE018BE480936000FF91EF91BF91AF9161
:101F00009F918F917F916F915F914F913F912F9111
:101F10000F900FBE0F901F90189580E0E8CF0F92A2
:101F20000FB60F921F9211242F933F934F935F93FD
:101F30006F937F938F939F938BE4809360002091A6
:101F4000A6028091A4029091A50212160CF05BC02B
:101F5000022E000C330B4FE752E0BA01621B730BE9
:101F60008617970798F549B5426049BD09B400FE48
:101F7000FDCF409165004F7E40936500820F931F17
:101F80009093BF008093D0009093A5028093A40209
:101F900021E02093C1002091A602213009F058C011
:101FA0008937910508F06CC083E387BD8BE480938B
:101FB00060009F918F917F916F915F914F913F91C1
:101FC0002F911F900F900FBE0F90189582E0809375
:101FD000BF008FE78093D0005093A5024093A402E6
:101FE0001092C1002E9A80916500806180936500F7
:101FF00089B58D7F89BD8091A602813009F049C0E5
:102000008FE287BD2DC0022E000C330B44275527CD
:10201000421B530B4817590760F11092BF001092F2
:10202000D0001092A5021092A4021092C1002E9826
:102030008091650080618093650089B58D7F89BD41
:102040008091A602813009F4AFCF86E287BD08C037
:1020500089379105D8F426E227BD892B09F0A6CF50
:1020600085B5887F85BD809164008062809364001F
:102070009DCF49B5426049BD09B400FEFDCF79CF7F
:102080002FE227BD8F37924059F390CF23E227BD2F
:10209000E4CF83E287BD8ACF0F920FB60F921F92D3
:1020A00011242F933F934F935F936F937F938F935D
:1020B0009F93AF93BF93EF93FF93CF93DF9300D0A2
:1020C00000D0CDB7DEB78BE480936000E091B20220
:1020D000F091B302408151812281222309F45DC035
:1020E0008091B2029091B30203969093B3028093D1
:1020F000B20230E0A0E8BEE30E94232069837A8325
:102100008B839C83DC01CB012AE0B695A79597953C
:1021100087952A95D1F7019720916500277F209315
:1021200065009093990080939800C09A1092950052
:10213000109294004F3F540709F442C041155105D5
:1021400009F443C080916400877F809364005093BA
:1021500089004093880080E4809380008091910002
:102160008560809391008BE4809360000F900F90C6
:102170000F900F90DF91CF91FF91EF91BF91AF91B1
:102180009F918F917F916F915F914F913F912F918F
:102190001F900F900FBE0F901895809191008B7F2C
:1021A00080939100C09A10929500109294008091B3
:1021B00065008860809365004F3F540709F0BECFEB
:1021C0005093890040938800C9CF1092800080917D
:1021D00064008860809364002D98C0CFCF93DF9314
:1021E00000D000D0CDB7DEB7FC01A081B1814D9108
:1021F0005C91119712962C91222309F444C080819E
:10220000918103969183808330E0A0E8BEE30E9431
:10221000232069837A838B839C83DC01CB012AE0B2
:10222000B695A795979587952A95D1F7019720910F
:102230006500277F20936500909399008093980014
:10224000C09A10929500109294004F3F540769F184
:102250004115510579F180916400877F8093640076
:10226000509389004093880080E48093800080919F
:1022700091008560809391000F900F900F900F90C8
:10228000DF91CF910895809191008B7F8093910091
:10229000C09A109295001092940080916500886019
:1022A000809365004F3F540799F6509389004093FF
:1022B0008800DDCF10928000809164008860809358
:1022C00064002D98D4CFEF92FF921F93CF93DF93AA
:1022D000EC01162F8B81861771F0E881F981E0847B
:1022E000F1840484F585E02DCE010995682FCE0197
:1022F000F70109951B83DF91CF911F91FF90EF901C
:102300000895CDB7DEB7C054D109DEBFCDBF7894F4
:102310008091FF0164E3A62E6CE0B62E76E4272EB2
:1023200076E0372E16E0EAE06E2E712C843009F448
:10233000CEC0853008F0FEC0882309F42EC32C9A45
:102340005C9A40E4D42E81E042E073E0EFEF6DE070
:1023500003E2F6E25FE2F52EB3E35EE29BE4209156
:102360000001213021F02091A802211140C22091CA
:10237000AE02282730910001313009F4E1C1222357
:1023800009F4BDC08093A7022091A8022111B7C013
:1023900088E08093FF018091A602813009F091C00E
:1023A0008FEF8093A60283B7817F83BF9FB7F89496
:1023B000809164008F7D809364009FBF8091A40210
:1023C0009091A502892B11F40C94AD1A2FB7F894B3
:1023D0008091A4029091A5022FBF8937910510F03A
:1023E0000C94AD1C83E387BD8FB7F894A89A16BCF4
:1023F0009DE095BD8FBF82E08093A1028091A302F2
:10240000882311F40C94791A30E020E033C08091D5
:102410009F029091A002849708F43EC080917102BF
:10242000909172024FB7F89460916E0270916F02B2
:1024300078AB6FA74FBF4FA558A9841B950B2817E2
:10244000390750F58091A1028D7F09F46DC180910B
:102450009F029091A002280F391F4FB7F8948091E6
:102460009F029091A002969587959093A0028093E9
:102470009F024FBF8091A1028D7F49F68FB7F894DC
:1024800040919F025091A0025AAB49AB8FBF89A9DE
:102490009AA9849708F0C2CF8091A1028D7F11F490
:1024A0000C94091C80919F029091A0022FB7F89480
:1024B00090936F0280936E022FBF9093720280936D
:1024C00071022C988091FF01843009F032CF5C9A20
:1024D00060E421E072E033E09BE48091A802811186
:1024E000E1C18091AE028111BBC12093A70280910E
:1024F000A8028111B5C188E08093FF0117CF209118
:10250000FF01223009F44FC1233009F444C12130C6
:1025100009F432C123B7217F23BF23B7216023BF32
:10252000889523B72E7F23BF2FB7F8949093600030
:102530002FBF15CF853009F402C2883009F0F6CEDE
:102540008091A602813009F092C08FEF8093A6029D
:1025500083B7817F83BF9FB7F894809164008F7D9C
:10256000809364009FBF8091A4029091A502892B63
:1025700011F40C94161C2FB7F8948091A40290913A
:10258000A5022FBF8937910510F00C94151D83E328
:1025900087BD8FB7F894A89A16BC9DE095BD8FBFF4
:1025A00082E08093A1028091A302882311F40C940D
:1025B0007E1D30E020E034C080919F029091A00207
:1025C000849708F43FC080917102909172024FB7D6
:1025D000F89460916E0270916F0278876F834FBF9D
:1025E0004F815885841B950B2817390758F5809122
:1025F000A1028D7F11F40C94621D80919F02909135
:10260000A002280F391F4FB7F89480919F02909134
:10261000A002969587959093A00280939F024FBF4A
:102620008091A1028D7F41F68FB7F89440919F026F
:102630005091A0025A8749878FBF89859A858497D0
:1026400008F0C1CF8091A1028D7F11F40C94E91D97
:1026500080919F029091A0022FB7F89490936F02FF
:1026600080936E022FBF909372028093710225E0D7
:102670009BE418C020936B028FB7F8941093690203
:1026800010926A028FBF83B7817F83BF83B7816057
:1026900083BF889583B78E7F83BF8FB7F89490935D
:1026A00060008FBF80916B02853021F78FB7F8945F
:1026B0004091690250916A025C834B838FBF4B81CA
:1026C0005C81452B01F78FB7F89410936902109243
:1026D0006A028FBF5C982C988091A702882311F41E
:1026E0000C94691B1092FF0180916B02863011F4EB
:1026F0000C94451B86E080936B020FB7F894E09131
:102700006702F0916802848195818B59914011F0A4
:102710000C94611B83E190E190936A0280936902BB
:102720000FBF8091FF0102CE8FB7F89440919F02B6
:102730005091A0025CAB4BAB8FBF8BA99CA98BCEF9
:10274000211126CE2091FF01223009F0DDCE20910B
:102750000101259F900111242F5F3F4FA0916B0233
:10276000A13049F180936B02AFB7F89430936A02BD
:1027700020936902AFBFCECE20916B02222309F4D1
:1027800083C510926B022FB7F894109369021092D0
:102790006A022FBFBFCE20916B02223009F4B2C56E
:1027A00040936B02F0CF323091F628E130E0A091F7
:1027B0006B02A130B9F6EFB6F89480906902909060
:1027C0006A029AA689A6EFBE89A49AA4892809F06C
:1027D000A1CEEFB6F89430936A0220936902EFBE5F
:1027E0007093FF01A0930101E093A60266C52091BA
:1027F0006302222331F020916402222311F40C940D
:10280000251C20916202309164023111BBC63091C7
:102810006302332331F030916402332311F40C94BA
:102820000E1E30916602A22FA32B11F40C94A31C50
:1028300080936302233008F09ACD332309F497CDB7
:102840001092A80220916B0020FF91CD3FB7F89421
:1028500020916B002E7F20936B003FBFD89A87CDCD
:1028600080916B02833009F453C030936B028FB7B1
:10287000F8941093690210926A028FBF83B7817F28
:1028800083BF83B7816083BF889583B78E7F83BF03
:102890008FB7F894909360008FBF8091A80288232F
:1028A00009F41FCE80916302882329F0809164028D
:1028B000882309F4A8C58091620240916402411105
:1028C00016C440916302442329F0409164024423DA
:1028D00009F480C740916602582F542B09F407C6AB
:1028E00020936302833008F0FCCD442309F4F9CD32
:1028F0001092A80280916B0080FFF3CD4FB7F8943F
:1029000080916B008E7F80936B004FBFD89AE9CD8A
:102910008FB7F8944091690250916A025EA34DA36B
:102920008FBF4DA15EA1452B09F0A8CF8FB7F894BA
:102930001093690210926A028FBF85E0DDCD80910D
:10294000A70291E089278093A2028091A60281309C
:1029500009F435C29093A60283B7817F83BF9FB7E6
:10296000F894809164008F7D809364009FBF809174
:10297000A4029091A502892B09F4E2C12FB7F89423
:102980008091A4029091A5022FBF8937910510F084
:102990000C94121D83E387BDE0C15C982C981092C3
:1029A000A80281E08093630280916B0080FFFFC6E4
:1029B0001092000190E040E001E0BEE04B2E512C6F
:1029C00082E0982E20E4D22E33E0C32E63E170E142
:1029D0005BE47B0180915E0220915902880F822B7B
:1029E000813009F4B8C0882309F4D0C020910402D2
:1029F000222309F4CBC0833009F4B1C08091540282
:102A0000B091AE0220916302222329F0209164024A
:102A1000222309F4F4C03091620220916402211152
:102A2000B8C020916302222329F02091640222235E
:102A300009F43CC1E0916602332309F4EFC000932E
:102A40006302292F393008F00AC1353008F06EC111
:102A5000333008F424C19111D0C573E08823B1F05C
:102A6000B1110DC03091AE022091AD02321739F094
:102A70002FB7F8941092AC021092AB022FBF8330A4
:102A800011F00093A7021092A10220E0A1E0309182
:102A90000101323008F4A0E03FB7F894E0916902F8
:102AA000F0916A02FCAFEBAF3FBFEBADFCADEF2B9B
:102AB00099F4463008F0BEC030910001332309F488
:102AC000FDC033E0309300014F5F3FB7F894F092C0
:102AD0006A02E09269023FBF211119C07130B9F05A
:102AE000833031F0882379F08091A702882359F050
:102AF000B11104C08091A802882349F08091A102FD
:102B0000882309F46DC4AA2311F0B11135C58FB71C
:102B1000F89409B400FC06C02091640028722832A1
:102B200009F4A9C323B7217F23BF8FBF83B7816077
:102B300083BF889583B78E7F83BF8FB7F8945093F8
:102B400060008FBF80915E0220915902880F822B16
:102B5000813009F048CF1092540280E051CF20918B
:102B60005002309151022115310509F447CFAFB71A
:102B7000F894E0915202F0915302FAAFE9AFAFBF7F
:102B8000E9ADFAADE217F30708F438CF80935402A9
:102B900037CF292F393008F493C030915F0233309A
:102BA00009F488C0EFB7F89430916500377F30930F
:102BB0006500B0929900A0929800C09A109295007A
:102BC00010929400EFBFEFB7F89430916400377F14
:102BD000309364003092890020928800D092800067
:102BE000EFBFEFB7F89430919100356030939100CA
:102BF000EFBFC0925F0271E0911148CF46CF2091A4
:102C000064022111E6C320916302222329F020915E
:102C10006402222309F4B1C6E0916602EE2309F4AE
:102C200048C000936302292F9111CEC572E0811133
:102C300026CF2CCFAB2FB1114FCF309101013530C2
:102C400008F0CCC33F5F309301013FB7F894F09296
:102C50006A02E09269023FBF40E0A1E03DCF3FB78A
:102C6000F894E0EDF1E0F093B302E093B20220912A
:102C70006500277F2093650050929900409298004C
:102C8000C09A1092950010929400209191002560B6
:102C9000209391003FBF9027292F75E0F7CEE111D7
:102CA000C3CF292F70E09111F1CEEFCEE0E03111CA
:102CB000C6CEF7CF71E09111E9CEE7CE32E002CF78
:102CC000353008F405C630915F02323099F3EFB722
:102CD000F89430916500377F30936500B092990089
:102CE000A0929800C09A1092950010929400EFBFA5
:102CF000EFB7F89430916400377F309364006CEE46
:102D000075E07093890060938800D0928000EFBFD7
:102D1000EFB7F89430919100356030939100EFBF98
:102D200090925F0271E09111B1CEAFCE9111B2C31A
:102D300074E0882309F4AACE0093A80274E090CE30
:102D40002FB7F8948091A4029091A5022FBF8937E4
:102D5000910508F464C683E287BD8FB7F894A89AFA
:102D600016BC9DE095BD8FBF83E08093A10240918A
:102D70009D0250919E0241155105D9F09A01ABEA8E
:102D8000BAEA0E94232021966CAF7DAF8EAF9FAF31
:102D90002197DC01CB01F1E1B695A7959795879531
:102DA000FA95D1F7BA01680F791F6933F0E37F070D
:102DB00010F068E370E38CE692E00E94C7015F9A2E
:102DC00040E4E42E51E062E0C62E73E0D72E06E028
:102DD000E4E0FE2E4BE48091A8028111F3C08091C3
:102DE000FF01863009F4C1C080915E0290915902C2
:102DF000880F892B813009F474C1882309F42FC10D
:102E000090910402992309F42AC1833009F410C176
:102E100080915402882309F426C18091AE02811169
:102E200026C15093A7028091A802811120C188E099
:102E30008093FF018091FF01873009F486C51092CD
:102E4000A3028091A602813009F08DC08FEF80939C
:102E5000A60283B7817F83BF9FB7F89480916400F7
:102E60008F7D809364009FBF8091A4029091A50202
:102E7000892B09F483C52FB7F8948091A40290910F
:102E8000A5022FBF8937910508F0E0C583E387BD10
:102E90008FB7F894A89A16BC9DE095BD8FBF82E0CD
:102EA0008093A1028091A302882309F461C630E0D7
:102EB00020E033C080919F029091A002849708F493
:102EC0003EC080917102909172024FB7F894609168
:102ED0006E0270916F027E8B6D8B4FBF4D895E8944
:102EE000841B950B2817390750F58091A1028D7F1F
:102EF00009F4F5C580919F029091A002280F391F17
:102F00004FB7F89480919F029091A0029695879573
:102F10009093A00280939F024FBF8091A1028D7F6A
:102F200049F68FB7F89440919F025091A002588FB4
:102F30004F8B8FBF8F89988D849708F0C2CF809177
:102F4000A1028D7F09F4A7C680919F029091A002F3
:102F50002FB7F89490936F0280936E022FBF9093D7
:102F60007202809371025F98DCCB80916B02843097
:102F700009F4F4C0F0926B028FB7F89470926A0271
:102F8000609269028FBF8091AE02811107C0509399
:102F9000A7028091A802882309F449CF83B7817FD3
:102FA00083BF83B7816083BF889583B78E7F83BFDC
:102FB0008FB7F894409360008FBF8091A802882358
:102FC00009F40DCF80916302882329F08091640277
:102FD000882309F443C380916202909164029111A5
:102FE000B2C190916302992329F0909164029923D0
:102FF00009F448C390916602282F292B09F444C391
:1030000050936302833008F0EACE992309F4E7CEA7
:103010001092A80280916B0080FFE1CE9FB7F894D8
:1030200080916B008E7F80936B009FBFD89AD7CE24
:1030300020915002309151022115310509F4E8CE5A
:103040009FB7F89460915202709153027AA369A3DA
:103050009FBF69A17AA16217730708F4D9CE809344
:1030600054028111DACE2C9A0093FF0197CF809100
:10307000A102813009F4A4C380910402882309F4D9
:103080008DCF1092A202E0919D02F0919E023097A6
:10309000D1F09F01ABEABAEA0E94232021966CAFDF
:1030A0007DAF8EAF9FAF2197DC01CB0121E1B695BB
:1030B000A795979587952A95D1F7E80FF91FE933DA
:1030C00030E3F30710F0E8E3F0E38FB7F894F09300
:1030D0006F02E0936E028FBFF0937202E093710271
:1030E0005DCF109254022C9A0093FF0157CF893084
:1030F00008F09FC1853008F44FC480915F02823090
:1031000009F4EFC94FB7F89480916500877F8093E9
:103110006500B0929900A0929800C09A1092950014
:10312000109294004FBF4FB7F89480916400877F4E
:1031300080936400ACEEB5E0B0938900A093880062
:10314000609380004FBF4FB7F894809191008560E5
:10315000809391004FBF70935F02C3C98FB7F894FB
:103160002091690230916A023CA32BA38FBF8BA1EF
:103170009CA1892B09F007CF8FB7F89470926A024F
:10318000609269028FBF87E08093FF018091A70260
:10319000811150CED090A202DD2009F44BCE809157
:1031A0007102909172022FB7F89440916E02509183
:1031B0006F0258A34F8F2FBF2F8D38A1821B930B07
:1031C0002091930230919402A9014C5F5F4F2F56DA
:1031D00032402D3131050CF02FC4509394024093AE
:1031E0009302A0919302B091940213969C938E93B4
:1031F0001297ED90FC9011972091990230919A02CC
:10320000A217B30709F473C5E0919902F0919A02ED
:103210000D2D49E952E0BA014D010EC0DB016D915F
:103220007C91B2E0E539FB0709F499C400E03081F4
:103230002181AF01E32FF22F208131818216930685
:1032400009F459C4228133812817390758F4DA0167
:103250008D919C91D4018D939C93DA018D929C92D7
:1032600080E090E00111DACF22E0E539F20709F4BD
:1032700076C40D2DDCCF2091650023FF53CC23B7FE
:10328000217F2C6023BF51CC2FB7F8948090690226
:1032900090906A029CA68BA62FBF2BA53CA5232B42
:1032A00009F038C92FB7F8941093690210926A0296
:1032B0002FBF4093FF018093A60223B7217F23BF36
:1032C0003FB7F894209164002F7D209364003FBFA6
:1032D0002091A4023091A502232B09F46DC0AFB751
:1032E000F8942091A4023091A502AFBF293731058F
:1032F00008F06CC2B7BD2FB7F894A89A16BC65BD8C
:103300002FBF08C92FB7F8948090690290906A0285
:1033100098A68FA22FBF2FA138A5232B09F0FAC89A
:103320008FB7F8941093690210926A028FBF809150
:103330000001813009F419C384E08093FF012C98C7
:103340008091FF01C1C8893008F059C1853008F467
:103350006CC480915F02823009F441CD9FB7F8942C
:1033600080916500877F80936500B0929900A0925C
:103370009800C09A10929500109294009FBF9FB73A
:10338000F89480916400877F809364003CEE832EE4
:1033900035E0932E9092890080928800E092800020
:1033A0009FBF9FB7F89480919100856080939100B2
:1033B0009FBFC0925F0213CDAFB7F8942091A402D3
:1033C0003091A502AFBF2937310508F001C2F7BD22
:1033D00092CF292F71E0911159CB57CB35E033CCE7
:1033E0008091000191E090930502811152C484E024
:1033F0008093FF018091A802882309F46AC081E0CC
:10340000809363028EC98091640281110C947112C1
:1034100080916302882329F080916402882309F453
:1034200066C080916602882309F461C0209363021C
:103430005FCA80915F02833011F40C9471124FB710
:10344000F89480916500877F80936500B092990021
:10345000A0929800C09A10929500109294004FBFCD
:103460004FB7F89480916400877F80936400309216
:10347000890020928800609380004FBF4FB7F89476
:10348000809191008560809391004FBF30935F02DF
:103490000C94711274E03FB7F894E0EDF1E0F09312
:1034A000B302E093B20220916500277F209365006C
:1034B0005092990040929800C09A109295001092F4
:1034C0009400209191002560209391003FBF21E05E
:1034D000DDCA80916B0080FF24C99FB7F89480916A
:1034E0006B008E7F80936B009FBFD89A1AC90C9493
:1034F00071128091A1028D7F09F47FC180919F029A
:103500009091A0022FB7F89490936F0280936E026F
:103510002FBF90937202809371028091A1028D7FE0
:1035200009F45FC180919F029091A002803C984075
:1035300010F00C9461122FB7F89480919F02909133
:10354000A002880F991F9093A00280939F022FBF23
:103550002C988091FF010C9464122FB7F8948091FD
:10356000A4029091A5022FBF8937910508F0F9C1F7
:1035700086E287BD0C94F41181E080930001809372
:10358000050236CF293008F072C1253008F461C237
:1035900020915F02223011F40C94B7113FB7F894D8
:1035A00020916500277F20936500B0929900A0923A
:1035B0009800C09A10929500109294003FBF3FB7B8
:1035C000F89420916400277F20936400ACEE8A2E4B
:1035D000A5E09A2E9092890080928800D092800077
:1035E0003FBF3FB7F8942091910025602093910050
:1035F0003FBF40935F020C94B71173E04CCF8091B2
:103600005F02833009F4EBCB9FB7F894809165009B
:10361000877F80936500B0929900A0929800C09A2D
:1036200010929500109294009FBF9FB7F8948091DC
:103630006400877F80936400309289002092880024
:10364000E09280009FBF9FB7F894809191008560C1
:10365000809391009FBFD0925F02C1CB80916402A2
:103660008111BDCB80916302882329F0809164028F
:10367000882309F43BC380916602882329F0509384
:103680006302C6CC8111D5C1AACB8FB7F894209123
:10369000690230916A023A8329838FBF89819A81B6
:1036A000892B11F00C9491130FB7F894E0916702F5
:1036B000F0916802848195818B59914011F40C94AA
:1036C0008A1363E170E187E692E00E949B010C940B
:1036D00090138FB7F89420915202309153023A8B95
:1036E000298B10925302109252028FBF89899A89B6
:1036F0002091460230914702A9014C5F5F4F225052
:1037000032402D3331050CF07EC150934702409377
:103710004602DA0113969C938E931297FC901196B1
:10372000EC901197E0914C02F0914D02AE17BF075B
:1037300009F4D5C201E04CE452E0BA016D010DC0BC
:10374000DB016D917C91B2E0E834FB0731F100E0E0
:1037500030812181AF01E32FF22F20813181C21608
:10376000D306C1F0228133812817390758F4DA01D2
:103770008D919C91D6018D939C93DA01CD92DC9230
:1037800080E090E00111DCCF22E0E834F20729F07C
:1037900001E0DECFF082E182E5CFDB0112968D9170
:1037A0009C9190935102809350020C9472139FB796
:1037B000F89480916B00816080936B009FBFF8C884
:1037C00090E080E00E94382072E065CEF7BC93CD97
:1037D00007BD91CD882309F48ACE209363020C940F
:1037E00071128FB7F89420919F023091A00238AFE8
:1037F0002FAB8FBF8FA998AD99CE8FB7F89420913A
:103800009F023091A0023EAB2DAB8FBF8DA99EA928
:1038100079CE8FB7F89420919F023091A0023EA7F5
:103820002DA78FBF8DA59EA50C9456122FB7F89487
:103830008091A4029091A5022FBF8937910508F0CD
:10384000EAC086E287BD0C94C9122091640221115E
:103850000C94B71120916302211171C0209166026E
:10386000222309F470C0809363020C9420142091E9
:103870005F02233011F40C94B7113FB7F8942091F4
:103880006500277F20936500B0929900A092980070
:10389000C09A10929500109294003FBF3FB7F894E1
:1038A00020916400277F2093640030928900209249
:1038B0008800D09280003FBF3FB7F89420919100DC
:1038C0002560209391003FBF70935F020C94B71165
:1038D000333008F47ECD70915F02713009F44AC034
:1038E000EFB7F89430916500377F30936500B09260
:1038F0009900A0929800C09A10929500109294009E
:10390000EFBFEFB7F89430916400377F30936400D5
:1039100067E975E07093890060938800D092800019
:10392000EFBFEFB7F894309191003560309391007C
:10393000EFBF00935F0271E09111A8C8A6C8209163
:10394000640221118BCF0C94B7111092A70288E06A
:103950008093FF011092050274CA8FE287BD0C9418
:10396000F41183E287BD0C94F41188E08093FF0189
:103970000C94611291118AC888C893C92FB7F89422
:103980008091A4029091A5022FBF8937910508F07C
:103990005AC086E287BD7CCA833010F40C94711241
:1039A00080915F02813011F40C9471124FB7F8943A
:1039B00080916500877F80936500B0929900A09206
:1039C0009800C09A10929500109294004FBF4FB784
:1039D000F89480916400877F80936400E7E9F5E0C4
:1039E000F0938900E0938800609380004FBF4FB749
:1039F000F894809191008560809391004FBF20934F
:103A00005F020C94711226E032E03093470220935B
:103A10004602D9017FCE83E287BD0C94C91286E2AB
:103A200087BD9BC98FE287BD98C98FE287BD0C9483
:103A3000C91250936302D3C923E732E03093940252
:103A400020939302CECB83E287BD22CA8FE287BD4B
:103A50001FCA233010F40C94B71120915F0221305B
:103A600011F40C94B7113FB7F89420916500277FAB
:103A700020936500B0929900A0929800C09A10928D
:103A80009500109294003FBF3FB7F89420916400D6
:103A9000277F2093640027E9822E25E0922E9092C2
:103AA000890080928800D09280003FBF3FB7F89491
:103AB000209191002560209391003FBF80935F0289
:103AC0000C94B7118FB7F89440919F025091A002C7
:103AD0005C874B878FBF8B859C850C9401138FB7B8
:103AE000F89440919F025091A0025A8F498F8FBF46
:103AF000898D9A8D03CAF182E082A4CB8091A102C4
:103B00008D7F09F47FC080919F029091A0022FB712
:103B1000F89490936F0280936E022FBF909372027D
:103B2000809371028091A1028D7F09F45FC0809122
:103B30009F029091A002803C984010F00C943713A3
:103B40002FB7F89480919F029091A002880F991F3F
:103B50009093A00280939F022FBF0C943713DB0138
:103B600012968D919C9190939E0280939D0262C9C2
:103B70008091A1028D7F09F4A6C080919F0290914F
:103B8000A0022FB7F89490936F0280936E022FBF1C
:103B900090937202809371028091A1028D7F09F44B
:103BA00086C080919F029091A002803C984008F0CE
:103BB000DAC92FB7F89480919F029091A002880FE4
:103BC000991F9093A00280939F022FBF5F980C943F
:103BD00091138FB7F89420919F023091A0023E83F9
:103BE0002D838FBF8D819E810C942C138FB7F894F9
:103BF00020919F023091A002388B2F878FBF8F8535
:103C0000988999CF8FB7F89420919F023091A002A4
:103C10003E872D878FBF8D859E8579CF222309F41E
:103C200092CE809363020C94B711833008F4D7C806
:103C300080915F02813009F4D2C89FB7F8948091D7
:103C40006500877F80936500B0929900A0929800EC
:103C5000C09A10929500109294009FBF9FB7F8945D
:103C600080916400877F8093640027E935E030937A
:103C7000890020938800E09280009FBF9FB7F8944E
:103C8000809191008560809391009FBF50935F0267
:103C9000A6C881E0ADCB8FB7F89420919F023091F8
:103CA000A0023C8B2B8B8FBF8B899C8951C98FB70E
:103CB000F89420919F023091A0023E8F2D8F8FBFEC
:103CC0008D8D9E8D72CF8FB7F89420919F02309189
:103CD000A0023C8F2B8F8FBF8B8D9C8D52CFF0928B
:103CE0004C02E0924D02EF2DFE2D24CD78C8F092CB
:103CF0009A02E092990288CA0F931F93CF9384EBA4
:103D000092E09093B3028093B2021092B5021092A7
:103D1000B4021092B6029FB7F89480916400877F36
:103D2000809364001092800089E0809381008091EC
:103D30006400886080936400259A2D9880916500C6
:103D4000877F809365001092900082E080937100DD
:103D50002FEF3FEF30939900209398008DE08093F0
:103D6000910080916500886080936500C09A9FBF34
:103D700089B18170C1E08C2710925C0280935D0252
:103D800080935E028EE591E090935B0280935A02ED
:103D9000509869B161706C278AE592E00E946311C6
:103DA00089B183FB882780F98C2710925702809372
:103DB0005802809359028AE491E0909356028093CE
:103DC0005502539869B163FB662760F96C2785E556
:103DD00092E00E94631189B182FB882780F98C27C9
:103DE00010920202809303028093040282E291E027
:103DF0009093010280930002529869B162FB66279A
:103E000060F96C2780E092E00E94631186E391E004
:103E10009093010280930002C0930502E6E0F2E075
:103E200080E4DF011D928A95E9F7F0934702E09361
:103E30004602109249021092480210924B021092D0
:103E40004A0288E492E090934D0280934C021092D3
:103E50004F0210924E021092510210925002109294
:103E600053021092520289B1869581708C2710926C
:103E7000AC021092AB0202EA11E01093AA02009386
:103E8000A9029FB7F8949FBF8093AD028093AE02C2
:103E90008EE091E09093AA028093A902519889B193
:103EA00086958170C8278091AD028C1761F06C2FC8
:103EB00089EA92E00E943601BC0189EA92E00E9400
:103EC000A501C093AD0282EB91E09093AA0280938A
:103ED000A9028091AE0291E089278093B1021092ED
:103EE0006F0210926E0210936D0200936C028FB7F6
:103EF000F8948FBF109270022AE831E030936D027F
:103F000020936C02E3E7F2E080E2DF011D928A95E4
:103F1000E9F7F0939402E0939302109296021092C4
:103F20009502109298021092970225E932E03093A0
:103F30009A022093990210929C0210929B02109276
:103F40009E0210929D0223E230E03093A002209363
:103F50009F021092A1029093A2029093A302269A2C
:103F60002E9822E731E030936D0220936C0210927C
:103F7000A5021092A4022FEF2093A6023FB7F89457
:103F80008AE682BF80E189BD809165008F7E809343
:103F9000650081E28093C0001092BF001092D000B3
:103FA0001092A5021092A40282E08093BF008FE7D6
:103FB0008093D1001092C1003FBF809164008F7D3B
:103FC0008093640083E084BD80916E008160809363
:103FD0006E0088E085BDA89A16BC8091640080625E
:103FE0008093640010926A02109269021093680232
:103FF000009367028FB7F8948FBF42EA51E0509365
:1040000068024093670220936B0226E031E0309310
:104010006102209360021092620210926302109279
:104020006602209883B1817089278093650280930E
:10403000640286E091E09093610280936002CF91E8
:104040001F910F910895A29FB001B39FC001A39F3C
:10405000700D811D1124911DB29F700D811D1124C1
:10406000911D0895EE0FFF1F0590F491E02D099426
:104070009FB7F894809164008062809364009FBF32
:104080001092C1002E989FB7F894809165008061CE
:104090008093650089B58D7F89BD9FBF5C982C9802
:1040A0005F989FB7F89420ED31E03093B3022093EE
:1040B000B20280916500877F809365002EE030E03A
:1040C0003093990020939800C09A10929500109216
:1040D0009400809191008560809391009FBF8091B2
:1040E000640083FFFCCF8091650083FFF8CFF894D4
:1040F00083B7817F846083BF83B7816083BF8895E6
:04410000F894FFCF61
:104104000301000000004108C606000000005E082C
:10411400C2069B019F01A5011308BA06800700008F
:1041240000009E060701F1000401E100F400980676
:10413400B107000000000B010701F1000401E100D8
:10414400F4009806B107000000009E060701F10084
:104154000401E100F4009206E207000000009E065C
:104164000701F1000401E100F40092065207000087
:1041740000005E0873089B019F01C7011308C0017A
:10418400D10606073B07000000005E0873089B0188
:104194009F01C701130838083F083D08AD08000017
:1041A40000005E08F4099B019F01A50113080000AB
:1041B40000005E0845019B019F01A501130836011B
:1041C40080075A0255020002A9026C0267026002CB
:1041D400FB044BF30332FB044BF30332FB044BF3BA
:1041E4000332FB044BF30332000000F303E1FB044E
:0E41F400E1000000FB04E1F303E10000000025
:02000004008278
:03000000DFD8F84E
:00000001FF
